{
  "contracts/Gravity.sol": {
    "Gravity": {
      "abi": [
        {
          "inputs": [
            {
              "internalType": "bytes32",
              "name": "_gravityId",
              "type": "bytes32"
            },
            {
              "internalType": "uint256",
              "name": "_powerThreshold",
              "type": "uint256"
            },
            {
              "internalType": "address[]",
              "name": "_validators",
              "type": "address[]"
            },
            {
              "internalType": "uint256[]",
              "name": "_powers",
              "type": "uint256[]"
            }
          ],
          "stateMutability": "nonpayable",
          "type": "constructor"
        },
        {
          "anonymous": false,
          "inputs": [
            {
              "indexed": false,
              "internalType": "string",
              "name": "_cosmosDenom",
              "type": "string"
            },
            {
              "indexed": true,
              "internalType": "address",
              "name": "_tokenContract",
              "type": "address"
            },
            {
              "indexed": false,
              "internalType": "string",
              "name": "_name",
              "type": "string"
            },
            {
              "indexed": false,
              "internalType": "string",
              "name": "_symbol",
              "type": "string"
            },
            {
              "indexed": false,
              "internalType": "uint8",
              "name": "_decimals",
              "type": "uint8"
            },
            {
              "indexed": false,
              "internalType": "uint256",
              "name": "_eventNonce",
              "type": "uint256"
            }
          ],
          "name": "ERC20DeployedEvent",
          "type": "event"
        },
        {
          "anonymous": false,
          "inputs": [
            {
              "indexed": false,
              "internalType": "bytes32",
              "name": "_invalidationId",
              "type": "bytes32"
            },
            {
              "indexed": false,
              "internalType": "uint256",
              "name": "_invalidationNonce",
              "type": "uint256"
            },
            {
              "indexed": false,
              "internalType": "bytes",
              "name": "_returnData",
              "type": "bytes"
            },
            {
              "indexed": false,
              "internalType": "uint256",
              "name": "_eventNonce",
              "type": "uint256"
            }
          ],
          "name": "LogicCallEvent",
          "type": "event"
        },
        {
          "anonymous": false,
          "inputs": [
            {
              "indexed": true,
              "internalType": "address",
              "name": "_tokenContract",
              "type": "address"
            },
            {
              "indexed": true,
              "internalType": "address",
              "name": "_sender",
              "type": "address"
            },
            {
              "indexed": true,
              "internalType": "bytes32",
              "name": "_destination",
              "type": "bytes32"
            },
            {
              "indexed": false,
              "internalType": "uint256",
              "name": "_amount",
              "type": "uint256"
            },
            {
              "indexed": false,
              "internalType": "uint256",
              "name": "_eventNonce",
              "type": "uint256"
            }
          ],
          "name": "SendToCosmosEvent",
          "type": "event"
        },
        {
          "anonymous": false,
          "inputs": [
            {
              "indexed": true,
              "internalType": "uint256",
              "name": "_batchNonce",
              "type": "uint256"
            },
            {
              "indexed": true,
              "internalType": "address",
              "name": "_token",
              "type": "address"
            },
            {
              "indexed": false,
              "internalType": "uint256",
              "name": "_eventNonce",
              "type": "uint256"
            }
          ],
          "name": "TransactionBatchExecutedEvent",
          "type": "event"
        },
        {
          "anonymous": false,
          "inputs": [
            {
              "indexed": true,
              "internalType": "uint256",
              "name": "_newValsetNonce",
              "type": "uint256"
            },
            {
              "indexed": false,
              "internalType": "uint256",
              "name": "_eventNonce",
              "type": "uint256"
            },
            {
              "indexed": false,
              "internalType": "address[]",
              "name": "_validators",
              "type": "address[]"
            },
            {
              "indexed": false,
              "internalType": "uint256[]",
              "name": "_powers",
              "type": "uint256[]"
            }
          ],
          "name": "ValsetUpdatedEvent",
          "type": "event"
        },
        {
          "inputs": [
            {
              "internalType": "string",
              "name": "_cosmosDenom",
              "type": "string"
            },
            {
              "internalType": "string",
              "name": "_name",
              "type": "string"
            },
            {
              "internalType": "string",
              "name": "_symbol",
              "type": "string"
            },
            {
              "internalType": "uint8",
              "name": "_decimals",
              "type": "uint8"
            }
          ],
          "name": "deployERC20",
          "outputs": [],
          "stateMutability": "nonpayable",
          "type": "function"
        },
        {
          "inputs": [
            {
              "internalType": "address",
              "name": "_erc20Address",
              "type": "address"
            }
          ],
          "name": "lastBatchNonce",
          "outputs": [
            {
              "internalType": "uint256",
              "name": "",
              "type": "uint256"
            }
          ],
          "stateMutability": "view",
          "type": "function"
        },
        {
          "inputs": [
            {
              "internalType": "bytes32",
              "name": "_invalidation_id",
              "type": "bytes32"
            }
          ],
          "name": "lastLogicCallNonce",
          "outputs": [
            {
              "internalType": "uint256",
              "name": "",
              "type": "uint256"
            }
          ],
          "stateMutability": "view",
          "type": "function"
        },
        {
          "inputs": [
            {
              "internalType": "address",
              "name": "_tokenContract",
              "type": "address"
            },
            {
              "internalType": "bytes32",
              "name": "_destination",
              "type": "bytes32"
            },
            {
              "internalType": "uint256",
              "name": "_amount",
              "type": "uint256"
            }
          ],
          "name": "sendToCosmos",
          "outputs": [],
          "stateMutability": "nonpayable",
          "type": "function"
        },
        {
          "inputs": [],
          "name": "state_gravityId",
          "outputs": [
            {
              "internalType": "bytes32",
              "name": "",
              "type": "bytes32"
            }
          ],
          "stateMutability": "view",
          "type": "function"
        },
        {
          "inputs": [
            {
              "internalType": "bytes32",
              "name": "",
              "type": "bytes32"
            }
          ],
          "name": "state_invalidationMapping",
          "outputs": [
            {
              "internalType": "uint256",
              "name": "",
              "type": "uint256"
            }
          ],
          "stateMutability": "view",
          "type": "function"
        },
        {
          "inputs": [
            {
              "internalType": "address",
              "name": "",
              "type": "address"
            }
          ],
          "name": "state_lastBatchNonces",
          "outputs": [
            {
              "internalType": "uint256",
              "name": "",
              "type": "uint256"
            }
          ],
          "stateMutability": "view",
          "type": "function"
        },
        {
          "inputs": [],
          "name": "state_lastEventNonce",
          "outputs": [
            {
              "internalType": "uint256",
              "name": "",
              "type": "uint256"
            }
          ],
          "stateMutability": "view",
          "type": "function"
        },
        {
          "inputs": [],
          "name": "state_lastValsetCheckpoint",
          "outputs": [
            {
              "internalType": "bytes32",
              "name": "",
              "type": "bytes32"
            }
          ],
          "stateMutability": "view",
          "type": "function"
        },
        {
          "inputs": [],
          "name": "state_lastValsetNonce",
          "outputs": [
            {
              "internalType": "uint256",
              "name": "",
              "type": "uint256"
            }
          ],
          "stateMutability": "view",
          "type": "function"
        },
        {
          "inputs": [],
          "name": "state_powerThreshold",
          "outputs": [
            {
              "internalType": "uint256",
              "name": "",
              "type": "uint256"
            }
          ],
          "stateMutability": "view",
          "type": "function"
        },
        {
          "inputs": [
            {
              "internalType": "address[]",
              "name": "_currentValidators",
              "type": "address[]"
            },
            {
              "internalType": "uint256[]",
              "name": "_currentPowers",
              "type": "uint256[]"
            },
            {
              "internalType": "uint256",
              "name": "_currentValsetNonce",
              "type": "uint256"
            },
            {
              "internalType": "uint8[]",
              "name": "_v",
              "type": "uint8[]"
            },
            {
              "internalType": "bytes32[]",
              "name": "_r",
              "type": "bytes32[]"
            },
            {
              "internalType": "bytes32[]",
              "name": "_s",
              "type": "bytes32[]"
            },
            {
              "internalType": "uint256[]",
              "name": "_amounts",
              "type": "uint256[]"
            },
            {
              "internalType": "address[]",
              "name": "_destinations",
              "type": "address[]"
            },
            {
              "internalType": "uint256[]",
              "name": "_fees",
              "type": "uint256[]"
            },
            {
              "internalType": "uint256",
              "name": "_batchNonce",
              "type": "uint256"
            },
            {
              "internalType": "address",
              "name": "_tokenContract",
              "type": "address"
            },
            {
              "internalType": "uint256",
              "name": "_batchTimeout",
              "type": "uint256"
            }
          ],
          "name": "submitBatch",
          "outputs": [],
          "stateMutability": "nonpayable",
          "type": "function"
        },
        {
          "inputs": [
            {
              "internalType": "address[]",
              "name": "_currentValidators",
              "type": "address[]"
            },
            {
              "internalType": "uint256[]",
              "name": "_currentPowers",
              "type": "uint256[]"
            },
            {
              "internalType": "uint256",
              "name": "_currentValsetNonce",
              "type": "uint256"
            },
            {
              "internalType": "uint8[]",
              "name": "_v",
              "type": "uint8[]"
            },
            {
              "internalType": "bytes32[]",
              "name": "_r",
              "type": "bytes32[]"
            },
            {
              "internalType": "bytes32[]",
              "name": "_s",
              "type": "bytes32[]"
            },
            {
              "components": [
                {
                  "internalType": "uint256[]",
                  "name": "transferAmounts",
                  "type": "uint256[]"
                },
                {
                  "internalType": "address[]",
                  "name": "transferTokenContracts",
                  "type": "address[]"
                },
                {
                  "internalType": "uint256[]",
                  "name": "feeAmounts",
                  "type": "uint256[]"
                },
                {
                  "internalType": "address[]",
                  "name": "feeTokenContracts",
                  "type": "address[]"
                },
                {
                  "internalType": "address",
                  "name": "logicContractAddress",
                  "type": "address"
                },
                {
                  "internalType": "bytes",
                  "name": "payload",
                  "type": "bytes"
                },
                {
                  "internalType": "uint256",
                  "name": "timeOut",
                  "type": "uint256"
                },
                {
                  "internalType": "bytes32",
                  "name": "invalidationId",
                  "type": "bytes32"
                },
                {
                  "internalType": "uint256",
                  "name": "invalidationNonce",
                  "type": "uint256"
                }
              ],
              "internalType": "struct LogicCallArgs",
              "name": "_args",
              "type": "tuple"
            }
          ],
          "name": "submitLogicCall",
          "outputs": [],
          "stateMutability": "nonpayable",
          "type": "function"
        },
        {
          "inputs": [
            {
              "internalType": "address[]",
              "name": "_currentValidators",
              "type": "address[]"
            },
            {
              "internalType": "uint256[]",
              "name": "_currentPowers",
              "type": "uint256[]"
            },
            {
              "internalType": "uint8[]",
              "name": "_v",
              "type": "uint8[]"
            },
            {
              "internalType": "bytes32[]",
              "name": "_r",
              "type": "bytes32[]"
            },
            {
              "internalType": "bytes32[]",
              "name": "_s",
              "type": "bytes32[]"
            },
            {
              "internalType": "bytes32",
              "name": "_theHash",
              "type": "bytes32"
            },
            {
              "internalType": "uint256",
              "name": "_powerThreshold",
              "type": "uint256"
            }
          ],
          "name": "testCheckValidatorSignatures",
          "outputs": [],
          "stateMutability": "pure",
          "type": "function"
        },
        {
          "inputs": [
            {
              "internalType": "address[]",
              "name": "_validators",
              "type": "address[]"
            },
            {
              "internalType": "uint256[]",
              "name": "_powers",
              "type": "uint256[]"
            },
            {
              "internalType": "uint256",
              "name": "_valsetNonce",
              "type": "uint256"
            },
            {
              "internalType": "bytes32",
              "name": "_gravityId",
              "type": "bytes32"
            }
          ],
          "name": "testMakeCheckpoint",
          "outputs": [],
          "stateMutability": "pure",
          "type": "function"
        },
        {
          "inputs": [
            {
              "internalType": "address[]",
              "name": "_newValidators",
              "type": "address[]"
            },
            {
              "internalType": "uint256[]",
              "name": "_newPowers",
              "type": "uint256[]"
            },
            {
              "internalType": "uint256",
              "name": "_newValsetNonce",
              "type": "uint256"
            },
            {
              "internalType": "address[]",
              "name": "_currentValidators",
              "type": "address[]"
            },
            {
              "internalType": "uint256[]",
              "name": "_currentPowers",
              "type": "uint256[]"
            },
            {
              "internalType": "uint256",
              "name": "_currentValsetNonce",
              "type": "uint256"
            },
            {
              "internalType": "uint8[]",
              "name": "_v",
              "type": "uint8[]"
            },
            {
              "internalType": "bytes32[]",
              "name": "_r",
              "type": "bytes32[]"
            },
            {
              "internalType": "bytes32[]",
              "name": "_s",
              "type": "bytes32[]"
            }
          ],
          "name": "updateValset",
          "outputs": [],
          "stateMutability": "nonpayable",
          "type": "function"
        }
      ],
      "evm": {
        "bytecode": {
          "linkReferences": {},
          "object": "6080604052600060045560016005553480156200001b57600080fd5b5060405162003722380380620037228339810160408190526200003e9162000233565b60016000558051825114620000705760405162461bcd60e51b8152600401620000679062000431565b60405180910390fd5b6000805b8251811015620000af578281815181106200008b57fe5b60200260200101518201915084821115620000a657620000af565b60010162000074565b50838111620000d25760405162461bcd60e51b81526004016200006790620003d4565b6000620000eb848483896001600160e01b036200014d16565b60068790556007869055600181905560045460055460405192935090917fb119f1f36224601586b5037da909ecf37e83864dddea5d32ad4e32ac1d97e62b9162000139918890889062000468565b60405180910390a2505050505050620004e8565b6040516000906918da1958dadc1bda5b9d60b21b9082906200017c908590849088908b908b906020016200038d565b60408051808303601f190181529190528051602090910120979650505050505050565b80516001600160a01b0381168114620001b757600080fd5b92915050565b600082601f830112620001ce578081fd5b8151620001e5620001df82620004c8565b620004a1565b8181529150602080830190848101818402860182018710156200020757600080fd5b60005b8481101562000228578151845292820192908201906001016200020a565b505050505092915050565b6000806000806080858703121562000249578384fd5b845160208087015160408801519296509450906001600160401b038082111562000271578485fd5b81880189601f82011262000283578586fd5b8051925062000296620001df84620004c8565b83815284810190828601868602840187018d1015620002b3578889fd5b8893505b85841015620002e157620002cc8d826200019f565b835260019390930192918601918601620002b7565b5060608b01519097509450505080831115620002fb578384fd5b50506200030b87828801620001bd565b91505092959194509250565b6000815180845260208085019450808401835b83811015620003515781516001600160a01b0316875295820195908201906001016200032a565b509495945050505050565b6000815180845260208085019450808401835b8381101562000351578151875295820195908201906001016200036f565b600086825285602083015284604083015260a06060830152620003b460a083018562000317565b8281036080840152620003c881856200035c565b98975050505050505050565b6020808252603c908201527f5375626d69747465642076616c696461746f7220736574207369676e6174757260408201527f657320646f206e6f74206861766520656e6f75676820706f7765722e00000000606082015260800190565b6020808252601f908201527f4d616c666f726d65642063757272656e742076616c696461746f722073657400604082015260600190565b60008482526060602083015262000483606083018562000317565b82810360408401526200049781856200035c565b9695505050505050565b6040518181016001600160401b0381118282101715620004c057600080fd5b604052919050565b60006001600160401b03821115620004de578081fd5b5060209081020190565b61322a80620004f86000396000f3fe60806040523480156200001157600080fd5b5060043610620001185760003560e01c8063c227c30b11620000a5578063e3cb9f62116200006f578063e3cb9f621462000224578063e5a2b5d2146200023b578063f2b533071462000245578063f7955637146200024f5762000118565b8063c227c30b14620001c8578063c9d194d514620001df578063db7c4e5714620001f6578063df97174b146200020d5762000118565b80637dfb6f8611620000e75780637dfb6f86146200018657806383b435db146200019d578063b56561fe14620001b4578063bdda81d414620001be5762000118565b8063011b2174146200011d5780630c246c82146200014c5780631ffbe7f9146200016557806373b20547146200017c575b600080fd5b620001346200012e366004620013da565b62000266565b60405162000143919062001bf8565b60405180910390f35b620001636200015d3660046200181b565b62000281565b005b6200016362000176366004620013f8565b620005ce565b6200013462000684565b6200013462000197366004620019bf565b6200068a565b62000163620001ae36600462001663565b6200069c565b6200013462000968565b620001346200096e565b62000163620001d936600462001926565b62000974565b62000134620001f0366004620019bf565b62000989565b620001636200020736600462001439565b6200099b565b620001346200021e366004620013da565b620009b5565b620001636200023536600462001527565b620009c7565b6200013462000b53565b6200013462000b59565b6200016362000260366004620019d8565b62000b5f565b6001600160a01b031660009081526002602052604090205490565b60026000541415620002b05760405162461bcd60e51b8152600401620002a79062002284565b60405180910390fd5b600260005560c08101514310620002db5760405162461bcd60e51b8152600401620002a79062001fd7565b61010081015160e082015160009081526003602052604090205410620003155760405162461bcd60e51b8152600401620002a79062001f43565b8551875114801562000328575083518751145b801562000336575082518751145b801562000344575081518751145b620003635760405162461bcd60e51b8152600401620002a7906200224d565b6001546200037688888860065462000c11565b14620003965760405162461bcd60e51b8152600401620002a79062001e59565b60208101515181515114620003bf5760405162461bcd60e51b8152600401620002a7906200209a565b80606001515181604001515114620003eb5760405162461bcd60e51b8152600401620002a79062001e29565b6000600654681b1bd9da58d0d85b1b60ba1b836000015184602001518560400151866060015187608001518860a001518960c001518a60e001518b6101000151604051602001620004479b9a9998979695949392919062001c48565b6040516020818303038152906040528051906020012090506200047288888787878660075462000c65565b61010082015160e08301516000908152600360205260408120919091555b825151811015620004f857620004ef836080015184600001518381518110620004b557fe5b602002602001015185602001518481518110620004ce57fe5b60200260200101516001600160a01b031662000d6f9092919063ffffffff16565b60010162000490565b5060606200050f83608001518460a0015162000dce565b905060005b8360400151518110156200055a576200055133856040015183815181106200053857fe5b602002602001015186606001518481518110620004ce57fe5b60010162000514565b506005546200057190600163ffffffff62000e1b16565b600581905560e08401516101008501516040517f7c2bb24f8e1b3725cb613d7f11ef97d9745cc97a0e40f730621c052d684077a193620005b693929186919062001d6e565b60405180910390a15050600160005550505050505050565b60026000541415620005f45760405162461bcd60e51b8152600401620002a79062002284565b6002600055620006166001600160a01b03841633308463ffffffff62000e4316565b6005546200062c90600163ffffffff62000e1b16565b6005819055604051839133916001600160a01b038716917fd7767894d73c589daeca9643f445f03d7be61aad2950c117e7cbff4176fca7e49162000672918791620022f4565b60405180910390a45050600160005550565b60055481565b60036020526000908152604090205481565b60026000541415620006c25760405162461bcd60e51b8152600401620002a79062002284565b600260008181556001600160a01b038416815260209190915260409020548311620007015760405162461bcd60e51b8152600401620002a79062001eb6565b804310620007235760405162461bcd60e51b8152600401620002a7906200203d565b8a518c5114801562000736575088518c51145b801562000744575087518c51145b801562000752575086518c51145b620007715760405162461bcd60e51b8152600401620002a7906200224d565b600154620007848d8d8d60065462000c11565b14620007a45760405162461bcd60e51b8152600401620002a79062001e59565b84518651148015620007b7575083518651145b620007d65760405162461bcd60e51b8152600401620002a79062001f0c565b620008348c8c8b8b8b6006546f0e8e4c2dce6c2c6e8d2dedc84c2e8c6d60831b8d8d8d8d8d8d6040516020016200081598979695949392919062001cf7565b6040516020818303038152906040528051906020012060075462000c65565b6001600160a01b0382166000908152600260205260408120849055805b8751811015620008d757620008a38782815181106200086c57fe5b60200260200101518983815181106200088157fe5b6020026020010151866001600160a01b031662000d6f9092919063ffffffff16565b620008cc868281518110620008b457fe5b60200260200101518362000e1b90919063ffffffff16565b915060010162000851565b50620008f46001600160a01b038416338363ffffffff62000d6f16565b506005546200090b90600163ffffffff62000e1b16565b60058190556040516001600160a01b0384169185917f02c7e81975f8edb86e2a0c038b7b86a49c744236abf0f6177ff5afc6986ab708916200094d9162001bf8565b60405180910390a35050600160005550505050505050505050565b60045481565b60065481565b620009828484848462000c11565b5050505050565b60009081526003602052604090205490565b620009ac8787878787878762000c65565b50505050505050565b60026020526000908152604090205481565b60026000541415620009ed5760405162461bcd60e51b8152600401620002a79062002284565b600260005583871162000a145760405162461bcd60e51b8152600401620002a7906200216f565b875189511462000a385760405162461bcd60e51b8152600401620002a790620020db565b8451865114801562000a4b575082518651145b801562000a59575081518651145b801562000a67575080518651145b62000a865760405162461bcd60e51b8152600401620002a7906200224d565b60015462000a9987878760065462000c11565b1462000ab95760405162461bcd60e51b8152600401620002a79062001e59565b600062000acb8a8a8a60065462000c11565b905062000ae087878686868660075462000c65565b6001818155600489905560055462000afe9163ffffffff62000e1b16565b600581905560405189917fb119f1f36224601586b5037da909ecf37e83864dddea5d32ad4e32ac1d97e62b9162000b3a91908e908e90620022bb565b60405180910390a2505060016000555050505050505050565b60075481565b60015481565b60003084848460405162000b7390620010bb565b62000b82949392919062001b90565b604051809103906000f08015801562000b9f573d6000803e3d6000fd5b5060055490915062000bb990600163ffffffff62000e1b16565b60058190556040516001600160a01b038316917f82fe3a4fa49c6382d0c085746698ddbbafe6c2bf61285b19410644b5b26287c79162000c029189918991899189919062001dd3565b60405180910390a25050505050565b6040516000906918da1958dadc1bda5b9d60b21b90829062000c40908590849088908b908b9060200162001c01565b60408051601f198184030181529190528051602090910120925050505b949350505050565b6000805b885181101562000d425786818151811062000c8057fe5b602002602001015160ff1660001462000d395762000cf289828151811062000ca457fe5b60200260200101518589848151811062000cba57fe5b602002602001015189858151811062000ccf57fe5b602002602001015189868151811062000ce457fe5b602002602001015162000e6d565b62000d115760405162461bcd60e51b8152600401620002a79062001ffa565b87818151811062000d1e57fe5b6020026020010151820191508282111562000d395762000d42565b60010162000c69565b5081811162000d655760405162461bcd60e51b8152600401620002a79062002112565b5050505050505050565b62000dc98363a9059cbb60e01b848460405160240162000d9192919062001bdf565b60408051601f198184030181529190526020810180516001600160e01b03166001600160e01b03199093169290921790915262000f0d565b505050565b606062000e1283836040518060400160405280601e81526020017f416464726573733a206c6f772d6c6576656c2063616c6c206661696c6564000081525062000fa4565b90505b92915050565b60008282018381101562000e125760405162461bcd60e51b8152600401620002a79062001fa0565b62000e67846323b872dd60e01b85858560405160240162000d919392919062001b6c565b50505050565b6000808560405160200162000e83919062001b3b565b6040516020818303038152906040528051906020012090506001818686866040516000815260200160405260405162000ec0949392919062001da0565b6020604051602081039080840390855afa15801562000ee3573d6000803e3d6000fd5b505050602060405103516001600160a01b0316876001600160a01b03161491505095945050505050565b606062000f64826040518060400160405280602081526020017f5361666545524332303a206c6f772d6c6576656c2063616c6c206661696c6564815250856001600160a01b031662000fa49092919063ffffffff16565b80519091501562000dc9578080602001905181019062000f8591906200199d565b62000dc95760405162461bcd60e51b8152600401620002a79062002203565b606062000c5d8484600085606062000fbc8562001081565b62000fdb5760405162461bcd60e51b8152600401620002a790620021cc565b60006060866001600160a01b0316858760405162000ffa919062001b1d565b60006040518083038185875af1925050503d806000811462001039576040519150601f19603f3d011682016040523d82523d6000602084013e6200103e565b606091505b509150915081156200105457915062000c5d9050565b805115620010655780518082602001fd5b8360405162461bcd60e51b8152600401620002a7919062001dbe565b6000813f7fc5d2460186f7233c927e7db2dcc703c0e500b653ca82273b7bfad8045d85a47081811480159062000c5d575050151592915050565b610e7c806200237983390190565b80356001600160a01b038116811462000e1557600080fd5b600082601f830112620010f2578081fd5b813562001109620011038262002329565b62002302565b8181529150602080830190848101818402860182018710156200112b57600080fd5b60005b848110156200115657620011438883620010c9565b845292820192908201906001016200112e565b505050505092915050565b600082601f83011262001172578081fd5b813562001183620011038262002329565b818152915060208083019084810181840286018201871015620011a557600080fd5b60005b848110156200115657813584529282019290820190600101620011a8565b600082601f830112620011d7578081fd5b8135620011e8620011038262002329565b8181529150602080830190848101818402860182018710156200120a57600080fd5b60005b848110156200115657620012228883620013c8565b845292820192908201906001016200120d565b600082601f83011262001246578081fd5b81356001600160401b038111156200125c578182fd5b62001271601f8201601f191660200162002302565b91508082528360208285010111156200128957600080fd5b8060208401602084013760009082016020015292915050565b6000610120808385031215620012b6578182fd5b620012c18162002302565b91505081356001600160401b0380821115620012dc57600080fd5b620012ea8583860162001161565b835260208401359150808211156200130157600080fd5b6200130f85838601620010e1565b602084015260408401359150808211156200132957600080fd5b620013378583860162001161565b604084015260608401359150808211156200135157600080fd5b6200135f85838601620010e1565b6060840152620013738560808601620010c9565b608084015260a08401359150808211156200138d57600080fd5b506200139c8482850162001235565b60a08301525060c082013560c082015260e082013560e082015261010080830135818301525092915050565b803560ff8116811462000e1557600080fd5b600060208284031215620013ec578081fd5b62000e128383620010c9565b6000806000606084860312156200140d578182fd5b83356001600160a01b038116811462001424578283fd5b95602085013595506040909401359392505050565b600080600080600080600060e0888a03121562001454578283fd5b87356001600160401b03808211156200146b578485fd5b620014798b838c01620010e1565b985060208a01359150808211156200148f578485fd5b6200149d8b838c0162001161565b975060408a0135915080821115620014b3578485fd5b620014c18b838c01620011c6565b965060608a0135915080821115620014d7578485fd5b620014e58b838c0162001161565b955060808a0135915080821115620014fb578485fd5b506200150a8a828b0162001161565b93505060a0880135915060c0880135905092959891949750929550565b60008060008060008060008060006101208a8c03121562001546578182fd5b89356001600160401b03808211156200155d578384fd5b6200156b8d838e01620010e1565b9a5060208c013591508082111562001581578384fd5b6200158f8d838e0162001161565b995060408c0135985060608c0135915080821115620015ac578384fd5b620015ba8d838e01620010e1565b975060808c0135915080821115620015d0578384fd5b620015de8d838e0162001161565b965060a08c0135955060c08c0135915080821115620015fb578384fd5b620016098d838e01620011c6565b945060e08c01359150808211156200161f578384fd5b6200162d8d838e0162001161565b93506101008c013591508082111562001644578283fd5b50620016538c828d0162001161565b9150509295985092959850929598565b6000806000806000806000806000806000806101808d8f03121562001686578586fd5b6001600160401b038d3511156200169b578586fd5b620016aa8e8e358f01620010e1565b9b506001600160401b0360208e01351115620016c4578586fd5b620016d68e60208f01358f0162001161565b9a5060408d013599506001600160401b0360608e01351115620016f7578586fd5b620017098e60608f01358f01620011c6565b98506001600160401b0360808e0135111562001723578586fd5b620017358e60808f01358f0162001161565b97506001600160401b0360a08e013511156200174f578586fd5b620017618e60a08f01358f0162001161565b96506001600160401b0360c08e013511156200177b578586fd5b6200178d8e60c08f01358f0162001161565b95506001600160401b0360e08e01351115620017a7578283fd5b620017b98e60e08f01358f01620010e1565b94506001600160401b036101008e01351115620017d4578283fd5b620017e78e6101008f01358f0162001161565b93506101208d01359250620018018e6101408f01620010c9565b91506101608d013590509295989b509295989b509295989b565b600080600080600080600060e0888a03121562001836578081fd5b87356001600160401b03808211156200184d578283fd5b6200185b8b838c01620010e1565b985060208a013591508082111562001871578283fd5b6200187f8b838c0162001161565b975060408a0135965060608a01359150808211156200189c578283fd5b620018aa8b838c01620011c6565b955060808a0135915080821115620018c0578283fd5b620018ce8b838c0162001161565b945060a08a0135915080821115620018e4578283fd5b620018f28b838c0162001161565b935060c08a013591508082111562001908578283fd5b50620019178a828b01620012a2565b91505092959891949750929550565b600080600080608085870312156200193c578182fd5b84356001600160401b038082111562001953578384fd5b6200196188838901620010e1565b9550602087013591508082111562001977578384fd5b50620019868782880162001161565b949794965050505060408301359260600135919050565b600060208284031215620019af578081fd5b8151801515811462000e12578182fd5b600060208284031215620019d1578081fd5b5035919050565b60008060008060808587031215620019ee578182fd5b84356001600160401b038082111562001a05578384fd5b62001a138883890162001235565b9550602087013591508082111562001a29578384fd5b62001a378883890162001235565b9450604087013591508082111562001a4d578384fd5b5062001a5c8782880162001235565b92505062001a6e8660608701620013c8565b905092959194509250565b6000815180845260208085019450808401835b8381101562001ab35781516001600160a01b03168752958201959082019060010162001a8c565b509495945050505050565b6000815180845260208085019450808401835b8381101562001ab35781518752958201959082019060010162001ad1565b6000815180845262001b0981602086016020860162002349565b601f01601f19169290920160200192915050565b6000825162001b3181846020870162002349565b9190910192915050565b7f19457468657265756d205369676e6564204d6573736167653a0a3332000000008152601c810191909152603c0190565b6001600160a01b039384168152919092166020820152604081019190915260600190565b6001600160a01b038516815260806020820181905260009062001bb69083018662001aef565b828103604084015262001bca818662001aef565b91505060ff8316606083015295945050505050565b6001600160a01b03929092168252602082015260400190565b90815260200190565b600086825285602083015284604083015260a0606083015262001c2860a083018562001a79565b828103608084015262001c3c818562001abe565b98975050505050505050565b60006101608d83528c602084015280604084015262001c6a8184018d62001abe565b838103606085015262001c7e818d62001a79565b915050828103608084015262001c95818b62001abe565b83810360a085015262001ca9818b62001a79565b6001600160a01b038a1660c086015284810360e0860152915062001cd09050818862001aef565b61010084019690965250506101208101929092526101409091015298975050505050505050565b60006101008a835289602084015280604084015262001d198184018a62001abe565b838103606085015262001d2d818a62001a79565b915050828103608084015262001d44818862001abe565b60a084019690965250506001600160a01b039290921660c083015260e09091015295945050505050565b60008582528460208301526080604083015262001d8f608083018562001aef565b905082606083015295945050505050565b93845260ff9290921660208401526040830152606082015260800190565b60006020825262000e12602083018462001aef565b600060a0825262001de860a083018862001aef565b828103602084015262001dfc818862001aef565b838103604085015262001e10818862001aef565b60ff969096166060850152505050608001529392505050565b6020808252601690820152754d616c666f726d6564206c697374206f66206665657360501b604082015260600190565b6020808252603f908201527f537570706c6965642063757272656e742076616c696461746f727320616e642060408201527f706f7765727320646f206e6f74206d6174636820636865636b706f696e742e00606082015260800190565b60208082526036908201527f4e6577206261746368206e6f6e6365206d7573742062652067726561746572206040820152757468616e207468652063757272656e74206e6f6e636560501b606082015260800190565b6020808252601f908201527f4d616c666f726d6564206261746368206f66207472616e73616374696f6e7300604082015260600190565b6020808252603d908201527f4e657720696e76616c69646174696f6e206e6f6e6365206d757374206265206760408201527f726561746572207468616e207468652063757272656e74206e6f6e6365000000606082015260800190565b6020808252601b908201527f536166654d6174683a206164646974696f6e206f766572666c6f770000000000604082015260600190565b602080825260099082015268151a5b5959081bdd5d60ba1b604082015260600190565b60208082526023908201527f56616c696461746f72207369676e617475726520646f6573206e6f74206d617460408201526231b41760e91b606082015260800190565b6020808252603b908201527f42617463682074696d656f7574206d757374206265206772656174657220746860408201527f616e207468652063757272656e7420626c6f636b206865696768740000000000606082015260800190565b60208082526021908201527f4d616c666f726d6564206c697374206f6620746f6b656e207472616e736665726040820152607360f81b606082015260800190565b6020808252601b908201527f4d616c666f726d6564206e65772076616c696461746f72207365740000000000604082015260600190565b6020808252603c908201527f5375626d69747465642076616c696461746f7220736574207369676e6174757260408201527f657320646f206e6f74206861766520656e6f75676820706f7765722e00000000606082015260800190565b60208082526037908201527f4e65772076616c736574206e6f6e6365206d757374206265206772656174657260408201527f207468616e207468652063757272656e74206e6f6e6365000000000000000000606082015260800190565b6020808252601d908201527f416464726573733a2063616c6c20746f206e6f6e2d636f6e7472616374000000604082015260600190565b6020808252602a908201527f5361666545524332303a204552433230206f7065726174696f6e20646964206e6040820152691bdd081cdd58d8d9595960b21b606082015260800190565b6020808252601f908201527f4d616c666f726d65642063757272656e742076616c696461746f722073657400604082015260600190565b6020808252601f908201527f5265656e7472616e637947756172643a207265656e7472616e742063616c6c00604082015260600190565b600084825260606020830152620022d6606083018562001a79565b8281036040840152620022ea818562001abe565b9695505050505050565b918252602082015260400190565b6040518181016001600160401b03811182821017156200232157600080fd5b604052919050565b60006001600160401b038211156200233f578081fd5b5060209081020190565b60005b83811015620023665781810151838201526020016200234c565b8381111562000e67575050600091015256fe60806040526000196006553480156200001757600080fd5b5060405162000e7c38038062000e7c833981810160405260808110156200003d57600080fd5b8151602083018051604051929492938301929190846401000000008211156200006557600080fd5b9083019060208201858111156200007b57600080fd5b82516401000000008111828201881017156200009657600080fd5b82525081516020918201929091019080838360005b83811015620000c5578181015183820152602001620000ab565b50505050905090810190601f168015620000f35780820380516001836020036101000a031916815260200191505b50604052602001805160405193929190846401000000008211156200011757600080fd5b9083019060208201858111156200012d57600080fd5b82516401000000008111828201881017156200014857600080fd5b82525081516020918201929091019080838360005b83811015620001775781810151838201526020016200015d565b50505050905090810190601f168015620001a55780820380516001836020036101000a031916815260200191505b5060405260209081015185519093508592508491620001ca91600391850190620003b7565b508051620001e0906004906020840190620003b7565b50506005805460ff191660121790555062000204816001600160e01b036200022216565b62000218846006546200023860201b60201c565b505050506200045c565b6005805460ff191660ff92909216919091179055565b6001600160a01b03821662000294576040805162461bcd60e51b815260206004820152601f60248201527f45524332303a206d696e7420746f20746865207a65726f206164647265737300604482015290519081900360640190fd5b620002ab600083836001600160e01b036200035016565b620002c7816002546200035560201b620008731790919060201c565b6002556001600160a01b03821660009081526020818152604090912054620002fa9183906200087362000355821b17901c565b6001600160a01b0383166000818152602081815260408083209490945583518581529351929391927fddf252ad1be2c89b69c2b068fc378daa952ba7f163c4a11628f55a4df523b3ef9281900390910190a35050565b505050565b600082820183811015620003b0576040805162461bcd60e51b815260206004820152601b60248201527f536166654d6174683a206164646974696f6e206f766572666c6f770000000000604482015290519081900360640190fd5b9392505050565b828054600181600116156101000203166002900490600052602060002090601f016020900481019282601f10620003fa57805160ff19168380011785556200042a565b828001600101855582156200042a579182015b828111156200042a5782518255916020019190600101906200040d565b50620004389291506200043c565b5090565b6200045991905b8082111562000438576000815560010162000443565b90565b610a10806200046c6000396000f3fe608060405234801561001057600080fd5b50600436106100a95760003560e01c8063395093511161007157806339509351146101d957806370a082311461020557806395d89b411461022b578063a457c2d714610233578063a9059cbb1461025f578063dd62ed3e1461028b576100a9565b806306fdde03146100ae578063095ea7b31461012b57806318160ddd1461016b57806323b872dd14610185578063313ce567146101bb575b600080fd5b6100b66102b9565b6040805160208082528351818301528351919283929083019185019080838360005b838110156100f05781810151838201526020016100d8565b50505050905090810190601f16801561011d5780820380516001836020036101000a031916815260200191505b509250505060405180910390f35b6101576004803603604081101561014157600080fd5b506001600160a01b03813516906020013561034f565b604080519115158252519081900360200190f35b61017361036c565b60408051918252519081900360200190f35b6101576004803603606081101561019b57600080fd5b506001600160a01b03813581169160208101359091169060400135610372565b6101c36103ff565b6040805160ff9092168252519081900360200190f35b610157600480360360408110156101ef57600080fd5b506001600160a01b038135169060200135610408565b6101736004803603602081101561021b57600080fd5b50356001600160a01b031661045c565b6100b6610477565b6101576004803603604081101561024957600080fd5b506001600160a01b0381351690602001356104d8565b6101576004803603604081101561027557600080fd5b506001600160a01b038135169060200135610546565b610173600480360360408110156102a157600080fd5b506001600160a01b038135811691602001351661055a565b60038054604080516020601f60026000196101006001881615020190951694909404938401819004810282018101909252828152606093909290918301828280156103455780601f1061031a57610100808354040283529160200191610345565b820191906000526020600020905b81548152906001019060200180831161032857829003601f168201915b5050505050905090565b600061036361035c610585565b8484610589565b50600192915050565b60025490565b600061037f848484610675565b6103f58461038b610585565b6103f085604051806060016040528060288152602001610945602891396001600160a01b038a166000908152600160205260408120906103c9610585565b6001600160a01b03168152602081019190915260400160002054919063ffffffff6107dc16565b610589565b5060019392505050565b60055460ff1690565b6000610363610415610585565b846103f08560016000610426610585565b6001600160a01b03908116825260208083019390935260409182016000908120918c16815292529020549063ffffffff61087316565b6001600160a01b031660009081526020819052604090205490565b60048054604080516020601f60026000196101006001881615020190951694909404938401819004810282018101909252828152606093909290918301828280156103455780601f1061031a57610100808354040283529160200191610345565b60006103636104e5610585565b846103f0856040518060600160405280602581526020016109b6602591396001600061050f610585565b6001600160a01b03908116825260208083019390935260409182016000908120918d1681529252902054919063ffffffff6107dc16565b6000610363610553610585565b8484610675565b6001600160a01b03918216600090815260016020908152604080832093909416825291909152205490565b3390565b6001600160a01b0383166105ce5760405162461bcd60e51b81526004018080602001828103825260248152602001806109926024913960400191505060405180910390fd5b6001600160a01b0382166106135760405162461bcd60e51b81526004018080602001828103825260228152602001806108fd6022913960400191505060405180910390fd5b6001600160a01b03808416600081815260016020908152604080832094871680845294825291829020859055815185815291517f8c5be1e5ebec7d5bd14f71427d1e84f3dd0314c0f7b2291e5b200ac8c7c3b9259281900390910190a3505050565b6001600160a01b0383166106ba5760405162461bcd60e51b815260040180806020018281038252602581526020018061096d6025913960400191505060405180910390fd5b6001600160a01b0382166106ff5760405162461bcd60e51b81526004018080602001828103825260238152602001806108da6023913960400191505060405180910390fd5b61070a8383836108d4565b61074d8160405180606001604052806026815260200161091f602691396001600160a01b038616600090815260208190526040902054919063ffffffff6107dc16565b6001600160a01b038085166000908152602081905260408082209390935590841681522054610782908263ffffffff61087316565b6001600160a01b038084166000818152602081815260409182902094909455805185815290519193928716927fddf252ad1be2c89b69c2b068fc378daa952ba7f163c4a11628f55a4df523b3ef92918290030190a3505050565b6000818484111561086b5760405162461bcd60e51b81526004018080602001828103825283818151815260200191508051906020019080838360005b83811015610830578181015183820152602001610818565b50505050905090810190601f16801561085d5780820380516001836020036101000a031916815260200191505b509250505060405180910390fd5b505050900390565b6000828201838110156108cd576040805162461bcd60e51b815260206004820152601b60248201527f536166654d6174683a206164646974696f6e206f766572666c6f770000000000604482015290519081900360640190fd5b9392505050565b50505056fe45524332303a207472616e7366657220746f20746865207a65726f206164647265737345524332303a20617070726f766520746f20746865207a65726f206164647265737345524332303a207472616e7366657220616d6f756e7420657863656564732062616c616e636545524332303a207472616e7366657220616d6f756e74206578636565647320616c6c6f77616e636545524332303a207472616e736665722066726f6d20746865207a65726f206164647265737345524332303a20617070726f76652066726f6d20746865207a65726f206164647265737345524332303a2064656372656173656420616c6c6f77616e63652062656c6f77207a65726fa2646970667358221220056189446ba73dd465b19ce8706c466a05134d28bd3efb2777ac79423b2a6b2264736f6c63430006060033a26469706673582212202c9ba3657792a1e8034124e9f8d3547bed20892d4d185128a6ffa0e0e1d821d664736f6c63430006060033",
          "opcodes": "PUSH1 0x80 PUSH1 0x40 MSTORE PUSH1 0x0 PUSH1 0x4 SSTORE PUSH1 0x1 PUSH1 0x5 SSTORE CALLVALUE DUP1 ISZERO PUSH3 0x1B JUMPI PUSH1 0x0 DUP1 REVERT JUMPDEST POP PUSH1 0x40 MLOAD PUSH3 0x3722 CODESIZE SUB DUP1 PUSH3 0x3722 DUP4 CODECOPY DUP2 ADD PUSH1 0x40 DUP2 SWAP1 MSTORE PUSH3 0x3E SWAP2 PUSH3 0x233 JUMP JUMPDEST PUSH1 0x1 PUSH1 0x0 SSTORE DUP1 MLOAD DUP3 MLOAD EQ PUSH3 0x70 JUMPI PUSH1 0x40 MLOAD PUSH3 0x461BCD PUSH1 0xE5 SHL DUP2 MSTORE PUSH1 0x4 ADD PUSH3 0x67 SWAP1 PUSH3 0x431 JUMP JUMPDEST PUSH1 0x40 MLOAD DUP1 SWAP2 SUB SWAP1 REVERT JUMPDEST PUSH1 0x0 DUP1 JUMPDEST DUP3 MLOAD DUP2 LT ISZERO PUSH3 0xAF JUMPI DUP3 DUP2 DUP2 MLOAD DUP2 LT PUSH3 0x8B JUMPI INVALID JUMPDEST PUSH1 0x20 MUL PUSH1 0x20 ADD ADD MLOAD DUP3 ADD SWAP2 POP DUP5 DUP3 GT ISZERO PUSH3 0xA6 JUMPI PUSH3 0xAF JUMP JUMPDEST PUSH1 0x1 ADD PUSH3 0x74 JUMP JUMPDEST POP DUP4 DUP2 GT PUSH3 0xD2 JUMPI PUSH1 0x40 MLOAD PUSH3 0x461BCD PUSH1 0xE5 SHL DUP2 MSTORE PUSH1 0x4 ADD PUSH3 0x67 SWAP1 PUSH3 0x3D4 JUMP JUMPDEST PUSH1 0x0 PUSH3 0xEB DUP5 DUP5 DUP4 DUP10 PUSH1 0x1 PUSH1 0x1 PUSH1 0xE0 SHL SUB PUSH3 0x14D AND JUMP JUMPDEST PUSH1 0x6 DUP8 SWAP1 SSTORE PUSH1 0x7 DUP7 SWAP1 SSTORE PUSH1 0x1 DUP2 SWAP1 SSTORE PUSH1 0x4 SLOAD PUSH1 0x5 SLOAD PUSH1 0x40 MLOAD SWAP3 SWAP4 POP SWAP1 SWAP2 PUSH32 0xB119F1F36224601586B5037DA909ECF37E83864DDDEA5D32AD4E32AC1D97E62B SWAP2 PUSH3 0x139 SWAP2 DUP9 SWAP1 DUP9 SWAP1 PUSH3 0x468 JUMP JUMPDEST PUSH1 0x40 MLOAD DUP1 SWAP2 SUB SWAP1 LOG2 POP POP POP POP POP POP PUSH3 0x4E8 JUMP JUMPDEST PUSH1 0x40 MLOAD PUSH1 0x0 SWAP1 PUSH10 0x18DA1958DADC1BDA5B9D PUSH1 0xB2 SHL SWAP1 DUP3 SWAP1 PUSH3 0x17C SWAP1 DUP6 SWAP1 DUP5 SWAP1 DUP9 SWAP1 DUP12 SWAP1 DUP12 SWAP1 PUSH1 0x20 ADD PUSH3 0x38D JUMP JUMPDEST PUSH1 0x40 DUP1 MLOAD DUP1 DUP4 SUB PUSH1 0x1F NOT ADD DUP2 MSTORE SWAP2 SWAP1 MSTORE DUP1 MLOAD PUSH1 0x20 SWAP1 SWAP2 ADD KECCAK256 SWAP8 SWAP7 POP POP POP POP POP POP POP JUMP JUMPDEST DUP1 MLOAD PUSH1 0x1 PUSH1 0x1 PUSH1 0xA0 SHL SUB DUP2 AND DUP2 EQ PUSH3 0x1B7 JUMPI PUSH1 0x0 DUP1 REVERT JUMPDEST SWAP3 SWAP2 POP POP JUMP JUMPDEST PUSH1 0x0 DUP3 PUSH1 0x1F DUP4 ADD SLT PUSH3 0x1CE JUMPI DUP1 DUP2 REVERT JUMPDEST DUP2 MLOAD PUSH3 0x1E5 PUSH3 0x1DF DUP3 PUSH3 0x4C8 JUMP JUMPDEST PUSH3 0x4A1 JUMP JUMPDEST DUP2 DUP2 MSTORE SWAP2 POP PUSH1 0x20 DUP1 DUP4 ADD SWAP1 DUP5 DUP2 ADD DUP2 DUP5 MUL DUP7 ADD DUP3 ADD DUP8 LT ISZERO PUSH3 0x207 JUMPI PUSH1 0x0 DUP1 REVERT JUMPDEST PUSH1 0x0 JUMPDEST DUP5 DUP2 LT ISZERO PUSH3 0x228 JUMPI DUP2 MLOAD DUP5 MSTORE SWAP3 DUP3 ADD SWAP3 SWAP1 DUP3 ADD SWAP1 PUSH1 0x1 ADD PUSH3 0x20A JUMP JUMPDEST POP POP POP POP POP SWAP3 SWAP2 POP POP JUMP JUMPDEST PUSH1 0x0 DUP1 PUSH1 0x0 DUP1 PUSH1 0x80 DUP6 DUP8 SUB SLT ISZERO PUSH3 0x249 JUMPI DUP4 DUP5 REVERT JUMPDEST DUP5 MLOAD PUSH1 0x20 DUP1 DUP8 ADD MLOAD PUSH1 0x40 DUP9 ADD MLOAD SWAP3 SWAP7 POP SWAP5 POP SWAP1 PUSH1 0x1 PUSH1 0x1 PUSH1 0x40 SHL SUB DUP1 DUP3 GT ISZERO PUSH3 0x271 JUMPI DUP5 DUP6 REVERT JUMPDEST DUP2 DUP9 ADD DUP10 PUSH1 0x1F DUP3 ADD SLT PUSH3 0x283 JUMPI DUP6 DUP7 REVERT JUMPDEST DUP1 MLOAD SWAP3 POP PUSH3 0x296 PUSH3 0x1DF DUP5 PUSH3 0x4C8 JUMP JUMPDEST DUP4 DUP2 MSTORE DUP5 DUP2 ADD SWAP1 DUP3 DUP7 ADD DUP7 DUP7 MUL DUP5 ADD DUP8 ADD DUP14 LT ISZERO PUSH3 0x2B3 JUMPI DUP9 DUP10 REVERT JUMPDEST DUP9 SWAP4 POP JUMPDEST DUP6 DUP5 LT ISZERO PUSH3 0x2E1 JUMPI PUSH3 0x2CC DUP14 DUP3 PUSH3 0x19F JUMP JUMPDEST DUP4 MSTORE PUSH1 0x1 SWAP4 SWAP1 SWAP4 ADD SWAP3 SWAP2 DUP7 ADD SWAP2 DUP7 ADD PUSH3 0x2B7 JUMP JUMPDEST POP PUSH1 0x60 DUP12 ADD MLOAD SWAP1 SWAP8 POP SWAP5 POP POP POP DUP1 DUP4 GT ISZERO PUSH3 0x2FB JUMPI DUP4 DUP5 REVERT JUMPDEST POP POP PUSH3 0x30B DUP8 DUP3 DUP9 ADD PUSH3 0x1BD JUMP JUMPDEST SWAP2 POP POP SWAP3 SWAP6 SWAP2 SWAP5 POP SWAP3 POP JUMP JUMPDEST PUSH1 0x0 DUP2 MLOAD DUP1 DUP5 MSTORE PUSH1 0x20 DUP1 DUP6 ADD SWAP5 POP DUP1 DUP5 ADD DUP4 JUMPDEST DUP4 DUP2 LT ISZERO PUSH3 0x351 JUMPI DUP2 MLOAD PUSH1 0x1 PUSH1 0x1 PUSH1 0xA0 SHL SUB AND DUP8 MSTORE SWAP6 DUP3 ADD SWAP6 SWAP1 DUP3 ADD SWAP1 PUSH1 0x1 ADD PUSH3 0x32A JUMP JUMPDEST POP SWAP5 SWAP6 SWAP5 POP POP POP POP POP JUMP JUMPDEST PUSH1 0x0 DUP2 MLOAD DUP1 DUP5 MSTORE PUSH1 0x20 DUP1 DUP6 ADD SWAP5 POP DUP1 DUP5 ADD DUP4 JUMPDEST DUP4 DUP2 LT ISZERO PUSH3 0x351 JUMPI DUP2 MLOAD DUP8 MSTORE SWAP6 DUP3 ADD SWAP6 SWAP1 DUP3 ADD SWAP1 PUSH1 0x1 ADD PUSH3 0x36F JUMP JUMPDEST PUSH1 0x0 DUP7 DUP3 MSTORE DUP6 PUSH1 0x20 DUP4 ADD MSTORE DUP5 PUSH1 0x40 DUP4 ADD MSTORE PUSH1 0xA0 PUSH1 0x60 DUP4 ADD MSTORE PUSH3 0x3B4 PUSH1 0xA0 DUP4 ADD DUP6 PUSH3 0x317 JUMP JUMPDEST DUP3 DUP2 SUB PUSH1 0x80 DUP5 ADD MSTORE PUSH3 0x3C8 DUP2 DUP6 PUSH3 0x35C JUMP JUMPDEST SWAP9 SWAP8 POP POP POP POP POP POP POP POP JUMP JUMPDEST PUSH1 0x20 DUP1 DUP3 MSTORE PUSH1 0x3C SWAP1 DUP3 ADD MSTORE PUSH32 0x5375626D69747465642076616C696461746F7220736574207369676E61747572 PUSH1 0x40 DUP3 ADD MSTORE PUSH32 0x657320646F206E6F74206861766520656E6F75676820706F7765722E00000000 PUSH1 0x60 DUP3 ADD MSTORE PUSH1 0x80 ADD SWAP1 JUMP JUMPDEST PUSH1 0x20 DUP1 DUP3 MSTORE PUSH1 0x1F SWAP1 DUP3 ADD MSTORE PUSH32 0x4D616C666F726D65642063757272656E742076616C696461746F722073657400 PUSH1 0x40 DUP3 ADD MSTORE PUSH1 0x60 ADD SWAP1 JUMP JUMPDEST PUSH1 0x0 DUP5 DUP3 MSTORE PUSH1 0x60 PUSH1 0x20 DUP4 ADD MSTORE PUSH3 0x483 PUSH1 0x60 DUP4 ADD DUP6 PUSH3 0x317 JUMP JUMPDEST DUP3 DUP2 SUB PUSH1 0x40 DUP5 ADD MSTORE PUSH3 0x497 DUP2 DUP6 PUSH3 0x35C JUMP JUMPDEST SWAP7 SWAP6 POP POP POP POP POP POP JUMP JUMPDEST PUSH1 0x40 MLOAD DUP2 DUP2 ADD PUSH1 0x1 PUSH1 0x1 PUSH1 0x40 SHL SUB DUP2 GT DUP3 DUP3 LT OR ISZERO PUSH3 0x4C0 JUMPI PUSH1 0x0 DUP1 REVERT JUMPDEST PUSH1 0x40 MSTORE SWAP2 SWAP1 POP JUMP JUMPDEST PUSH1 0x0 PUSH1 0x1 PUSH1 0x1 PUSH1 0x40 SHL SUB DUP3 GT ISZERO PUSH3 0x4DE JUMPI DUP1 DUP2 REVERT JUMPDEST POP PUSH1 0x20 SWAP1 DUP2 MUL ADD SWAP1 JUMP JUMPDEST PUSH2 0x322A DUP1 PUSH3 0x4F8 PUSH1 0x0 CODECOPY PUSH1 0x0 RETURN INVALID PUSH1 0x80 PUSH1 0x40 MSTORE CALLVALUE DUP1 ISZERO PUSH3 0x11 JUMPI PUSH1 0x0 DUP1 REVERT JUMPDEST POP PUSH1 0x4 CALLDATASIZE LT PUSH3 0x118 JUMPI PUSH1 0x0 CALLDATALOAD PUSH1 0xE0 SHR DUP1 PUSH4 0xC227C30B GT PUSH3 0xA5 JUMPI DUP1 PUSH4 0xE3CB9F62 GT PUSH3 0x6F JUMPI DUP1 PUSH4 0xE3CB9F62 EQ PUSH3 0x224 JUMPI DUP1 PUSH4 0xE5A2B5D2 EQ PUSH3 0x23B JUMPI DUP1 PUSH4 0xF2B53307 EQ PUSH3 0x245 JUMPI DUP1 PUSH4 0xF7955637 EQ PUSH3 0x24F JUMPI PUSH3 0x118 JUMP JUMPDEST DUP1 PUSH4 0xC227C30B EQ PUSH3 0x1C8 JUMPI DUP1 PUSH4 0xC9D194D5 EQ PUSH3 0x1DF JUMPI DUP1 PUSH4 0xDB7C4E57 EQ PUSH3 0x1F6 JUMPI DUP1 PUSH4 0xDF97174B EQ PUSH3 0x20D JUMPI PUSH3 0x118 JUMP JUMPDEST DUP1 PUSH4 0x7DFB6F86 GT PUSH3 0xE7 JUMPI DUP1 PUSH4 0x7DFB6F86 EQ PUSH3 0x186 JUMPI DUP1 PUSH4 0x83B435DB EQ PUSH3 0x19D JUMPI DUP1 PUSH4 0xB56561FE EQ PUSH3 0x1B4 JUMPI DUP1 PUSH4 0xBDDA81D4 EQ PUSH3 0x1BE JUMPI PUSH3 0x118 JUMP JUMPDEST DUP1 PUSH4 0x11B2174 EQ PUSH3 0x11D JUMPI DUP1 PUSH4 0xC246C82 EQ PUSH3 0x14C JUMPI DUP1 PUSH4 0x1FFBE7F9 EQ PUSH3 0x165 JUMPI DUP1 PUSH4 0x73B20547 EQ PUSH3 0x17C JUMPI JUMPDEST PUSH1 0x0 DUP1 REVERT JUMPDEST PUSH3 0x134 PUSH3 0x12E CALLDATASIZE PUSH1 0x4 PUSH3 0x13DA JUMP JUMPDEST PUSH3 0x266 JUMP JUMPDEST PUSH1 0x40 MLOAD PUSH3 0x143 SWAP2 SWAP1 PUSH3 0x1BF8 JUMP JUMPDEST PUSH1 0x40 MLOAD DUP1 SWAP2 SUB SWAP1 RETURN JUMPDEST PUSH3 0x163 PUSH3 0x15D CALLDATASIZE PUSH1 0x4 PUSH3 0x181B JUMP JUMPDEST PUSH3 0x281 JUMP JUMPDEST STOP JUMPDEST PUSH3 0x163 PUSH3 0x176 CALLDATASIZE PUSH1 0x4 PUSH3 0x13F8 JUMP JUMPDEST PUSH3 0x5CE JUMP JUMPDEST PUSH3 0x134 PUSH3 0x684 JUMP JUMPDEST PUSH3 0x134 PUSH3 0x197 CALLDATASIZE PUSH1 0x4 PUSH3 0x19BF JUMP JUMPDEST PUSH3 0x68A JUMP JUMPDEST PUSH3 0x163 PUSH3 0x1AE CALLDATASIZE PUSH1 0x4 PUSH3 0x1663 JUMP JUMPDEST PUSH3 0x69C JUMP JUMPDEST PUSH3 0x134 PUSH3 0x968 JUMP JUMPDEST PUSH3 0x134 PUSH3 0x96E JUMP JUMPDEST PUSH3 0x163 PUSH3 0x1D9 CALLDATASIZE PUSH1 0x4 PUSH3 0x1926 JUMP JUMPDEST PUSH3 0x974 JUMP JUMPDEST PUSH3 0x134 PUSH3 0x1F0 CALLDATASIZE PUSH1 0x4 PUSH3 0x19BF JUMP JUMPDEST PUSH3 0x989 JUMP JUMPDEST PUSH3 0x163 PUSH3 0x207 CALLDATASIZE PUSH1 0x4 PUSH3 0x1439 JUMP JUMPDEST PUSH3 0x99B JUMP JUMPDEST PUSH3 0x134 PUSH3 0x21E CALLDATASIZE PUSH1 0x4 PUSH3 0x13DA JUMP JUMPDEST PUSH3 0x9B5 JUMP JUMPDEST PUSH3 0x163 PUSH3 0x235 CALLDATASIZE PUSH1 0x4 PUSH3 0x1527 JUMP JUMPDEST PUSH3 0x9C7 JUMP JUMPDEST PUSH3 0x134 PUSH3 0xB53 JUMP JUMPDEST PUSH3 0x134 PUSH3 0xB59 JUMP JUMPDEST PUSH3 0x163 PUSH3 0x260 CALLDATASIZE PUSH1 0x4 PUSH3 0x19D8 JUMP JUMPDEST PUSH3 0xB5F JUMP JUMPDEST PUSH1 0x1 PUSH1 0x1 PUSH1 0xA0 SHL SUB AND PUSH1 0x0 SWAP1 DUP2 MSTORE PUSH1 0x2 PUSH1 0x20 MSTORE PUSH1 0x40 SWAP1 KECCAK256 SLOAD SWAP1 JUMP JUMPDEST PUSH1 0x2 PUSH1 0x0 SLOAD EQ ISZERO PUSH3 0x2B0 JUMPI PUSH1 0x40 MLOAD PUSH3 0x461BCD PUSH1 0xE5 SHL DUP2 MSTORE PUSH1 0x4 ADD PUSH3 0x2A7 SWAP1 PUSH3 0x2284 JUMP JUMPDEST PUSH1 0x40 MLOAD DUP1 SWAP2 SUB SWAP1 REVERT JUMPDEST PUSH1 0x2 PUSH1 0x0 SSTORE PUSH1 0xC0 DUP2 ADD MLOAD NUMBER LT PUSH3 0x2DB JUMPI PUSH1 0x40 MLOAD PUSH3 0x461BCD PUSH1 0xE5 SHL DUP2 MSTORE PUSH1 0x4 ADD PUSH3 0x2A7 SWAP1 PUSH3 0x1FD7 JUMP JUMPDEST PUSH2 0x100 DUP2 ADD MLOAD PUSH1 0xE0 DUP3 ADD MLOAD PUSH1 0x0 SWAP1 DUP2 MSTORE PUSH1 0x3 PUSH1 0x20 MSTORE PUSH1 0x40 SWAP1 KECCAK256 SLOAD LT PUSH3 0x315 JUMPI PUSH1 0x40 MLOAD PUSH3 0x461BCD PUSH1 0xE5 SHL DUP2 MSTORE PUSH1 0x4 ADD PUSH3 0x2A7 SWAP1 PUSH3 0x1F43 JUMP JUMPDEST DUP6 MLOAD DUP8 MLOAD EQ DUP1 ISZERO PUSH3 0x328 JUMPI POP DUP4 MLOAD DUP8 MLOAD EQ JUMPDEST DUP1 ISZERO PUSH3 0x336 JUMPI POP DUP3 MLOAD DUP8 MLOAD EQ JUMPDEST DUP1 ISZERO PUSH3 0x344 JUMPI POP DUP2 MLOAD DUP8 MLOAD EQ JUMPDEST PUSH3 0x363 JUMPI PUSH1 0x40 MLOAD PUSH3 0x461BCD PUSH1 0xE5 SHL DUP2 MSTORE PUSH1 0x4 ADD PUSH3 0x2A7 SWAP1 PUSH3 0x224D JUMP JUMPDEST PUSH1 0x1 SLOAD PUSH3 0x376 DUP9 DUP9 DUP9 PUSH1 0x6 SLOAD PUSH3 0xC11 JUMP JUMPDEST EQ PUSH3 0x396 JUMPI PUSH1 0x40 MLOAD PUSH3 0x461BCD PUSH1 0xE5 SHL DUP2 MSTORE PUSH1 0x4 ADD PUSH3 0x2A7 SWAP1 PUSH3 0x1E59 JUMP JUMPDEST PUSH1 0x20 DUP2 ADD MLOAD MLOAD DUP2 MLOAD MLOAD EQ PUSH3 0x3BF JUMPI PUSH1 0x40 MLOAD PUSH3 0x461BCD PUSH1 0xE5 SHL DUP2 MSTORE PUSH1 0x4 ADD PUSH3 0x2A7 SWAP1 PUSH3 0x209A JUMP JUMPDEST DUP1 PUSH1 0x60 ADD MLOAD MLOAD DUP2 PUSH1 0x40 ADD MLOAD MLOAD EQ PUSH3 0x3EB JUMPI PUSH1 0x40 MLOAD PUSH3 0x461BCD PUSH1 0xE5 SHL DUP2 MSTORE PUSH1 0x4 ADD PUSH3 0x2A7 SWAP1 PUSH3 0x1E29 JUMP JUMPDEST PUSH1 0x0 PUSH1 0x6 SLOAD PUSH9 0x1B1BD9DA58D0D85B1B PUSH1 0xBA SHL DUP4 PUSH1 0x0 ADD MLOAD DUP5 PUSH1 0x20 ADD MLOAD DUP6 PUSH1 0x40 ADD MLOAD DUP7 PUSH1 0x60 ADD MLOAD DUP8 PUSH1 0x80 ADD MLOAD DUP9 PUSH1 0xA0 ADD MLOAD DUP10 PUSH1 0xC0 ADD MLOAD DUP11 PUSH1 0xE0 ADD MLOAD DUP12 PUSH2 0x100 ADD MLOAD PUSH1 0x40 MLOAD PUSH1 0x20 ADD PUSH3 0x447 SWAP12 SWAP11 SWAP10 SWAP9 SWAP8 SWAP7 SWAP6 SWAP5 SWAP4 SWAP3 SWAP2 SWAP1 PUSH3 0x1C48 JUMP JUMPDEST PUSH1 0x40 MLOAD PUSH1 0x20 DUP2 DUP4 SUB SUB DUP2 MSTORE SWAP1 PUSH1 0x40 MSTORE DUP1 MLOAD SWAP1 PUSH1 0x20 ADD KECCAK256 SWAP1 POP PUSH3 0x472 DUP9 DUP9 DUP8 DUP8 DUP8 DUP7 PUSH1 0x7 SLOAD PUSH3 0xC65 JUMP JUMPDEST PUSH2 0x100 DUP3 ADD MLOAD PUSH1 0xE0 DUP4 ADD MLOAD PUSH1 0x0 SWAP1 DUP2 MSTORE PUSH1 0x3 PUSH1 0x20 MSTORE PUSH1 0x40 DUP2 KECCAK256 SWAP2 SWAP1 SWAP2 SSTORE JUMPDEST DUP3 MLOAD MLOAD DUP2 LT ISZERO PUSH3 0x4F8 JUMPI PUSH3 0x4EF DUP4 PUSH1 0x80 ADD MLOAD DUP5 PUSH1 0x0 ADD MLOAD DUP4 DUP2 MLOAD DUP2 LT PUSH3 0x4B5 JUMPI INVALID JUMPDEST PUSH1 0x20 MUL PUSH1 0x20 ADD ADD MLOAD DUP6 PUSH1 0x20 ADD MLOAD DUP5 DUP2 MLOAD DUP2 LT PUSH3 0x4CE JUMPI INVALID JUMPDEST PUSH1 0x20 MUL PUSH1 0x20 ADD ADD MLOAD PUSH1 0x1 PUSH1 0x1 PUSH1 0xA0 SHL SUB AND PUSH3 0xD6F SWAP1 SWAP3 SWAP2 SWAP1 PUSH4 0xFFFFFFFF AND JUMP JUMPDEST PUSH1 0x1 ADD PUSH3 0x490 JUMP JUMPDEST POP PUSH1 0x60 PUSH3 0x50F DUP4 PUSH1 0x80 ADD MLOAD DUP5 PUSH1 0xA0 ADD MLOAD PUSH3 0xDCE JUMP JUMPDEST SWAP1 POP PUSH1 0x0 JUMPDEST DUP4 PUSH1 0x40 ADD MLOAD MLOAD DUP2 LT ISZERO PUSH3 0x55A JUMPI PUSH3 0x551 CALLER DUP6 PUSH1 0x40 ADD MLOAD DUP4 DUP2 MLOAD DUP2 LT PUSH3 0x538 JUMPI INVALID JUMPDEST PUSH1 0x20 MUL PUSH1 0x20 ADD ADD MLOAD DUP7 PUSH1 0x60 ADD MLOAD DUP5 DUP2 MLOAD DUP2 LT PUSH3 0x4CE JUMPI INVALID JUMPDEST PUSH1 0x1 ADD PUSH3 0x514 JUMP JUMPDEST POP PUSH1 0x5 SLOAD PUSH3 0x571 SWAP1 PUSH1 0x1 PUSH4 0xFFFFFFFF PUSH3 0xE1B AND JUMP JUMPDEST PUSH1 0x5 DUP2 SWAP1 SSTORE PUSH1 0xE0 DUP5 ADD MLOAD PUSH2 0x100 DUP6 ADD MLOAD PUSH1 0x40 MLOAD PUSH32 0x7C2BB24F8E1B3725CB613D7F11EF97D9745CC97A0E40F730621C052D684077A1 SWAP4 PUSH3 0x5B6 SWAP4 SWAP3 SWAP2 DUP7 SWAP2 SWAP1 PUSH3 0x1D6E JUMP JUMPDEST PUSH1 0x40 MLOAD DUP1 SWAP2 SUB SWAP1 LOG1 POP POP PUSH1 0x1 PUSH1 0x0 SSTORE POP POP POP POP POP POP POP JUMP JUMPDEST PUSH1 0x2 PUSH1 0x0 SLOAD EQ ISZERO PUSH3 0x5F4 JUMPI PUSH1 0x40 MLOAD PUSH3 0x461BCD PUSH1 0xE5 SHL DUP2 MSTORE PUSH1 0x4 ADD PUSH3 0x2A7 SWAP1 PUSH3 0x2284 JUMP JUMPDEST PUSH1 0x2 PUSH1 0x0 SSTORE PUSH3 0x616 PUSH1 0x1 PUSH1 0x1 PUSH1 0xA0 SHL SUB DUP5 AND CALLER ADDRESS DUP5 PUSH4 0xFFFFFFFF PUSH3 0xE43 AND JUMP JUMPDEST PUSH1 0x5 SLOAD PUSH3 0x62C SWAP1 PUSH1 0x1 PUSH4 0xFFFFFFFF PUSH3 0xE1B AND JUMP JUMPDEST PUSH1 0x5 DUP2 SWAP1 SSTORE PUSH1 0x40 MLOAD DUP4 SWAP2 CALLER SWAP2 PUSH1 0x1 PUSH1 0x1 PUSH1 0xA0 SHL SUB DUP8 AND SWAP2 PUSH32 0xD7767894D73C589DAECA9643F445F03D7BE61AAD2950C117E7CBFF4176FCA7E4 SWAP2 PUSH3 0x672 SWAP2 DUP8 SWAP2 PUSH3 0x22F4 JUMP JUMPDEST PUSH1 0x40 MLOAD DUP1 SWAP2 SUB SWAP1 LOG4 POP POP PUSH1 0x1 PUSH1 0x0 SSTORE POP JUMP JUMPDEST PUSH1 0x5 SLOAD DUP2 JUMP JUMPDEST PUSH1 0x3 PUSH1 0x20 MSTORE PUSH1 0x0 SWAP1 DUP2 MSTORE PUSH1 0x40 SWAP1 KECCAK256 SLOAD DUP2 JUMP JUMPDEST PUSH1 0x2 PUSH1 0x0 SLOAD EQ ISZERO PUSH3 0x6C2 JUMPI PUSH1 0x40 MLOAD PUSH3 0x461BCD PUSH1 0xE5 SHL DUP2 MSTORE PUSH1 0x4 ADD PUSH3 0x2A7 SWAP1 PUSH3 0x2284 JUMP JUMPDEST PUSH1 0x2 PUSH1 0x0 DUP2 DUP2 SSTORE PUSH1 0x1 PUSH1 0x1 PUSH1 0xA0 SHL SUB DUP5 AND DUP2 MSTORE PUSH1 0x20 SWAP2 SWAP1 SWAP2 MSTORE PUSH1 0x40 SWAP1 KECCAK256 SLOAD DUP4 GT PUSH3 0x701 JUMPI PUSH1 0x40 MLOAD PUSH3 0x461BCD PUSH1 0xE5 SHL DUP2 MSTORE PUSH1 0x4 ADD PUSH3 0x2A7 SWAP1 PUSH3 0x1EB6 JUMP JUMPDEST DUP1 NUMBER LT PUSH3 0x723 JUMPI PUSH1 0x40 MLOAD PUSH3 0x461BCD PUSH1 0xE5 SHL DUP2 MSTORE PUSH1 0x4 ADD PUSH3 0x2A7 SWAP1 PUSH3 0x203D JUMP JUMPDEST DUP11 MLOAD DUP13 MLOAD EQ DUP1 ISZERO PUSH3 0x736 JUMPI POP DUP9 MLOAD DUP13 MLOAD EQ JUMPDEST DUP1 ISZERO PUSH3 0x744 JUMPI POP DUP8 MLOAD DUP13 MLOAD EQ JUMPDEST DUP1 ISZERO PUSH3 0x752 JUMPI POP DUP7 MLOAD DUP13 MLOAD EQ JUMPDEST PUSH3 0x771 JUMPI PUSH1 0x40 MLOAD PUSH3 0x461BCD PUSH1 0xE5 SHL DUP2 MSTORE PUSH1 0x4 ADD PUSH3 0x2A7 SWAP1 PUSH3 0x224D JUMP JUMPDEST PUSH1 0x1 SLOAD PUSH3 0x784 DUP14 DUP14 DUP14 PUSH1 0x6 SLOAD PUSH3 0xC11 JUMP JUMPDEST EQ PUSH3 0x7A4 JUMPI PUSH1 0x40 MLOAD PUSH3 0x461BCD PUSH1 0xE5 SHL DUP2 MSTORE PUSH1 0x4 ADD PUSH3 0x2A7 SWAP1 PUSH3 0x1E59 JUMP JUMPDEST DUP5 MLOAD DUP7 MLOAD EQ DUP1 ISZERO PUSH3 0x7B7 JUMPI POP DUP4 MLOAD DUP7 MLOAD EQ JUMPDEST PUSH3 0x7D6 JUMPI PUSH1 0x40 MLOAD PUSH3 0x461BCD PUSH1 0xE5 SHL DUP2 MSTORE PUSH1 0x4 ADD PUSH3 0x2A7 SWAP1 PUSH3 0x1F0C JUMP JUMPDEST PUSH3 0x834 DUP13 DUP13 DUP12 DUP12 DUP12 PUSH1 0x6 SLOAD PUSH16 0xE8E4C2DCE6C2C6E8D2DEDC84C2E8C6D PUSH1 0x83 SHL DUP14 DUP14 DUP14 DUP14 DUP14 DUP14 PUSH1 0x40 MLOAD PUSH1 0x20 ADD PUSH3 0x815 SWAP9 SWAP8 SWAP7 SWAP6 SWAP5 SWAP4 SWAP3 SWAP2 SWAP1 PUSH3 0x1CF7 JUMP JUMPDEST PUSH1 0x40 MLOAD PUSH1 0x20 DUP2 DUP4 SUB SUB DUP2 MSTORE SWAP1 PUSH1 0x40 MSTORE DUP1 MLOAD SWAP1 PUSH1 0x20 ADD KECCAK256 PUSH1 0x7 SLOAD PUSH3 0xC65 JUMP JUMPDEST PUSH1 0x1 PUSH1 0x1 PUSH1 0xA0 SHL SUB DUP3 AND PUSH1 0x0 SWAP1 DUP2 MSTORE PUSH1 0x2 PUSH1 0x20 MSTORE PUSH1 0x40 DUP2 KECCAK256 DUP5 SWAP1 SSTORE DUP1 JUMPDEST DUP8 MLOAD DUP2 LT ISZERO PUSH3 0x8D7 JUMPI PUSH3 0x8A3 DUP8 DUP3 DUP2 MLOAD DUP2 LT PUSH3 0x86C JUMPI INVALID JUMPDEST PUSH1 0x20 MUL PUSH1 0x20 ADD ADD MLOAD DUP10 DUP4 DUP2 MLOAD DUP2 LT PUSH3 0x881 JUMPI INVALID JUMPDEST PUSH1 0x20 MUL PUSH1 0x20 ADD ADD MLOAD DUP7 PUSH1 0x1 PUSH1 0x1 PUSH1 0xA0 SHL SUB AND PUSH3 0xD6F SWAP1 SWAP3 SWAP2 SWAP1 PUSH4 0xFFFFFFFF AND JUMP JUMPDEST PUSH3 0x8CC DUP7 DUP3 DUP2 MLOAD DUP2 LT PUSH3 0x8B4 JUMPI INVALID JUMPDEST PUSH1 0x20 MUL PUSH1 0x20 ADD ADD MLOAD DUP4 PUSH3 0xE1B SWAP1 SWAP2 SWAP1 PUSH4 0xFFFFFFFF AND JUMP JUMPDEST SWAP2 POP PUSH1 0x1 ADD PUSH3 0x851 JUMP JUMPDEST POP PUSH3 0x8F4 PUSH1 0x1 PUSH1 0x1 PUSH1 0xA0 SHL SUB DUP5 AND CALLER DUP4 PUSH4 0xFFFFFFFF PUSH3 0xD6F AND JUMP JUMPDEST POP PUSH1 0x5 SLOAD PUSH3 0x90B SWAP1 PUSH1 0x1 PUSH4 0xFFFFFFFF PUSH3 0xE1B AND JUMP JUMPDEST PUSH1 0x5 DUP2 SWAP1 SSTORE PUSH1 0x40 MLOAD PUSH1 0x1 PUSH1 0x1 PUSH1 0xA0 SHL SUB DUP5 AND SWAP2 DUP6 SWAP2 PUSH32 0x2C7E81975F8EDB86E2A0C038B7B86A49C744236ABF0F6177FF5AFC6986AB708 SWAP2 PUSH3 0x94D SWAP2 PUSH3 0x1BF8 JUMP JUMPDEST PUSH1 0x40 MLOAD DUP1 SWAP2 SUB SWAP1 LOG3 POP POP PUSH1 0x1 PUSH1 0x0 SSTORE POP POP POP POP POP POP POP POP POP POP JUMP JUMPDEST PUSH1 0x4 SLOAD DUP2 JUMP JUMPDEST PUSH1 0x6 SLOAD DUP2 JUMP JUMPDEST PUSH3 0x982 DUP5 DUP5 DUP5 DUP5 PUSH3 0xC11 JUMP JUMPDEST POP POP POP POP POP JUMP JUMPDEST PUSH1 0x0 SWAP1 DUP2 MSTORE PUSH1 0x3 PUSH1 0x20 MSTORE PUSH1 0x40 SWAP1 KECCAK256 SLOAD SWAP1 JUMP JUMPDEST PUSH3 0x9AC DUP8 DUP8 DUP8 DUP8 DUP8 DUP8 DUP8 PUSH3 0xC65 JUMP JUMPDEST POP POP POP POP POP POP POP JUMP JUMPDEST PUSH1 0x2 PUSH1 0x20 MSTORE PUSH1 0x0 SWAP1 DUP2 MSTORE PUSH1 0x40 SWAP1 KECCAK256 SLOAD DUP2 JUMP JUMPDEST PUSH1 0x2 PUSH1 0x0 SLOAD EQ ISZERO PUSH3 0x9ED JUMPI PUSH1 0x40 MLOAD PUSH3 0x461BCD PUSH1 0xE5 SHL DUP2 MSTORE PUSH1 0x4 ADD PUSH3 0x2A7 SWAP1 PUSH3 0x2284 JUMP JUMPDEST PUSH1 0x2 PUSH1 0x0 SSTORE DUP4 DUP8 GT PUSH3 0xA14 JUMPI PUSH1 0x40 MLOAD PUSH3 0x461BCD PUSH1 0xE5 SHL DUP2 MSTORE PUSH1 0x4 ADD PUSH3 0x2A7 SWAP1 PUSH3 0x216F JUMP JUMPDEST DUP8 MLOAD DUP10 MLOAD EQ PUSH3 0xA38 JUMPI PUSH1 0x40 MLOAD PUSH3 0x461BCD PUSH1 0xE5 SHL DUP2 MSTORE PUSH1 0x4 ADD PUSH3 0x2A7 SWAP1 PUSH3 0x20DB JUMP JUMPDEST DUP5 MLOAD DUP7 MLOAD EQ DUP1 ISZERO PUSH3 0xA4B JUMPI POP DUP3 MLOAD DUP7 MLOAD EQ JUMPDEST DUP1 ISZERO PUSH3 0xA59 JUMPI POP DUP2 MLOAD DUP7 MLOAD EQ JUMPDEST DUP1 ISZERO PUSH3 0xA67 JUMPI POP DUP1 MLOAD DUP7 MLOAD EQ JUMPDEST PUSH3 0xA86 JUMPI PUSH1 0x40 MLOAD PUSH3 0x461BCD PUSH1 0xE5 SHL DUP2 MSTORE PUSH1 0x4 ADD PUSH3 0x2A7 SWAP1 PUSH3 0x224D JUMP JUMPDEST PUSH1 0x1 SLOAD PUSH3 0xA99 DUP8 DUP8 DUP8 PUSH1 0x6 SLOAD PUSH3 0xC11 JUMP JUMPDEST EQ PUSH3 0xAB9 JUMPI PUSH1 0x40 MLOAD PUSH3 0x461BCD PUSH1 0xE5 SHL DUP2 MSTORE PUSH1 0x4 ADD PUSH3 0x2A7 SWAP1 PUSH3 0x1E59 JUMP JUMPDEST PUSH1 0x0 PUSH3 0xACB DUP11 DUP11 DUP11 PUSH1 0x6 SLOAD PUSH3 0xC11 JUMP JUMPDEST SWAP1 POP PUSH3 0xAE0 DUP8 DUP8 DUP7 DUP7 DUP7 DUP7 PUSH1 0x7 SLOAD PUSH3 0xC65 JUMP JUMPDEST PUSH1 0x1 DUP2 DUP2 SSTORE PUSH1 0x4 DUP10 SWAP1 SSTORE PUSH1 0x5 SLOAD PUSH3 0xAFE SWAP2 PUSH4 0xFFFFFFFF PUSH3 0xE1B AND JUMP JUMPDEST PUSH1 0x5 DUP2 SWAP1 SSTORE PUSH1 0x40 MLOAD DUP10 SWAP2 PUSH32 0xB119F1F36224601586B5037DA909ECF37E83864DDDEA5D32AD4E32AC1D97E62B SWAP2 PUSH3 0xB3A SWAP2 SWAP1 DUP15 SWAP1 DUP15 SWAP1 PUSH3 0x22BB JUMP JUMPDEST PUSH1 0x40 MLOAD DUP1 SWAP2 SUB SWAP1 LOG2 POP POP PUSH1 0x1 PUSH1 0x0 SSTORE POP POP POP POP POP POP POP POP JUMP JUMPDEST PUSH1 0x7 SLOAD DUP2 JUMP JUMPDEST PUSH1 0x1 SLOAD DUP2 JUMP JUMPDEST PUSH1 0x0 ADDRESS DUP5 DUP5 DUP5 PUSH1 0x40 MLOAD PUSH3 0xB73 SWAP1 PUSH3 0x10BB JUMP JUMPDEST PUSH3 0xB82 SWAP5 SWAP4 SWAP3 SWAP2 SWAP1 PUSH3 0x1B90 JUMP JUMPDEST PUSH1 0x40 MLOAD DUP1 SWAP2 SUB SWAP1 PUSH1 0x0 CREATE DUP1 ISZERO DUP1 ISZERO PUSH3 0xB9F JUMPI RETURNDATASIZE PUSH1 0x0 DUP1 RETURNDATACOPY RETURNDATASIZE PUSH1 0x0 REVERT JUMPDEST POP PUSH1 0x5 SLOAD SWAP1 SWAP2 POP PUSH3 0xBB9 SWAP1 PUSH1 0x1 PUSH4 0xFFFFFFFF PUSH3 0xE1B AND JUMP JUMPDEST PUSH1 0x5 DUP2 SWAP1 SSTORE PUSH1 0x40 MLOAD PUSH1 0x1 PUSH1 0x1 PUSH1 0xA0 SHL SUB DUP4 AND SWAP2 PUSH32 0x82FE3A4FA49C6382D0C085746698DDBBAFE6C2BF61285B19410644B5B26287C7 SWAP2 PUSH3 0xC02 SWAP2 DUP10 SWAP2 DUP10 SWAP2 DUP10 SWAP2 DUP10 SWAP2 SWAP1 PUSH3 0x1DD3 JUMP JUMPDEST PUSH1 0x40 MLOAD DUP1 SWAP2 SUB SWAP1 LOG2 POP POP POP POP POP JUMP JUMPDEST PUSH1 0x40 MLOAD PUSH1 0x0 SWAP1 PUSH10 0x18DA1958DADC1BDA5B9D PUSH1 0xB2 SHL SWAP1 DUP3 SWAP1 PUSH3 0xC40 SWAP1 DUP6 SWAP1 DUP5 SWAP1 DUP9 SWAP1 DUP12 SWAP1 DUP12 SWAP1 PUSH1 0x20 ADD PUSH3 0x1C01 JUMP JUMPDEST PUSH1 0x40 DUP1 MLOAD PUSH1 0x1F NOT DUP2 DUP5 SUB ADD DUP2 MSTORE SWAP2 SWAP1 MSTORE DUP1 MLOAD PUSH1 0x20 SWAP1 SWAP2 ADD KECCAK256 SWAP3 POP POP POP JUMPDEST SWAP5 SWAP4 POP POP POP POP JUMP JUMPDEST PUSH1 0x0 DUP1 JUMPDEST DUP9 MLOAD DUP2 LT ISZERO PUSH3 0xD42 JUMPI DUP7 DUP2 DUP2 MLOAD DUP2 LT PUSH3 0xC80 JUMPI INVALID JUMPDEST PUSH1 0x20 MUL PUSH1 0x20 ADD ADD MLOAD PUSH1 0xFF AND PUSH1 0x0 EQ PUSH3 0xD39 JUMPI PUSH3 0xCF2 DUP10 DUP3 DUP2 MLOAD DUP2 LT PUSH3 0xCA4 JUMPI INVALID JUMPDEST PUSH1 0x20 MUL PUSH1 0x20 ADD ADD MLOAD DUP6 DUP10 DUP5 DUP2 MLOAD DUP2 LT PUSH3 0xCBA JUMPI INVALID JUMPDEST PUSH1 0x20 MUL PUSH1 0x20 ADD ADD MLOAD DUP10 DUP6 DUP2 MLOAD DUP2 LT PUSH3 0xCCF JUMPI INVALID JUMPDEST PUSH1 0x20 MUL PUSH1 0x20 ADD ADD MLOAD DUP10 DUP7 DUP2 MLOAD DUP2 LT PUSH3 0xCE4 JUMPI INVALID JUMPDEST PUSH1 0x20 MUL PUSH1 0x20 ADD ADD MLOAD PUSH3 0xE6D JUMP JUMPDEST PUSH3 0xD11 JUMPI PUSH1 0x40 MLOAD PUSH3 0x461BCD PUSH1 0xE5 SHL DUP2 MSTORE PUSH1 0x4 ADD PUSH3 0x2A7 SWAP1 PUSH3 0x1FFA JUMP JUMPDEST DUP8 DUP2 DUP2 MLOAD DUP2 LT PUSH3 0xD1E JUMPI INVALID JUMPDEST PUSH1 0x20 MUL PUSH1 0x20 ADD ADD MLOAD DUP3 ADD SWAP2 POP DUP3 DUP3 GT ISZERO PUSH3 0xD39 JUMPI PUSH3 0xD42 JUMP JUMPDEST PUSH1 0x1 ADD PUSH3 0xC69 JUMP JUMPDEST POP DUP2 DUP2 GT PUSH3 0xD65 JUMPI PUSH1 0x40 MLOAD PUSH3 0x461BCD PUSH1 0xE5 SHL DUP2 MSTORE PUSH1 0x4 ADD PUSH3 0x2A7 SWAP1 PUSH3 0x2112 JUMP JUMPDEST POP POP POP POP POP POP POP POP JUMP JUMPDEST PUSH3 0xDC9 DUP4 PUSH4 0xA9059CBB PUSH1 0xE0 SHL DUP5 DUP5 PUSH1 0x40 MLOAD PUSH1 0x24 ADD PUSH3 0xD91 SWAP3 SWAP2 SWAP1 PUSH3 0x1BDF JUMP JUMPDEST PUSH1 0x40 DUP1 MLOAD PUSH1 0x1F NOT DUP2 DUP5 SUB ADD DUP2 MSTORE SWAP2 SWAP1 MSTORE PUSH1 0x20 DUP2 ADD DUP1 MLOAD PUSH1 0x1 PUSH1 0x1 PUSH1 0xE0 SHL SUB AND PUSH1 0x1 PUSH1 0x1 PUSH1 0xE0 SHL SUB NOT SWAP1 SWAP4 AND SWAP3 SWAP1 SWAP3 OR SWAP1 SWAP2 MSTORE PUSH3 0xF0D JUMP JUMPDEST POP POP POP JUMP JUMPDEST PUSH1 0x60 PUSH3 0xE12 DUP4 DUP4 PUSH1 0x40 MLOAD DUP1 PUSH1 0x40 ADD PUSH1 0x40 MSTORE DUP1 PUSH1 0x1E DUP2 MSTORE PUSH1 0x20 ADD PUSH32 0x416464726573733A206C6F772D6C6576656C2063616C6C206661696C65640000 DUP2 MSTORE POP PUSH3 0xFA4 JUMP JUMPDEST SWAP1 POP JUMPDEST SWAP3 SWAP2 POP POP JUMP JUMPDEST PUSH1 0x0 DUP3 DUP3 ADD DUP4 DUP2 LT ISZERO PUSH3 0xE12 JUMPI PUSH1 0x40 MLOAD PUSH3 0x461BCD PUSH1 0xE5 SHL DUP2 MSTORE PUSH1 0x4 ADD PUSH3 0x2A7 SWAP1 PUSH3 0x1FA0 JUMP JUMPDEST PUSH3 0xE67 DUP5 PUSH4 0x23B872DD PUSH1 0xE0 SHL DUP6 DUP6 DUP6 PUSH1 0x40 MLOAD PUSH1 0x24 ADD PUSH3 0xD91 SWAP4 SWAP3 SWAP2 SWAP1 PUSH3 0x1B6C JUMP JUMPDEST POP POP POP POP JUMP JUMPDEST PUSH1 0x0 DUP1 DUP6 PUSH1 0x40 MLOAD PUSH1 0x20 ADD PUSH3 0xE83 SWAP2 SWAP1 PUSH3 0x1B3B JUMP JUMPDEST PUSH1 0x40 MLOAD PUSH1 0x20 DUP2 DUP4 SUB SUB DUP2 MSTORE SWAP1 PUSH1 0x40 MSTORE DUP1 MLOAD SWAP1 PUSH1 0x20 ADD KECCAK256 SWAP1 POP PUSH1 0x1 DUP2 DUP7 DUP7 DUP7 PUSH1 0x40 MLOAD PUSH1 0x0 DUP2 MSTORE PUSH1 0x20 ADD PUSH1 0x40 MSTORE PUSH1 0x40 MLOAD PUSH3 0xEC0 SWAP5 SWAP4 SWAP3 SWAP2 SWAP1 PUSH3 0x1DA0 JUMP JUMPDEST PUSH1 0x20 PUSH1 0x40 MLOAD PUSH1 0x20 DUP2 SUB SWAP1 DUP1 DUP5 SUB SWAP1 DUP6 GAS STATICCALL ISZERO DUP1 ISZERO PUSH3 0xEE3 JUMPI RETURNDATASIZE PUSH1 0x0 DUP1 RETURNDATACOPY RETURNDATASIZE PUSH1 0x0 REVERT JUMPDEST POP POP POP PUSH1 0x20 PUSH1 0x40 MLOAD SUB MLOAD PUSH1 0x1 PUSH1 0x1 PUSH1 0xA0 SHL SUB AND DUP8 PUSH1 0x1 PUSH1 0x1 PUSH1 0xA0 SHL SUB AND EQ SWAP2 POP POP SWAP6 SWAP5 POP POP POP POP POP JUMP JUMPDEST PUSH1 0x60 PUSH3 0xF64 DUP3 PUSH1 0x40 MLOAD DUP1 PUSH1 0x40 ADD PUSH1 0x40 MSTORE DUP1 PUSH1 0x20 DUP2 MSTORE PUSH1 0x20 ADD PUSH32 0x5361666545524332303A206C6F772D6C6576656C2063616C6C206661696C6564 DUP2 MSTORE POP DUP6 PUSH1 0x1 PUSH1 0x1 PUSH1 0xA0 SHL SUB AND PUSH3 0xFA4 SWAP1 SWAP3 SWAP2 SWAP1 PUSH4 0xFFFFFFFF AND JUMP JUMPDEST DUP1 MLOAD SWAP1 SWAP2 POP ISZERO PUSH3 0xDC9 JUMPI DUP1 DUP1 PUSH1 0x20 ADD SWAP1 MLOAD DUP2 ADD SWAP1 PUSH3 0xF85 SWAP2 SWAP1 PUSH3 0x199D JUMP JUMPDEST PUSH3 0xDC9 JUMPI PUSH1 0x40 MLOAD PUSH3 0x461BCD PUSH1 0xE5 SHL DUP2 MSTORE PUSH1 0x4 ADD PUSH3 0x2A7 SWAP1 PUSH3 0x2203 JUMP JUMPDEST PUSH1 0x60 PUSH3 0xC5D DUP5 DUP5 PUSH1 0x0 DUP6 PUSH1 0x60 PUSH3 0xFBC DUP6 PUSH3 0x1081 JUMP JUMPDEST PUSH3 0xFDB JUMPI PUSH1 0x40 MLOAD PUSH3 0x461BCD PUSH1 0xE5 SHL DUP2 MSTORE PUSH1 0x4 ADD PUSH3 0x2A7 SWAP1 PUSH3 0x21CC JUMP JUMPDEST PUSH1 0x0 PUSH1 0x60 DUP7 PUSH1 0x1 PUSH1 0x1 PUSH1 0xA0 SHL SUB AND DUP6 DUP8 PUSH1 0x40 MLOAD PUSH3 0xFFA SWAP2 SWAP1 PUSH3 0x1B1D JUMP JUMPDEST PUSH1 0x0 PUSH1 0x40 MLOAD DUP1 DUP4 SUB DUP2 DUP6 DUP8 GAS CALL SWAP3 POP POP POP RETURNDATASIZE DUP1 PUSH1 0x0 DUP2 EQ PUSH3 0x1039 JUMPI PUSH1 0x40 MLOAD SWAP2 POP PUSH1 0x1F NOT PUSH1 0x3F RETURNDATASIZE ADD AND DUP3 ADD PUSH1 0x40 MSTORE RETURNDATASIZE DUP3 MSTORE RETURNDATASIZE PUSH1 0x0 PUSH1 0x20 DUP5 ADD RETURNDATACOPY PUSH3 0x103E JUMP JUMPDEST PUSH1 0x60 SWAP2 POP JUMPDEST POP SWAP2 POP SWAP2 POP DUP2 ISZERO PUSH3 0x1054 JUMPI SWAP2 POP PUSH3 0xC5D SWAP1 POP JUMP JUMPDEST DUP1 MLOAD ISZERO PUSH3 0x1065 JUMPI DUP1 MLOAD DUP1 DUP3 PUSH1 0x20 ADD REVERT JUMPDEST DUP4 PUSH1 0x40 MLOAD PUSH3 0x461BCD PUSH1 0xE5 SHL DUP2 MSTORE PUSH1 0x4 ADD PUSH3 0x2A7 SWAP2 SWAP1 PUSH3 0x1DBE JUMP JUMPDEST PUSH1 0x0 DUP2 EXTCODEHASH PUSH32 0xC5D2460186F7233C927E7DB2DCC703C0E500B653CA82273B7BFAD8045D85A470 DUP2 DUP2 EQ DUP1 ISZERO SWAP1 PUSH3 0xC5D JUMPI POP POP ISZERO ISZERO SWAP3 SWAP2 POP POP JUMP JUMPDEST PUSH2 0xE7C DUP1 PUSH3 0x2379 DUP4 CODECOPY ADD SWAP1 JUMP JUMPDEST DUP1 CALLDATALOAD PUSH1 0x1 PUSH1 0x1 PUSH1 0xA0 SHL SUB DUP2 AND DUP2 EQ PUSH3 0xE15 JUMPI PUSH1 0x0 DUP1 REVERT JUMPDEST PUSH1 0x0 DUP3 PUSH1 0x1F DUP4 ADD SLT PUSH3 0x10F2 JUMPI DUP1 DUP2 REVERT JUMPDEST DUP2 CALLDATALOAD PUSH3 0x1109 PUSH3 0x1103 DUP3 PUSH3 0x2329 JUMP JUMPDEST PUSH3 0x2302 JUMP JUMPDEST DUP2 DUP2 MSTORE SWAP2 POP PUSH1 0x20 DUP1 DUP4 ADD SWAP1 DUP5 DUP2 ADD DUP2 DUP5 MUL DUP7 ADD DUP3 ADD DUP8 LT ISZERO PUSH3 0x112B JUMPI PUSH1 0x0 DUP1 REVERT JUMPDEST PUSH1 0x0 JUMPDEST DUP5 DUP2 LT ISZERO PUSH3 0x1156 JUMPI PUSH3 0x1143 DUP9 DUP4 PUSH3 0x10C9 JUMP JUMPDEST DUP5 MSTORE SWAP3 DUP3 ADD SWAP3 SWAP1 DUP3 ADD SWAP1 PUSH1 0x1 ADD PUSH3 0x112E JUMP JUMPDEST POP POP POP POP POP SWAP3 SWAP2 POP POP JUMP JUMPDEST PUSH1 0x0 DUP3 PUSH1 0x1F DUP4 ADD SLT PUSH3 0x1172 JUMPI DUP1 DUP2 REVERT JUMPDEST DUP2 CALLDATALOAD PUSH3 0x1183 PUSH3 0x1103 DUP3 PUSH3 0x2329 JUMP JUMPDEST DUP2 DUP2 MSTORE SWAP2 POP PUSH1 0x20 DUP1 DUP4 ADD SWAP1 DUP5 DUP2 ADD DUP2 DUP5 MUL DUP7 ADD DUP3 ADD DUP8 LT ISZERO PUSH3 0x11A5 JUMPI PUSH1 0x0 DUP1 REVERT JUMPDEST PUSH1 0x0 JUMPDEST DUP5 DUP2 LT ISZERO PUSH3 0x1156 JUMPI DUP2 CALLDATALOAD DUP5 MSTORE SWAP3 DUP3 ADD SWAP3 SWAP1 DUP3 ADD SWAP1 PUSH1 0x1 ADD PUSH3 0x11A8 JUMP JUMPDEST PUSH1 0x0 DUP3 PUSH1 0x1F DUP4 ADD SLT PUSH3 0x11D7 JUMPI DUP1 DUP2 REVERT JUMPDEST DUP2 CALLDATALOAD PUSH3 0x11E8 PUSH3 0x1103 DUP3 PUSH3 0x2329 JUMP JUMPDEST DUP2 DUP2 MSTORE SWAP2 POP PUSH1 0x20 DUP1 DUP4 ADD SWAP1 DUP5 DUP2 ADD DUP2 DUP5 MUL DUP7 ADD DUP3 ADD DUP8 LT ISZERO PUSH3 0x120A JUMPI PUSH1 0x0 DUP1 REVERT JUMPDEST PUSH1 0x0 JUMPDEST DUP5 DUP2 LT ISZERO PUSH3 0x1156 JUMPI PUSH3 0x1222 DUP9 DUP4 PUSH3 0x13C8 JUMP JUMPDEST DUP5 MSTORE SWAP3 DUP3 ADD SWAP3 SWAP1 DUP3 ADD SWAP1 PUSH1 0x1 ADD PUSH3 0x120D JUMP JUMPDEST PUSH1 0x0 DUP3 PUSH1 0x1F DUP4 ADD SLT PUSH3 0x1246 JUMPI DUP1 DUP2 REVERT JUMPDEST DUP2 CALLDATALOAD PUSH1 0x1 PUSH1 0x1 PUSH1 0x40 SHL SUB DUP2 GT ISZERO PUSH3 0x125C JUMPI DUP2 DUP3 REVERT JUMPDEST PUSH3 0x1271 PUSH1 0x1F DUP3 ADD PUSH1 0x1F NOT AND PUSH1 0x20 ADD PUSH3 0x2302 JUMP JUMPDEST SWAP2 POP DUP1 DUP3 MSTORE DUP4 PUSH1 0x20 DUP3 DUP6 ADD ADD GT ISZERO PUSH3 0x1289 JUMPI PUSH1 0x0 DUP1 REVERT JUMPDEST DUP1 PUSH1 0x20 DUP5 ADD PUSH1 0x20 DUP5 ADD CALLDATACOPY PUSH1 0x0 SWAP1 DUP3 ADD PUSH1 0x20 ADD MSTORE SWAP3 SWAP2 POP POP JUMP JUMPDEST PUSH1 0x0 PUSH2 0x120 DUP1 DUP4 DUP6 SUB SLT ISZERO PUSH3 0x12B6 JUMPI DUP2 DUP3 REVERT JUMPDEST PUSH3 0x12C1 DUP2 PUSH3 0x2302 JUMP JUMPDEST SWAP2 POP POP DUP2 CALLDATALOAD PUSH1 0x1 PUSH1 0x1 PUSH1 0x40 SHL SUB DUP1 DUP3 GT ISZERO PUSH3 0x12DC JUMPI PUSH1 0x0 DUP1 REVERT JUMPDEST PUSH3 0x12EA DUP6 DUP4 DUP7 ADD PUSH3 0x1161 JUMP JUMPDEST DUP4 MSTORE PUSH1 0x20 DUP5 ADD CALLDATALOAD SWAP2 POP DUP1 DUP3 GT ISZERO PUSH3 0x1301 JUMPI PUSH1 0x0 DUP1 REVERT JUMPDEST PUSH3 0x130F DUP6 DUP4 DUP7 ADD PUSH3 0x10E1 JUMP JUMPDEST PUSH1 0x20 DUP5 ADD MSTORE PUSH1 0x40 DUP5 ADD CALLDATALOAD SWAP2 POP DUP1 DUP3 GT ISZERO PUSH3 0x1329 JUMPI PUSH1 0x0 DUP1 REVERT JUMPDEST PUSH3 0x1337 DUP6 DUP4 DUP7 ADD PUSH3 0x1161 JUMP JUMPDEST PUSH1 0x40 DUP5 ADD MSTORE PUSH1 0x60 DUP5 ADD CALLDATALOAD SWAP2 POP DUP1 DUP3 GT ISZERO PUSH3 0x1351 JUMPI PUSH1 0x0 DUP1 REVERT JUMPDEST PUSH3 0x135F DUP6 DUP4 DUP7 ADD PUSH3 0x10E1 JUMP JUMPDEST PUSH1 0x60 DUP5 ADD MSTORE PUSH3 0x1373 DUP6 PUSH1 0x80 DUP7 ADD PUSH3 0x10C9 JUMP JUMPDEST PUSH1 0x80 DUP5 ADD MSTORE PUSH1 0xA0 DUP5 ADD CALLDATALOAD SWAP2 POP DUP1 DUP3 GT ISZERO PUSH3 0x138D JUMPI PUSH1 0x0 DUP1 REVERT JUMPDEST POP PUSH3 0x139C DUP5 DUP3 DUP6 ADD PUSH3 0x1235 JUMP JUMPDEST PUSH1 0xA0 DUP4 ADD MSTORE POP PUSH1 0xC0 DUP3 ADD CALLDATALOAD PUSH1 0xC0 DUP3 ADD MSTORE PUSH1 0xE0 DUP3 ADD CALLDATALOAD PUSH1 0xE0 DUP3 ADD MSTORE PUSH2 0x100 DUP1 DUP4 ADD CALLDATALOAD DUP2 DUP4 ADD MSTORE POP SWAP3 SWAP2 POP POP JUMP JUMPDEST DUP1 CALLDATALOAD PUSH1 0xFF DUP2 AND DUP2 EQ PUSH3 0xE15 JUMPI PUSH1 0x0 DUP1 REVERT JUMPDEST PUSH1 0x0 PUSH1 0x20 DUP3 DUP5 SUB SLT ISZERO PUSH3 0x13EC JUMPI DUP1 DUP2 REVERT JUMPDEST PUSH3 0xE12 DUP4 DUP4 PUSH3 0x10C9 JUMP JUMPDEST PUSH1 0x0 DUP1 PUSH1 0x0 PUSH1 0x60 DUP5 DUP7 SUB SLT ISZERO PUSH3 0x140D JUMPI DUP2 DUP3 REVERT JUMPDEST DUP4 CALLDATALOAD PUSH1 0x1 PUSH1 0x1 PUSH1 0xA0 SHL SUB DUP2 AND DUP2 EQ PUSH3 0x1424 JUMPI DUP3 DUP4 REVERT JUMPDEST SWAP6 PUSH1 0x20 DUP6 ADD CALLDATALOAD SWAP6 POP PUSH1 0x40 SWAP1 SWAP5 ADD CALLDATALOAD SWAP4 SWAP3 POP POP POP JUMP JUMPDEST PUSH1 0x0 DUP1 PUSH1 0x0 DUP1 PUSH1 0x0 DUP1 PUSH1 0x0 PUSH1 0xE0 DUP9 DUP11 SUB SLT ISZERO PUSH3 0x1454 JUMPI DUP3 DUP4 REVERT JUMPDEST DUP8 CALLDATALOAD PUSH1 0x1 PUSH1 0x1 PUSH1 0x40 SHL SUB DUP1 DUP3 GT ISZERO PUSH3 0x146B JUMPI DUP5 DUP6 REVERT JUMPDEST PUSH3 0x1479 DUP12 DUP4 DUP13 ADD PUSH3 0x10E1 JUMP JUMPDEST SWAP9 POP PUSH1 0x20 DUP11 ADD CALLDATALOAD SWAP2 POP DUP1 DUP3 GT ISZERO PUSH3 0x148F JUMPI DUP5 DUP6 REVERT JUMPDEST PUSH3 0x149D DUP12 DUP4 DUP13 ADD PUSH3 0x1161 JUMP JUMPDEST SWAP8 POP PUSH1 0x40 DUP11 ADD CALLDATALOAD SWAP2 POP DUP1 DUP3 GT ISZERO PUSH3 0x14B3 JUMPI DUP5 DUP6 REVERT JUMPDEST PUSH3 0x14C1 DUP12 DUP4 DUP13 ADD PUSH3 0x11C6 JUMP JUMPDEST SWAP7 POP PUSH1 0x60 DUP11 ADD CALLDATALOAD SWAP2 POP DUP1 DUP3 GT ISZERO PUSH3 0x14D7 JUMPI DUP5 DUP6 REVERT JUMPDEST PUSH3 0x14E5 DUP12 DUP4 DUP13 ADD PUSH3 0x1161 JUMP JUMPDEST SWAP6 POP PUSH1 0x80 DUP11 ADD CALLDATALOAD SWAP2 POP DUP1 DUP3 GT ISZERO PUSH3 0x14FB JUMPI DUP5 DUP6 REVERT JUMPDEST POP PUSH3 0x150A DUP11 DUP3 DUP12 ADD PUSH3 0x1161 JUMP JUMPDEST SWAP4 POP POP PUSH1 0xA0 DUP9 ADD CALLDATALOAD SWAP2 POP PUSH1 0xC0 DUP9 ADD CALLDATALOAD SWAP1 POP SWAP3 SWAP6 SWAP9 SWAP2 SWAP5 SWAP8 POP SWAP3 SWAP6 POP JUMP JUMPDEST PUSH1 0x0 DUP1 PUSH1 0x0 DUP1 PUSH1 0x0 DUP1 PUSH1 0x0 DUP1 PUSH1 0x0 PUSH2 0x120 DUP11 DUP13 SUB SLT ISZERO PUSH3 0x1546 JUMPI DUP2 DUP3 REVERT JUMPDEST DUP10 CALLDATALOAD PUSH1 0x1 PUSH1 0x1 PUSH1 0x40 SHL SUB DUP1 DUP3 GT ISZERO PUSH3 0x155D JUMPI DUP4 DUP5 REVERT JUMPDEST PUSH3 0x156B DUP14 DUP4 DUP15 ADD PUSH3 0x10E1 JUMP JUMPDEST SWAP11 POP PUSH1 0x20 DUP13 ADD CALLDATALOAD SWAP2 POP DUP1 DUP3 GT ISZERO PUSH3 0x1581 JUMPI DUP4 DUP5 REVERT JUMPDEST PUSH3 0x158F DUP14 DUP4 DUP15 ADD PUSH3 0x1161 JUMP JUMPDEST SWAP10 POP PUSH1 0x40 DUP13 ADD CALLDATALOAD SWAP9 POP PUSH1 0x60 DUP13 ADD CALLDATALOAD SWAP2 POP DUP1 DUP3 GT ISZERO PUSH3 0x15AC JUMPI DUP4 DUP5 REVERT JUMPDEST PUSH3 0x15BA DUP14 DUP4 DUP15 ADD PUSH3 0x10E1 JUMP JUMPDEST SWAP8 POP PUSH1 0x80 DUP13 ADD CALLDATALOAD SWAP2 POP DUP1 DUP3 GT ISZERO PUSH3 0x15D0 JUMPI DUP4 DUP5 REVERT JUMPDEST PUSH3 0x15DE DUP14 DUP4 DUP15 ADD PUSH3 0x1161 JUMP JUMPDEST SWAP7 POP PUSH1 0xA0 DUP13 ADD CALLDATALOAD SWAP6 POP PUSH1 0xC0 DUP13 ADD CALLDATALOAD SWAP2 POP DUP1 DUP3 GT ISZERO PUSH3 0x15FB JUMPI DUP4 DUP5 REVERT JUMPDEST PUSH3 0x1609 DUP14 DUP4 DUP15 ADD PUSH3 0x11C6 JUMP JUMPDEST SWAP5 POP PUSH1 0xE0 DUP13 ADD CALLDATALOAD SWAP2 POP DUP1 DUP3 GT ISZERO PUSH3 0x161F JUMPI DUP4 DUP5 REVERT JUMPDEST PUSH3 0x162D DUP14 DUP4 DUP15 ADD PUSH3 0x1161 JUMP JUMPDEST SWAP4 POP PUSH2 0x100 DUP13 ADD CALLDATALOAD SWAP2 POP DUP1 DUP3 GT ISZERO PUSH3 0x1644 JUMPI DUP3 DUP4 REVERT JUMPDEST POP PUSH3 0x1653 DUP13 DUP3 DUP14 ADD PUSH3 0x1161 JUMP JUMPDEST SWAP2 POP POP SWAP3 SWAP6 SWAP9 POP SWAP3 SWAP6 SWAP9 POP SWAP3 SWAP6 SWAP9 JUMP JUMPDEST PUSH1 0x0 DUP1 PUSH1 0x0 DUP1 PUSH1 0x0 DUP1 PUSH1 0x0 DUP1 PUSH1 0x0 DUP1 PUSH1 0x0 DUP1 PUSH2 0x180 DUP14 DUP16 SUB SLT ISZERO PUSH3 0x1686 JUMPI DUP6 DUP7 REVERT JUMPDEST PUSH1 0x1 PUSH1 0x1 PUSH1 0x40 SHL SUB DUP14 CALLDATALOAD GT ISZERO PUSH3 0x169B JUMPI DUP6 DUP7 REVERT JUMPDEST PUSH3 0x16AA DUP15 DUP15 CALLDATALOAD DUP16 ADD PUSH3 0x10E1 JUMP JUMPDEST SWAP12 POP PUSH1 0x1 PUSH1 0x1 PUSH1 0x40 SHL SUB PUSH1 0x20 DUP15 ADD CALLDATALOAD GT ISZERO PUSH3 0x16C4 JUMPI DUP6 DUP7 REVERT JUMPDEST PUSH3 0x16D6 DUP15 PUSH1 0x20 DUP16 ADD CALLDATALOAD DUP16 ADD PUSH3 0x1161 JUMP JUMPDEST SWAP11 POP PUSH1 0x40 DUP14 ADD CALLDATALOAD SWAP10 POP PUSH1 0x1 PUSH1 0x1 PUSH1 0x40 SHL SUB PUSH1 0x60 DUP15 ADD CALLDATALOAD GT ISZERO PUSH3 0x16F7 JUMPI DUP6 DUP7 REVERT JUMPDEST PUSH3 0x1709 DUP15 PUSH1 0x60 DUP16 ADD CALLDATALOAD DUP16 ADD PUSH3 0x11C6 JUMP JUMPDEST SWAP9 POP PUSH1 0x1 PUSH1 0x1 PUSH1 0x40 SHL SUB PUSH1 0x80 DUP15 ADD CALLDATALOAD GT ISZERO PUSH3 0x1723 JUMPI DUP6 DUP7 REVERT JUMPDEST PUSH3 0x1735 DUP15 PUSH1 0x80 DUP16 ADD CALLDATALOAD DUP16 ADD PUSH3 0x1161 JUMP JUMPDEST SWAP8 POP PUSH1 0x1 PUSH1 0x1 PUSH1 0x40 SHL SUB PUSH1 0xA0 DUP15 ADD CALLDATALOAD GT ISZERO PUSH3 0x174F JUMPI DUP6 DUP7 REVERT JUMPDEST PUSH3 0x1761 DUP15 PUSH1 0xA0 DUP16 ADD CALLDATALOAD DUP16 ADD PUSH3 0x1161 JUMP JUMPDEST SWAP7 POP PUSH1 0x1 PUSH1 0x1 PUSH1 0x40 SHL SUB PUSH1 0xC0 DUP15 ADD CALLDATALOAD GT ISZERO PUSH3 0x177B JUMPI DUP6 DUP7 REVERT JUMPDEST PUSH3 0x178D DUP15 PUSH1 0xC0 DUP16 ADD CALLDATALOAD DUP16 ADD PUSH3 0x1161 JUMP JUMPDEST SWAP6 POP PUSH1 0x1 PUSH1 0x1 PUSH1 0x40 SHL SUB PUSH1 0xE0 DUP15 ADD CALLDATALOAD GT ISZERO PUSH3 0x17A7 JUMPI DUP3 DUP4 REVERT JUMPDEST PUSH3 0x17B9 DUP15 PUSH1 0xE0 DUP16 ADD CALLDATALOAD DUP16 ADD PUSH3 0x10E1 JUMP JUMPDEST SWAP5 POP PUSH1 0x1 PUSH1 0x1 PUSH1 0x40 SHL SUB PUSH2 0x100 DUP15 ADD CALLDATALOAD GT ISZERO PUSH3 0x17D4 JUMPI DUP3 DUP4 REVERT JUMPDEST PUSH3 0x17E7 DUP15 PUSH2 0x100 DUP16 ADD CALLDATALOAD DUP16 ADD PUSH3 0x1161 JUMP JUMPDEST SWAP4 POP PUSH2 0x120 DUP14 ADD CALLDATALOAD SWAP3 POP PUSH3 0x1801 DUP15 PUSH2 0x140 DUP16 ADD PUSH3 0x10C9 JUMP JUMPDEST SWAP2 POP PUSH2 0x160 DUP14 ADD CALLDATALOAD SWAP1 POP SWAP3 SWAP6 SWAP9 SWAP12 POP SWAP3 SWAP6 SWAP9 SWAP12 POP SWAP3 SWAP6 SWAP9 SWAP12 JUMP JUMPDEST PUSH1 0x0 DUP1 PUSH1 0x0 DUP1 PUSH1 0x0 DUP1 PUSH1 0x0 PUSH1 0xE0 DUP9 DUP11 SUB SLT ISZERO PUSH3 0x1836 JUMPI DUP1 DUP2 REVERT JUMPDEST DUP8 CALLDATALOAD PUSH1 0x1 PUSH1 0x1 PUSH1 0x40 SHL SUB DUP1 DUP3 GT ISZERO PUSH3 0x184D JUMPI DUP3 DUP4 REVERT JUMPDEST PUSH3 0x185B DUP12 DUP4 DUP13 ADD PUSH3 0x10E1 JUMP JUMPDEST SWAP9 POP PUSH1 0x20 DUP11 ADD CALLDATALOAD SWAP2 POP DUP1 DUP3 GT ISZERO PUSH3 0x1871 JUMPI DUP3 DUP4 REVERT JUMPDEST PUSH3 0x187F DUP12 DUP4 DUP13 ADD PUSH3 0x1161 JUMP JUMPDEST SWAP8 POP PUSH1 0x40 DUP11 ADD CALLDATALOAD SWAP7 POP PUSH1 0x60 DUP11 ADD CALLDATALOAD SWAP2 POP DUP1 DUP3 GT ISZERO PUSH3 0x189C JUMPI DUP3 DUP4 REVERT JUMPDEST PUSH3 0x18AA DUP12 DUP4 DUP13 ADD PUSH3 0x11C6 JUMP JUMPDEST SWAP6 POP PUSH1 0x80 DUP11 ADD CALLDATALOAD SWAP2 POP DUP1 DUP3 GT ISZERO PUSH3 0x18C0 JUMPI DUP3 DUP4 REVERT JUMPDEST PUSH3 0x18CE DUP12 DUP4 DUP13 ADD PUSH3 0x1161 JUMP JUMPDEST SWAP5 POP PUSH1 0xA0 DUP11 ADD CALLDATALOAD SWAP2 POP DUP1 DUP3 GT ISZERO PUSH3 0x18E4 JUMPI DUP3 DUP4 REVERT JUMPDEST PUSH3 0x18F2 DUP12 DUP4 DUP13 ADD PUSH3 0x1161 JUMP JUMPDEST SWAP4 POP PUSH1 0xC0 DUP11 ADD CALLDATALOAD SWAP2 POP DUP1 DUP3 GT ISZERO PUSH3 0x1908 JUMPI DUP3 DUP4 REVERT JUMPDEST POP PUSH3 0x1917 DUP11 DUP3 DUP12 ADD PUSH3 0x12A2 JUMP JUMPDEST SWAP2 POP POP SWAP3 SWAP6 SWAP9 SWAP2 SWAP5 SWAP8 POP SWAP3 SWAP6 POP JUMP JUMPDEST PUSH1 0x0 DUP1 PUSH1 0x0 DUP1 PUSH1 0x80 DUP6 DUP8 SUB SLT ISZERO PUSH3 0x193C JUMPI DUP2 DUP3 REVERT JUMPDEST DUP5 CALLDATALOAD PUSH1 0x1 PUSH1 0x1 PUSH1 0x40 SHL SUB DUP1 DUP3 GT ISZERO PUSH3 0x1953 JUMPI DUP4 DUP5 REVERT JUMPDEST PUSH3 0x1961 DUP9 DUP4 DUP10 ADD PUSH3 0x10E1 JUMP JUMPDEST SWAP6 POP PUSH1 0x20 DUP8 ADD CALLDATALOAD SWAP2 POP DUP1 DUP3 GT ISZERO PUSH3 0x1977 JUMPI DUP4 DUP5 REVERT JUMPDEST POP PUSH3 0x1986 DUP8 DUP3 DUP9 ADD PUSH3 0x1161 JUMP JUMPDEST SWAP5 SWAP8 SWAP5 SWAP7 POP POP POP POP PUSH1 0x40 DUP4 ADD CALLDATALOAD SWAP3 PUSH1 0x60 ADD CALLDATALOAD SWAP2 SWAP1 POP JUMP JUMPDEST PUSH1 0x0 PUSH1 0x20 DUP3 DUP5 SUB SLT ISZERO PUSH3 0x19AF JUMPI DUP1 DUP2 REVERT JUMPDEST DUP2 MLOAD DUP1 ISZERO ISZERO DUP2 EQ PUSH3 0xE12 JUMPI DUP2 DUP3 REVERT JUMPDEST PUSH1 0x0 PUSH1 0x20 DUP3 DUP5 SUB SLT ISZERO PUSH3 0x19D1 JUMPI DUP1 DUP2 REVERT JUMPDEST POP CALLDATALOAD SWAP2 SWAP1 POP JUMP JUMPDEST PUSH1 0x0 DUP1 PUSH1 0x0 DUP1 PUSH1 0x80 DUP6 DUP8 SUB SLT ISZERO PUSH3 0x19EE JUMPI DUP2 DUP3 REVERT JUMPDEST DUP5 CALLDATALOAD PUSH1 0x1 PUSH1 0x1 PUSH1 0x40 SHL SUB DUP1 DUP3 GT ISZERO PUSH3 0x1A05 JUMPI DUP4 DUP5 REVERT JUMPDEST PUSH3 0x1A13 DUP9 DUP4 DUP10 ADD PUSH3 0x1235 JUMP JUMPDEST SWAP6 POP PUSH1 0x20 DUP8 ADD CALLDATALOAD SWAP2 POP DUP1 DUP3 GT ISZERO PUSH3 0x1A29 JUMPI DUP4 DUP5 REVERT JUMPDEST PUSH3 0x1A37 DUP9 DUP4 DUP10 ADD PUSH3 0x1235 JUMP JUMPDEST SWAP5 POP PUSH1 0x40 DUP8 ADD CALLDATALOAD SWAP2 POP DUP1 DUP3 GT ISZERO PUSH3 0x1A4D JUMPI DUP4 DUP5 REVERT JUMPDEST POP PUSH3 0x1A5C DUP8 DUP3 DUP9 ADD PUSH3 0x1235 JUMP JUMPDEST SWAP3 POP POP PUSH3 0x1A6E DUP7 PUSH1 0x60 DUP8 ADD PUSH3 0x13C8 JUMP JUMPDEST SWAP1 POP SWAP3 SWAP6 SWAP2 SWAP5 POP SWAP3 POP JUMP JUMPDEST PUSH1 0x0 DUP2 MLOAD DUP1 DUP5 MSTORE PUSH1 0x20 DUP1 DUP6 ADD SWAP5 POP DUP1 DUP5 ADD DUP4 JUMPDEST DUP4 DUP2 LT ISZERO PUSH3 0x1AB3 JUMPI DUP2 MLOAD PUSH1 0x1 PUSH1 0x1 PUSH1 0xA0 SHL SUB AND DUP8 MSTORE SWAP6 DUP3 ADD SWAP6 SWAP1 DUP3 ADD SWAP1 PUSH1 0x1 ADD PUSH3 0x1A8C JUMP JUMPDEST POP SWAP5 SWAP6 SWAP5 POP POP POP POP POP JUMP JUMPDEST PUSH1 0x0 DUP2 MLOAD DUP1 DUP5 MSTORE PUSH1 0x20 DUP1 DUP6 ADD SWAP5 POP DUP1 DUP5 ADD DUP4 JUMPDEST DUP4 DUP2 LT ISZERO PUSH3 0x1AB3 JUMPI DUP2 MLOAD DUP8 MSTORE SWAP6 DUP3 ADD SWAP6 SWAP1 DUP3 ADD SWAP1 PUSH1 0x1 ADD PUSH3 0x1AD1 JUMP JUMPDEST PUSH1 0x0 DUP2 MLOAD DUP1 DUP5 MSTORE PUSH3 0x1B09 DUP2 PUSH1 0x20 DUP7 ADD PUSH1 0x20 DUP7 ADD PUSH3 0x2349 JUMP JUMPDEST PUSH1 0x1F ADD PUSH1 0x1F NOT AND SWAP3 SWAP1 SWAP3 ADD PUSH1 0x20 ADD SWAP3 SWAP2 POP POP JUMP JUMPDEST PUSH1 0x0 DUP3 MLOAD PUSH3 0x1B31 DUP2 DUP5 PUSH1 0x20 DUP8 ADD PUSH3 0x2349 JUMP JUMPDEST SWAP2 SWAP1 SWAP2 ADD SWAP3 SWAP2 POP POP JUMP JUMPDEST PUSH32 0x19457468657265756D205369676E6564204D6573736167653A0A333200000000 DUP2 MSTORE PUSH1 0x1C DUP2 ADD SWAP2 SWAP1 SWAP2 MSTORE PUSH1 0x3C ADD SWAP1 JUMP JUMPDEST PUSH1 0x1 PUSH1 0x1 PUSH1 0xA0 SHL SUB SWAP4 DUP5 AND DUP2 MSTORE SWAP2 SWAP1 SWAP3 AND PUSH1 0x20 DUP3 ADD MSTORE PUSH1 0x40 DUP2 ADD SWAP2 SWAP1 SWAP2 MSTORE PUSH1 0x60 ADD SWAP1 JUMP JUMPDEST PUSH1 0x1 PUSH1 0x1 PUSH1 0xA0 SHL SUB DUP6 AND DUP2 MSTORE PUSH1 0x80 PUSH1 0x20 DUP3 ADD DUP2 SWAP1 MSTORE PUSH1 0x0 SWAP1 PUSH3 0x1BB6 SWAP1 DUP4 ADD DUP7 PUSH3 0x1AEF JUMP JUMPDEST DUP3 DUP2 SUB PUSH1 0x40 DUP5 ADD MSTORE PUSH3 0x1BCA DUP2 DUP7 PUSH3 0x1AEF JUMP JUMPDEST SWAP2 POP POP PUSH1 0xFF DUP4 AND PUSH1 0x60 DUP4 ADD MSTORE SWAP6 SWAP5 POP POP POP POP POP JUMP JUMPDEST PUSH1 0x1 PUSH1 0x1 PUSH1 0xA0 SHL SUB SWAP3 SWAP1 SWAP3 AND DUP3 MSTORE PUSH1 0x20 DUP3 ADD MSTORE PUSH1 0x40 ADD SWAP1 JUMP JUMPDEST SWAP1 DUP2 MSTORE PUSH1 0x20 ADD SWAP1 JUMP JUMPDEST PUSH1 0x0 DUP7 DUP3 MSTORE DUP6 PUSH1 0x20 DUP4 ADD MSTORE DUP5 PUSH1 0x40 DUP4 ADD MSTORE PUSH1 0xA0 PUSH1 0x60 DUP4 ADD MSTORE PUSH3 0x1C28 PUSH1 0xA0 DUP4 ADD DUP6 PUSH3 0x1A79 JUMP JUMPDEST DUP3 DUP2 SUB PUSH1 0x80 DUP5 ADD MSTORE PUSH3 0x1C3C DUP2 DUP6 PUSH3 0x1ABE JUMP JUMPDEST SWAP9 SWAP8 POP POP POP POP POP POP POP POP JUMP JUMPDEST PUSH1 0x0 PUSH2 0x160 DUP14 DUP4 MSTORE DUP13 PUSH1 0x20 DUP5 ADD MSTORE DUP1 PUSH1 0x40 DUP5 ADD MSTORE PUSH3 0x1C6A DUP2 DUP5 ADD DUP14 PUSH3 0x1ABE JUMP JUMPDEST DUP4 DUP2 SUB PUSH1 0x60 DUP6 ADD MSTORE PUSH3 0x1C7E DUP2 DUP14 PUSH3 0x1A79 JUMP JUMPDEST SWAP2 POP POP DUP3 DUP2 SUB PUSH1 0x80 DUP5 ADD MSTORE PUSH3 0x1C95 DUP2 DUP12 PUSH3 0x1ABE JUMP JUMPDEST DUP4 DUP2 SUB PUSH1 0xA0 DUP6 ADD MSTORE PUSH3 0x1CA9 DUP2 DUP12 PUSH3 0x1A79 JUMP JUMPDEST PUSH1 0x1 PUSH1 0x1 PUSH1 0xA0 SHL SUB DUP11 AND PUSH1 0xC0 DUP7 ADD MSTORE DUP5 DUP2 SUB PUSH1 0xE0 DUP7 ADD MSTORE SWAP2 POP PUSH3 0x1CD0 SWAP1 POP DUP2 DUP9 PUSH3 0x1AEF JUMP JUMPDEST PUSH2 0x100 DUP5 ADD SWAP7 SWAP1 SWAP7 MSTORE POP POP PUSH2 0x120 DUP2 ADD SWAP3 SWAP1 SWAP3 MSTORE PUSH2 0x140 SWAP1 SWAP2 ADD MSTORE SWAP9 SWAP8 POP POP POP POP POP POP POP POP JUMP JUMPDEST PUSH1 0x0 PUSH2 0x100 DUP11 DUP4 MSTORE DUP10 PUSH1 0x20 DUP5 ADD MSTORE DUP1 PUSH1 0x40 DUP5 ADD MSTORE PUSH3 0x1D19 DUP2 DUP5 ADD DUP11 PUSH3 0x1ABE JUMP JUMPDEST DUP4 DUP2 SUB PUSH1 0x60 DUP6 ADD MSTORE PUSH3 0x1D2D DUP2 DUP11 PUSH3 0x1A79 JUMP JUMPDEST SWAP2 POP POP DUP3 DUP2 SUB PUSH1 0x80 DUP5 ADD MSTORE PUSH3 0x1D44 DUP2 DUP9 PUSH3 0x1ABE JUMP JUMPDEST PUSH1 0xA0 DUP5 ADD SWAP7 SWAP1 SWAP7 MSTORE POP POP PUSH1 0x1 PUSH1 0x1 PUSH1 0xA0 SHL SUB SWAP3 SWAP1 SWAP3 AND PUSH1 0xC0 DUP4 ADD MSTORE PUSH1 0xE0 SWAP1 SWAP2 ADD MSTORE SWAP6 SWAP5 POP POP POP POP POP JUMP JUMPDEST PUSH1 0x0 DUP6 DUP3 MSTORE DUP5 PUSH1 0x20 DUP4 ADD MSTORE PUSH1 0x80 PUSH1 0x40 DUP4 ADD MSTORE PUSH3 0x1D8F PUSH1 0x80 DUP4 ADD DUP6 PUSH3 0x1AEF JUMP JUMPDEST SWAP1 POP DUP3 PUSH1 0x60 DUP4 ADD MSTORE SWAP6 SWAP5 POP POP POP POP POP JUMP JUMPDEST SWAP4 DUP5 MSTORE PUSH1 0xFF SWAP3 SWAP1 SWAP3 AND PUSH1 0x20 DUP5 ADD MSTORE PUSH1 0x40 DUP4 ADD MSTORE PUSH1 0x60 DUP3 ADD MSTORE PUSH1 0x80 ADD SWAP1 JUMP JUMPDEST PUSH1 0x0 PUSH1 0x20 DUP3 MSTORE PUSH3 0xE12 PUSH1 0x20 DUP4 ADD DUP5 PUSH3 0x1AEF JUMP JUMPDEST PUSH1 0x0 PUSH1 0xA0 DUP3 MSTORE PUSH3 0x1DE8 PUSH1 0xA0 DUP4 ADD DUP9 PUSH3 0x1AEF JUMP JUMPDEST DUP3 DUP2 SUB PUSH1 0x20 DUP5 ADD MSTORE PUSH3 0x1DFC DUP2 DUP9 PUSH3 0x1AEF JUMP JUMPDEST DUP4 DUP2 SUB PUSH1 0x40 DUP6 ADD MSTORE PUSH3 0x1E10 DUP2 DUP9 PUSH3 0x1AEF JUMP JUMPDEST PUSH1 0xFF SWAP7 SWAP1 SWAP7 AND PUSH1 0x60 DUP6 ADD MSTORE POP POP POP PUSH1 0x80 ADD MSTORE SWAP4 SWAP3 POP POP POP JUMP JUMPDEST PUSH1 0x20 DUP1 DUP3 MSTORE PUSH1 0x16 SWAP1 DUP3 ADD MSTORE PUSH22 0x4D616C666F726D6564206C697374206F662066656573 PUSH1 0x50 SHL PUSH1 0x40 DUP3 ADD MSTORE PUSH1 0x60 ADD SWAP1 JUMP JUMPDEST PUSH1 0x20 DUP1 DUP3 MSTORE PUSH1 0x3F SWAP1 DUP3 ADD MSTORE PUSH32 0x537570706C6965642063757272656E742076616C696461746F727320616E6420 PUSH1 0x40 DUP3 ADD MSTORE PUSH32 0x706F7765727320646F206E6F74206D6174636820636865636B706F696E742E00 PUSH1 0x60 DUP3 ADD MSTORE PUSH1 0x80 ADD SWAP1 JUMP JUMPDEST PUSH1 0x20 DUP1 DUP3 MSTORE PUSH1 0x36 SWAP1 DUP3 ADD MSTORE PUSH32 0x4E6577206261746368206E6F6E6365206D757374206265206772656174657220 PUSH1 0x40 DUP3 ADD MSTORE PUSH22 0x7468616E207468652063757272656E74206E6F6E6365 PUSH1 0x50 SHL PUSH1 0x60 DUP3 ADD MSTORE PUSH1 0x80 ADD SWAP1 JUMP JUMPDEST PUSH1 0x20 DUP1 DUP3 MSTORE PUSH1 0x1F SWAP1 DUP3 ADD MSTORE PUSH32 0x4D616C666F726D6564206261746368206F66207472616E73616374696F6E7300 PUSH1 0x40 DUP3 ADD MSTORE PUSH1 0x60 ADD SWAP1 JUMP JUMPDEST PUSH1 0x20 DUP1 DUP3 MSTORE PUSH1 0x3D SWAP1 DUP3 ADD MSTORE PUSH32 0x4E657720696E76616C69646174696F6E206E6F6E6365206D7573742062652067 PUSH1 0x40 DUP3 ADD MSTORE PUSH32 0x726561746572207468616E207468652063757272656E74206E6F6E6365000000 PUSH1 0x60 DUP3 ADD MSTORE PUSH1 0x80 ADD SWAP1 JUMP JUMPDEST PUSH1 0x20 DUP1 DUP3 MSTORE PUSH1 0x1B SWAP1 DUP3 ADD MSTORE PUSH32 0x536166654D6174683A206164646974696F6E206F766572666C6F770000000000 PUSH1 0x40 DUP3 ADD MSTORE PUSH1 0x60 ADD SWAP1 JUMP JUMPDEST PUSH1 0x20 DUP1 DUP3 MSTORE PUSH1 0x9 SWAP1 DUP3 ADD MSTORE PUSH9 0x151A5B5959081BDD5D PUSH1 0xBA SHL PUSH1 0x40 DUP3 ADD MSTORE PUSH1 0x60 ADD SWAP1 JUMP JUMPDEST PUSH1 0x20 DUP1 DUP3 MSTORE PUSH1 0x23 SWAP1 DUP3 ADD MSTORE PUSH32 0x56616C696461746F72207369676E617475726520646F6573206E6F74206D6174 PUSH1 0x40 DUP3 ADD MSTORE PUSH3 0x31B417 PUSH1 0xE9 SHL PUSH1 0x60 DUP3 ADD MSTORE PUSH1 0x80 ADD SWAP1 JUMP JUMPDEST PUSH1 0x20 DUP1 DUP3 MSTORE PUSH1 0x3B SWAP1 DUP3 ADD MSTORE PUSH32 0x42617463682074696D656F7574206D7573742062652067726561746572207468 PUSH1 0x40 DUP3 ADD MSTORE PUSH32 0x616E207468652063757272656E7420626C6F636B206865696768740000000000 PUSH1 0x60 DUP3 ADD MSTORE PUSH1 0x80 ADD SWAP1 JUMP JUMPDEST PUSH1 0x20 DUP1 DUP3 MSTORE PUSH1 0x21 SWAP1 DUP3 ADD MSTORE PUSH32 0x4D616C666F726D6564206C697374206F6620746F6B656E207472616E73666572 PUSH1 0x40 DUP3 ADD MSTORE PUSH1 0x73 PUSH1 0xF8 SHL PUSH1 0x60 DUP3 ADD MSTORE PUSH1 0x80 ADD SWAP1 JUMP JUMPDEST PUSH1 0x20 DUP1 DUP3 MSTORE PUSH1 0x1B SWAP1 DUP3 ADD MSTORE PUSH32 0x4D616C666F726D6564206E65772076616C696461746F72207365740000000000 PUSH1 0x40 DUP3 ADD MSTORE PUSH1 0x60 ADD SWAP1 JUMP JUMPDEST PUSH1 0x20 DUP1 DUP3 MSTORE PUSH1 0x3C SWAP1 DUP3 ADD MSTORE PUSH32 0x5375626D69747465642076616C696461746F7220736574207369676E61747572 PUSH1 0x40 DUP3 ADD MSTORE PUSH32 0x657320646F206E6F74206861766520656E6F75676820706F7765722E00000000 PUSH1 0x60 DUP3 ADD MSTORE PUSH1 0x80 ADD SWAP1 JUMP JUMPDEST PUSH1 0x20 DUP1 DUP3 MSTORE PUSH1 0x37 SWAP1 DUP3 ADD MSTORE PUSH32 0x4E65772076616C736574206E6F6E6365206D7573742062652067726561746572 PUSH1 0x40 DUP3 ADD MSTORE PUSH32 0x207468616E207468652063757272656E74206E6F6E6365000000000000000000 PUSH1 0x60 DUP3 ADD MSTORE PUSH1 0x80 ADD SWAP1 JUMP JUMPDEST PUSH1 0x20 DUP1 DUP3 MSTORE PUSH1 0x1D SWAP1 DUP3 ADD MSTORE PUSH32 0x416464726573733A2063616C6C20746F206E6F6E2D636F6E7472616374000000 PUSH1 0x40 DUP3 ADD MSTORE PUSH1 0x60 ADD SWAP1 JUMP JUMPDEST PUSH1 0x20 DUP1 DUP3 MSTORE PUSH1 0x2A SWAP1 DUP3 ADD MSTORE PUSH32 0x5361666545524332303A204552433230206F7065726174696F6E20646964206E PUSH1 0x40 DUP3 ADD MSTORE PUSH10 0x1BDD081CDD58D8D95959 PUSH1 0xB2 SHL PUSH1 0x60 DUP3 ADD MSTORE PUSH1 0x80 ADD SWAP1 JUMP JUMPDEST PUSH1 0x20 DUP1 DUP3 MSTORE PUSH1 0x1F SWAP1 DUP3 ADD MSTORE PUSH32 0x4D616C666F726D65642063757272656E742076616C696461746F722073657400 PUSH1 0x40 DUP3 ADD MSTORE PUSH1 0x60 ADD SWAP1 JUMP JUMPDEST PUSH1 0x20 DUP1 DUP3 MSTORE PUSH1 0x1F SWAP1 DUP3 ADD MSTORE PUSH32 0x5265656E7472616E637947756172643A207265656E7472616E742063616C6C00 PUSH1 0x40 DUP3 ADD MSTORE PUSH1 0x60 ADD SWAP1 JUMP JUMPDEST PUSH1 0x0 DUP5 DUP3 MSTORE PUSH1 0x60 PUSH1 0x20 DUP4 ADD MSTORE PUSH3 0x22D6 PUSH1 0x60 DUP4 ADD DUP6 PUSH3 0x1A79 JUMP JUMPDEST DUP3 DUP2 SUB PUSH1 0x40 DUP5 ADD MSTORE PUSH3 0x22EA DUP2 DUP6 PUSH3 0x1ABE JUMP JUMPDEST SWAP7 SWAP6 POP POP POP POP POP POP JUMP JUMPDEST SWAP2 DUP3 MSTORE PUSH1 0x20 DUP3 ADD MSTORE PUSH1 0x40 ADD SWAP1 JUMP JUMPDEST PUSH1 0x40 MLOAD DUP2 DUP2 ADD PUSH1 0x1 PUSH1 0x1 PUSH1 0x40 SHL SUB DUP2 GT DUP3 DUP3 LT OR ISZERO PUSH3 0x2321 JUMPI PUSH1 0x0 DUP1 REVERT JUMPDEST PUSH1 0x40 MSTORE SWAP2 SWAP1 POP JUMP JUMPDEST PUSH1 0x0 PUSH1 0x1 PUSH1 0x1 PUSH1 0x40 SHL SUB DUP3 GT ISZERO PUSH3 0x233F JUMPI DUP1 DUP2 REVERT JUMPDEST POP PUSH1 0x20 SWAP1 DUP2 MUL ADD SWAP1 JUMP JUMPDEST PUSH1 0x0 JUMPDEST DUP4 DUP2 LT ISZERO PUSH3 0x2366 JUMPI DUP2 DUP2 ADD MLOAD DUP4 DUP3 ADD MSTORE PUSH1 0x20 ADD PUSH3 0x234C JUMP JUMPDEST DUP4 DUP2 GT ISZERO PUSH3 0xE67 JUMPI POP POP PUSH1 0x0 SWAP2 ADD MSTORE JUMP INVALID PUSH1 0x80 PUSH1 0x40 MSTORE PUSH1 0x0 NOT PUSH1 0x6 SSTORE CALLVALUE DUP1 ISZERO PUSH3 0x17 JUMPI PUSH1 0x0 DUP1 REVERT JUMPDEST POP PUSH1 0x40 MLOAD PUSH3 0xE7C CODESIZE SUB DUP1 PUSH3 0xE7C DUP4 CODECOPY DUP2 DUP2 ADD PUSH1 0x40 MSTORE PUSH1 0x80 DUP2 LT ISZERO PUSH3 0x3D JUMPI PUSH1 0x0 DUP1 REVERT JUMPDEST DUP2 MLOAD PUSH1 0x20 DUP4 ADD DUP1 MLOAD PUSH1 0x40 MLOAD SWAP3 SWAP5 SWAP3 SWAP4 DUP4 ADD SWAP3 SWAP2 SWAP1 DUP5 PUSH5 0x100000000 DUP3 GT ISZERO PUSH3 0x65 JUMPI PUSH1 0x0 DUP1 REVERT JUMPDEST SWAP1 DUP4 ADD SWAP1 PUSH1 0x20 DUP3 ADD DUP6 DUP2 GT ISZERO PUSH3 0x7B JUMPI PUSH1 0x0 DUP1 REVERT JUMPDEST DUP3 MLOAD PUSH5 0x100000000 DUP2 GT DUP3 DUP3 ADD DUP9 LT OR ISZERO PUSH3 0x96 JUMPI PUSH1 0x0 DUP1 REVERT JUMPDEST DUP3 MSTORE POP DUP2 MLOAD PUSH1 0x20 SWAP2 DUP3 ADD SWAP3 SWAP1 SWAP2 ADD SWAP1 DUP1 DUP4 DUP4 PUSH1 0x0 JUMPDEST DUP4 DUP2 LT ISZERO PUSH3 0xC5 JUMPI DUP2 DUP2 ADD MLOAD DUP4 DUP3 ADD MSTORE PUSH1 0x20 ADD PUSH3 0xAB JUMP JUMPDEST POP POP POP POP SWAP1 POP SWAP1 DUP2 ADD SWAP1 PUSH1 0x1F AND DUP1 ISZERO PUSH3 0xF3 JUMPI DUP1 DUP3 SUB DUP1 MLOAD PUSH1 0x1 DUP4 PUSH1 0x20 SUB PUSH2 0x100 EXP SUB NOT AND DUP2 MSTORE PUSH1 0x20 ADD SWAP2 POP JUMPDEST POP PUSH1 0x40 MSTORE PUSH1 0x20 ADD DUP1 MLOAD PUSH1 0x40 MLOAD SWAP4 SWAP3 SWAP2 SWAP1 DUP5 PUSH5 0x100000000 DUP3 GT ISZERO PUSH3 0x117 JUMPI PUSH1 0x0 DUP1 REVERT JUMPDEST SWAP1 DUP4 ADD SWAP1 PUSH1 0x20 DUP3 ADD DUP6 DUP2 GT ISZERO PUSH3 0x12D JUMPI PUSH1 0x0 DUP1 REVERT JUMPDEST DUP3 MLOAD PUSH5 0x100000000 DUP2 GT DUP3 DUP3 ADD DUP9 LT OR ISZERO PUSH3 0x148 JUMPI PUSH1 0x0 DUP1 REVERT JUMPDEST DUP3 MSTORE POP DUP2 MLOAD PUSH1 0x20 SWAP2 DUP3 ADD SWAP3 SWAP1 SWAP2 ADD SWAP1 DUP1 DUP4 DUP4 PUSH1 0x0 JUMPDEST DUP4 DUP2 LT ISZERO PUSH3 0x177 JUMPI DUP2 DUP2 ADD MLOAD DUP4 DUP3 ADD MSTORE PUSH1 0x20 ADD PUSH3 0x15D JUMP JUMPDEST POP POP POP POP SWAP1 POP SWAP1 DUP2 ADD SWAP1 PUSH1 0x1F AND DUP1 ISZERO PUSH3 0x1A5 JUMPI DUP1 DUP3 SUB DUP1 MLOAD PUSH1 0x1 DUP4 PUSH1 0x20 SUB PUSH2 0x100 EXP SUB NOT AND DUP2 MSTORE PUSH1 0x20 ADD SWAP2 POP JUMPDEST POP PUSH1 0x40 MSTORE PUSH1 0x20 SWAP1 DUP2 ADD MLOAD DUP6 MLOAD SWAP1 SWAP4 POP DUP6 SWAP3 POP DUP5 SWAP2 PUSH3 0x1CA SWAP2 PUSH1 0x3 SWAP2 DUP6 ADD SWAP1 PUSH3 0x3B7 JUMP JUMPDEST POP DUP1 MLOAD PUSH3 0x1E0 SWAP1 PUSH1 0x4 SWAP1 PUSH1 0x20 DUP5 ADD SWAP1 PUSH3 0x3B7 JUMP JUMPDEST POP POP PUSH1 0x5 DUP1 SLOAD PUSH1 0xFF NOT AND PUSH1 0x12 OR SWAP1 SSTORE POP PUSH3 0x204 DUP2 PUSH1 0x1 PUSH1 0x1 PUSH1 0xE0 SHL SUB PUSH3 0x222 AND JUMP JUMPDEST PUSH3 0x218 DUP5 PUSH1 0x6 SLOAD PUSH3 0x238 PUSH1 0x20 SHL PUSH1 0x20 SHR JUMP JUMPDEST POP POP POP POP PUSH3 0x45C JUMP JUMPDEST PUSH1 0x5 DUP1 SLOAD PUSH1 0xFF NOT AND PUSH1 0xFF SWAP3 SWAP1 SWAP3 AND SWAP2 SWAP1 SWAP2 OR SWAP1 SSTORE JUMP JUMPDEST PUSH1 0x1 PUSH1 0x1 PUSH1 0xA0 SHL SUB DUP3 AND PUSH3 0x294 JUMPI PUSH1 0x40 DUP1 MLOAD PUSH3 0x461BCD PUSH1 0xE5 SHL DUP2 MSTORE PUSH1 0x20 PUSH1 0x4 DUP3 ADD MSTORE PUSH1 0x1F PUSH1 0x24 DUP3 ADD MSTORE PUSH32 0x45524332303A206D696E7420746F20746865207A65726F206164647265737300 PUSH1 0x44 DUP3 ADD MSTORE SWAP1 MLOAD SWAP1 DUP2 SWAP1 SUB PUSH1 0x64 ADD SWAP1 REVERT JUMPDEST PUSH3 0x2AB PUSH1 0x0 DUP4 DUP4 PUSH1 0x1 PUSH1 0x1 PUSH1 0xE0 SHL SUB PUSH3 0x350 AND JUMP JUMPDEST PUSH3 0x2C7 DUP2 PUSH1 0x2 SLOAD PUSH3 0x355 PUSH1 0x20 SHL PUSH3 0x873 OR SWAP1 SWAP2 SWAP1 PUSH1 0x20 SHR JUMP JUMPDEST PUSH1 0x2 SSTORE PUSH1 0x1 PUSH1 0x1 PUSH1 0xA0 SHL SUB DUP3 AND PUSH1 0x0 SWAP1 DUP2 MSTORE PUSH1 0x20 DUP2 DUP2 MSTORE PUSH1 0x40 SWAP1 SWAP2 KECCAK256 SLOAD PUSH3 0x2FA SWAP2 DUP4 SWAP1 PUSH3 0x873 PUSH3 0x355 DUP3 SHL OR SWAP1 SHR JUMP JUMPDEST PUSH1 0x1 PUSH1 0x1 PUSH1 0xA0 SHL SUB DUP4 AND PUSH1 0x0 DUP2 DUP2 MSTORE PUSH1 0x20 DUP2 DUP2 MSTORE PUSH1 0x40 DUP1 DUP4 KECCAK256 SWAP5 SWAP1 SWAP5 SSTORE DUP4 MLOAD DUP6 DUP2 MSTORE SWAP4 MLOAD SWAP3 SWAP4 SWAP2 SWAP3 PUSH32 0xDDF252AD1BE2C89B69C2B068FC378DAA952BA7F163C4A11628F55A4DF523B3EF SWAP3 DUP2 SWAP1 SUB SWAP1 SWAP2 ADD SWAP1 LOG3 POP POP JUMP JUMPDEST POP POP POP JUMP JUMPDEST PUSH1 0x0 DUP3 DUP3 ADD DUP4 DUP2 LT ISZERO PUSH3 0x3B0 JUMPI PUSH1 0x40 DUP1 MLOAD PUSH3 0x461BCD PUSH1 0xE5 SHL DUP2 MSTORE PUSH1 0x20 PUSH1 0x4 DUP3 ADD MSTORE PUSH1 0x1B PUSH1 0x24 DUP3 ADD MSTORE PUSH32 0x536166654D6174683A206164646974696F6E206F766572666C6F770000000000 PUSH1 0x44 DUP3 ADD MSTORE SWAP1 MLOAD SWAP1 DUP2 SWAP1 SUB PUSH1 0x64 ADD SWAP1 REVERT JUMPDEST SWAP4 SWAP3 POP POP POP JUMP JUMPDEST DUP3 DUP1 SLOAD PUSH1 0x1 DUP2 PUSH1 0x1 AND ISZERO PUSH2 0x100 MUL SUB AND PUSH1 0x2 SWAP1 DIV SWAP1 PUSH1 0x0 MSTORE PUSH1 0x20 PUSH1 0x0 KECCAK256 SWAP1 PUSH1 0x1F ADD PUSH1 0x20 SWAP1 DIV DUP2 ADD SWAP3 DUP3 PUSH1 0x1F LT PUSH3 0x3FA JUMPI DUP1 MLOAD PUSH1 0xFF NOT AND DUP4 DUP1 ADD OR DUP6 SSTORE PUSH3 0x42A JUMP JUMPDEST DUP3 DUP1 ADD PUSH1 0x1 ADD DUP6 SSTORE DUP3 ISZERO PUSH3 0x42A JUMPI SWAP2 DUP3 ADD JUMPDEST DUP3 DUP2 GT ISZERO PUSH3 0x42A JUMPI DUP3 MLOAD DUP3 SSTORE SWAP2 PUSH1 0x20 ADD SWAP2 SWAP1 PUSH1 0x1 ADD SWAP1 PUSH3 0x40D JUMP JUMPDEST POP PUSH3 0x438 SWAP3 SWAP2 POP PUSH3 0x43C JUMP JUMPDEST POP SWAP1 JUMP JUMPDEST PUSH3 0x459 SWAP2 SWAP1 JUMPDEST DUP1 DUP3 GT ISZERO PUSH3 0x438 JUMPI PUSH1 0x0 DUP2 SSTORE PUSH1 0x1 ADD PUSH3 0x443 JUMP JUMPDEST SWAP1 JUMP JUMPDEST PUSH2 0xA10 DUP1 PUSH3 0x46C PUSH1 0x0 CODECOPY PUSH1 0x0 RETURN INVALID PUSH1 0x80 PUSH1 0x40 MSTORE CALLVALUE DUP1 ISZERO PUSH2 0x10 JUMPI PUSH1 0x0 DUP1 REVERT JUMPDEST POP PUSH1 0x4 CALLDATASIZE LT PUSH2 0xA9 JUMPI PUSH1 0x0 CALLDATALOAD PUSH1 0xE0 SHR DUP1 PUSH4 0x39509351 GT PUSH2 0x71 JUMPI DUP1 PUSH4 0x39509351 EQ PUSH2 0x1D9 JUMPI DUP1 PUSH4 0x70A08231 EQ PUSH2 0x205 JUMPI DUP1 PUSH4 0x95D89B41 EQ PUSH2 0x22B JUMPI DUP1 PUSH4 0xA457C2D7 EQ PUSH2 0x233 JUMPI DUP1 PUSH4 0xA9059CBB EQ PUSH2 0x25F JUMPI DUP1 PUSH4 0xDD62ED3E EQ PUSH2 0x28B JUMPI PUSH2 0xA9 JUMP JUMPDEST DUP1 PUSH4 0x6FDDE03 EQ PUSH2 0xAE JUMPI DUP1 PUSH4 0x95EA7B3 EQ PUSH2 0x12B JUMPI DUP1 PUSH4 0x18160DDD EQ PUSH2 0x16B JUMPI DUP1 PUSH4 0x23B872DD EQ PUSH2 0x185 JUMPI DUP1 PUSH4 0x313CE567 EQ PUSH2 0x1BB JUMPI JUMPDEST PUSH1 0x0 DUP1 REVERT JUMPDEST PUSH2 0xB6 PUSH2 0x2B9 JUMP JUMPDEST PUSH1 0x40 DUP1 MLOAD PUSH1 0x20 DUP1 DUP3 MSTORE DUP4 MLOAD DUP2 DUP4 ADD MSTORE DUP4 MLOAD SWAP2 SWAP3 DUP4 SWAP3 SWAP1 DUP4 ADD SWAP2 DUP6 ADD SWAP1 DUP1 DUP4 DUP4 PUSH1 0x0 JUMPDEST DUP4 DUP2 LT ISZERO PUSH2 0xF0 JUMPI DUP2 DUP2 ADD MLOAD DUP4 DUP3 ADD MSTORE PUSH1 0x20 ADD PUSH2 0xD8 JUMP JUMPDEST POP POP POP POP SWAP1 POP SWAP1 DUP2 ADD SWAP1 PUSH1 0x1F AND DUP1 ISZERO PUSH2 0x11D JUMPI DUP1 DUP3 SUB DUP1 MLOAD PUSH1 0x1 DUP4 PUSH1 0x20 SUB PUSH2 0x100 EXP SUB NOT AND DUP2 MSTORE PUSH1 0x20 ADD SWAP2 POP JUMPDEST POP SWAP3 POP POP POP PUSH1 0x40 MLOAD DUP1 SWAP2 SUB SWAP1 RETURN JUMPDEST PUSH2 0x157 PUSH1 0x4 DUP1 CALLDATASIZE SUB PUSH1 0x40 DUP2 LT ISZERO PUSH2 0x141 JUMPI PUSH1 0x0 DUP1 REVERT JUMPDEST POP PUSH1 0x1 PUSH1 0x1 PUSH1 0xA0 SHL SUB DUP2 CALLDATALOAD AND SWAP1 PUSH1 0x20 ADD CALLDATALOAD PUSH2 0x34F JUMP JUMPDEST PUSH1 0x40 DUP1 MLOAD SWAP2 ISZERO ISZERO DUP3 MSTORE MLOAD SWAP1 DUP2 SWAP1 SUB PUSH1 0x20 ADD SWAP1 RETURN JUMPDEST PUSH2 0x173 PUSH2 0x36C JUMP JUMPDEST PUSH1 0x40 DUP1 MLOAD SWAP2 DUP3 MSTORE MLOAD SWAP1 DUP2 SWAP1 SUB PUSH1 0x20 ADD SWAP1 RETURN JUMPDEST PUSH2 0x157 PUSH1 0x4 DUP1 CALLDATASIZE SUB PUSH1 0x60 DUP2 LT ISZERO PUSH2 0x19B JUMPI PUSH1 0x0 DUP1 REVERT JUMPDEST POP PUSH1 0x1 PUSH1 0x1 PUSH1 0xA0 SHL SUB DUP2 CALLDATALOAD DUP2 AND SWAP2 PUSH1 0x20 DUP2 ADD CALLDATALOAD SWAP1 SWAP2 AND SWAP1 PUSH1 0x40 ADD CALLDATALOAD PUSH2 0x372 JUMP JUMPDEST PUSH2 0x1C3 PUSH2 0x3FF JUMP JUMPDEST PUSH1 0x40 DUP1 MLOAD PUSH1 0xFF SWAP1 SWAP3 AND DUP3 MSTORE MLOAD SWAP1 DUP2 SWAP1 SUB PUSH1 0x20 ADD SWAP1 RETURN JUMPDEST PUSH2 0x157 PUSH1 0x4 DUP1 CALLDATASIZE SUB PUSH1 0x40 DUP2 LT ISZERO PUSH2 0x1EF JUMPI PUSH1 0x0 DUP1 REVERT JUMPDEST POP PUSH1 0x1 PUSH1 0x1 PUSH1 0xA0 SHL SUB DUP2 CALLDATALOAD AND SWAP1 PUSH1 0x20 ADD CALLDATALOAD PUSH2 0x408 JUMP JUMPDEST PUSH2 0x173 PUSH1 0x4 DUP1 CALLDATASIZE SUB PUSH1 0x20 DUP2 LT ISZERO PUSH2 0x21B JUMPI PUSH1 0x0 DUP1 REVERT JUMPDEST POP CALLDATALOAD PUSH1 0x1 PUSH1 0x1 PUSH1 0xA0 SHL SUB AND PUSH2 0x45C JUMP JUMPDEST PUSH2 0xB6 PUSH2 0x477 JUMP JUMPDEST PUSH2 0x157 PUSH1 0x4 DUP1 CALLDATASIZE SUB PUSH1 0x40 DUP2 LT ISZERO PUSH2 0x249 JUMPI PUSH1 0x0 DUP1 REVERT JUMPDEST POP PUSH1 0x1 PUSH1 0x1 PUSH1 0xA0 SHL SUB DUP2 CALLDATALOAD AND SWAP1 PUSH1 0x20 ADD CALLDATALOAD PUSH2 0x4D8 JUMP JUMPDEST PUSH2 0x157 PUSH1 0x4 DUP1 CALLDATASIZE SUB PUSH1 0x40 DUP2 LT ISZERO PUSH2 0x275 JUMPI PUSH1 0x0 DUP1 REVERT JUMPDEST POP PUSH1 0x1 PUSH1 0x1 PUSH1 0xA0 SHL SUB DUP2 CALLDATALOAD AND SWAP1 PUSH1 0x20 ADD CALLDATALOAD PUSH2 0x546 JUMP JUMPDEST PUSH2 0x173 PUSH1 0x4 DUP1 CALLDATASIZE SUB PUSH1 0x40 DUP2 LT ISZERO PUSH2 0x2A1 JUMPI PUSH1 0x0 DUP1 REVERT JUMPDEST POP PUSH1 0x1 PUSH1 0x1 PUSH1 0xA0 SHL SUB DUP2 CALLDATALOAD DUP2 AND SWAP2 PUSH1 0x20 ADD CALLDATALOAD AND PUSH2 0x55A JUMP JUMPDEST PUSH1 0x3 DUP1 SLOAD PUSH1 0x40 DUP1 MLOAD PUSH1 0x20 PUSH1 0x1F PUSH1 0x2 PUSH1 0x0 NOT PUSH2 0x100 PUSH1 0x1 DUP9 AND ISZERO MUL ADD SWAP1 SWAP6 AND SWAP5 SWAP1 SWAP5 DIV SWAP4 DUP5 ADD DUP2 SWAP1 DIV DUP2 MUL DUP3 ADD DUP2 ADD SWAP1 SWAP3 MSTORE DUP3 DUP2 MSTORE PUSH1 0x60 SWAP4 SWAP1 SWAP3 SWAP1 SWAP2 DUP4 ADD DUP3 DUP3 DUP1 ISZERO PUSH2 0x345 JUMPI DUP1 PUSH1 0x1F LT PUSH2 0x31A JUMPI PUSH2 0x100 DUP1 DUP4 SLOAD DIV MUL DUP4 MSTORE SWAP2 PUSH1 0x20 ADD SWAP2 PUSH2 0x345 JUMP JUMPDEST DUP3 ADD SWAP2 SWAP1 PUSH1 0x0 MSTORE PUSH1 0x20 PUSH1 0x0 KECCAK256 SWAP1 JUMPDEST DUP2 SLOAD DUP2 MSTORE SWAP1 PUSH1 0x1 ADD SWAP1 PUSH1 0x20 ADD DUP1 DUP4 GT PUSH2 0x328 JUMPI DUP3 SWAP1 SUB PUSH1 0x1F AND DUP3 ADD SWAP2 JUMPDEST POP POP POP POP POP SWAP1 POP SWAP1 JUMP JUMPDEST PUSH1 0x0 PUSH2 0x363 PUSH2 0x35C PUSH2 0x585 JUMP JUMPDEST DUP5 DUP5 PUSH2 0x589 JUMP JUMPDEST POP PUSH1 0x1 SWAP3 SWAP2 POP POP JUMP JUMPDEST PUSH1 0x2 SLOAD SWAP1 JUMP JUMPDEST PUSH1 0x0 PUSH2 0x37F DUP5 DUP5 DUP5 PUSH2 0x675 JUMP JUMPDEST PUSH2 0x3F5 DUP5 PUSH2 0x38B PUSH2 0x585 JUMP JUMPDEST PUSH2 0x3F0 DUP6 PUSH1 0x40 MLOAD DUP1 PUSH1 0x60 ADD PUSH1 0x40 MSTORE DUP1 PUSH1 0x28 DUP2 MSTORE PUSH1 0x20 ADD PUSH2 0x945 PUSH1 0x28 SWAP2 CODECOPY PUSH1 0x1 PUSH1 0x1 PUSH1 0xA0 SHL SUB DUP11 AND PUSH1 0x0 SWAP1 DUP2 MSTORE PUSH1 0x1 PUSH1 0x20 MSTORE PUSH1 0x40 DUP2 KECCAK256 SWAP1 PUSH2 0x3C9 PUSH2 0x585 JUMP JUMPDEST PUSH1 0x1 PUSH1 0x1 PUSH1 0xA0 SHL SUB AND DUP2 MSTORE PUSH1 0x20 DUP2 ADD SWAP2 SWAP1 SWAP2 MSTORE PUSH1 0x40 ADD PUSH1 0x0 KECCAK256 SLOAD SWAP2 SWAP1 PUSH4 0xFFFFFFFF PUSH2 0x7DC AND JUMP JUMPDEST PUSH2 0x589 JUMP JUMPDEST POP PUSH1 0x1 SWAP4 SWAP3 POP POP POP JUMP JUMPDEST PUSH1 0x5 SLOAD PUSH1 0xFF AND SWAP1 JUMP JUMPDEST PUSH1 0x0 PUSH2 0x363 PUSH2 0x415 PUSH2 0x585 JUMP JUMPDEST DUP5 PUSH2 0x3F0 DUP6 PUSH1 0x1 PUSH1 0x0 PUSH2 0x426 PUSH2 0x585 JUMP JUMPDEST PUSH1 0x1 PUSH1 0x1 PUSH1 0xA0 SHL SUB SWAP1 DUP2 AND DUP3 MSTORE PUSH1 0x20 DUP1 DUP4 ADD SWAP4 SWAP1 SWAP4 MSTORE PUSH1 0x40 SWAP2 DUP3 ADD PUSH1 0x0 SWAP1 DUP2 KECCAK256 SWAP2 DUP13 AND DUP2 MSTORE SWAP3 MSTORE SWAP1 KECCAK256 SLOAD SWAP1 PUSH4 0xFFFFFFFF PUSH2 0x873 AND JUMP JUMPDEST PUSH1 0x1 PUSH1 0x1 PUSH1 0xA0 SHL SUB AND PUSH1 0x0 SWAP1 DUP2 MSTORE PUSH1 0x20 DUP2 SWAP1 MSTORE PUSH1 0x40 SWAP1 KECCAK256 SLOAD SWAP1 JUMP JUMPDEST PUSH1 0x4 DUP1 SLOAD PUSH1 0x40 DUP1 MLOAD PUSH1 0x20 PUSH1 0x1F PUSH1 0x2 PUSH1 0x0 NOT PUSH2 0x100 PUSH1 0x1 DUP9 AND ISZERO MUL ADD SWAP1 SWAP6 AND SWAP5 SWAP1 SWAP5 DIV SWAP4 DUP5 ADD DUP2 SWAP1 DIV DUP2 MUL DUP3 ADD DUP2 ADD SWAP1 SWAP3 MSTORE DUP3 DUP2 MSTORE PUSH1 0x60 SWAP4 SWAP1 SWAP3 SWAP1 SWAP2 DUP4 ADD DUP3 DUP3 DUP1 ISZERO PUSH2 0x345 JUMPI DUP1 PUSH1 0x1F LT PUSH2 0x31A JUMPI PUSH2 0x100 DUP1 DUP4 SLOAD DIV MUL DUP4 MSTORE SWAP2 PUSH1 0x20 ADD SWAP2 PUSH2 0x345 JUMP JUMPDEST PUSH1 0x0 PUSH2 0x363 PUSH2 0x4E5 PUSH2 0x585 JUMP JUMPDEST DUP5 PUSH2 0x3F0 DUP6 PUSH1 0x40 MLOAD DUP1 PUSH1 0x60 ADD PUSH1 0x40 MSTORE DUP1 PUSH1 0x25 DUP2 MSTORE PUSH1 0x20 ADD PUSH2 0x9B6 PUSH1 0x25 SWAP2 CODECOPY PUSH1 0x1 PUSH1 0x0 PUSH2 0x50F PUSH2 0x585 JUMP JUMPDEST PUSH1 0x1 PUSH1 0x1 PUSH1 0xA0 SHL SUB SWAP1 DUP2 AND DUP3 MSTORE PUSH1 0x20 DUP1 DUP4 ADD SWAP4 SWAP1 SWAP4 MSTORE PUSH1 0x40 SWAP2 DUP3 ADD PUSH1 0x0 SWAP1 DUP2 KECCAK256 SWAP2 DUP14 AND DUP2 MSTORE SWAP3 MSTORE SWAP1 KECCAK256 SLOAD SWAP2 SWAP1 PUSH4 0xFFFFFFFF PUSH2 0x7DC AND JUMP JUMPDEST PUSH1 0x0 PUSH2 0x363 PUSH2 0x553 PUSH2 0x585 JUMP JUMPDEST DUP5 DUP5 PUSH2 0x675 JUMP JUMPDEST PUSH1 0x1 PUSH1 0x1 PUSH1 0xA0 SHL SUB SWAP2 DUP3 AND PUSH1 0x0 SWAP1 DUP2 MSTORE PUSH1 0x1 PUSH1 0x20 SWAP1 DUP2 MSTORE PUSH1 0x40 DUP1 DUP4 KECCAK256 SWAP4 SWAP1 SWAP5 AND DUP3 MSTORE SWAP2 SWAP1 SWAP2 MSTORE KECCAK256 SLOAD SWAP1 JUMP JUMPDEST CALLER SWAP1 JUMP JUMPDEST PUSH1 0x1 PUSH1 0x1 PUSH1 0xA0 SHL SUB DUP4 AND PUSH2 0x5CE JUMPI PUSH1 0x40 MLOAD PUSH3 0x461BCD PUSH1 0xE5 SHL DUP2 MSTORE PUSH1 0x4 ADD DUP1 DUP1 PUSH1 0x20 ADD DUP3 DUP2 SUB DUP3 MSTORE PUSH1 0x24 DUP2 MSTORE PUSH1 0x20 ADD DUP1 PUSH2 0x992 PUSH1 0x24 SWAP2 CODECOPY PUSH1 0x40 ADD SWAP2 POP POP PUSH1 0x40 MLOAD DUP1 SWAP2 SUB SWAP1 REVERT JUMPDEST PUSH1 0x1 PUSH1 0x1 PUSH1 0xA0 SHL SUB DUP3 AND PUSH2 0x613 JUMPI PUSH1 0x40 MLOAD PUSH3 0x461BCD PUSH1 0xE5 SHL DUP2 MSTORE PUSH1 0x4 ADD DUP1 DUP1 PUSH1 0x20 ADD DUP3 DUP2 SUB DUP3 MSTORE PUSH1 0x22 DUP2 MSTORE PUSH1 0x20 ADD DUP1 PUSH2 0x8FD PUSH1 0x22 SWAP2 CODECOPY PUSH1 0x40 ADD SWAP2 POP POP PUSH1 0x40 MLOAD DUP1 SWAP2 SUB SWAP1 REVERT JUMPDEST PUSH1 0x1 PUSH1 0x1 PUSH1 0xA0 SHL SUB DUP1 DUP5 AND PUSH1 0x0 DUP2 DUP2 MSTORE PUSH1 0x1 PUSH1 0x20 SWAP1 DUP2 MSTORE PUSH1 0x40 DUP1 DUP4 KECCAK256 SWAP5 DUP8 AND DUP1 DUP5 MSTORE SWAP5 DUP3 MSTORE SWAP2 DUP3 SWAP1 KECCAK256 DUP6 SWAP1 SSTORE DUP2 MLOAD DUP6 DUP2 MSTORE SWAP2 MLOAD PUSH32 0x8C5BE1E5EBEC7D5BD14F71427D1E84F3DD0314C0F7B2291E5B200AC8C7C3B925 SWAP3 DUP2 SWAP1 SUB SWAP1 SWAP2 ADD SWAP1 LOG3 POP POP POP JUMP JUMPDEST PUSH1 0x1 PUSH1 0x1 PUSH1 0xA0 SHL SUB DUP4 AND PUSH2 0x6BA JUMPI PUSH1 0x40 MLOAD PUSH3 0x461BCD PUSH1 0xE5 SHL DUP2 MSTORE PUSH1 0x4 ADD DUP1 DUP1 PUSH1 0x20 ADD DUP3 DUP2 SUB DUP3 MSTORE PUSH1 0x25 DUP2 MSTORE PUSH1 0x20 ADD DUP1 PUSH2 0x96D PUSH1 0x25 SWAP2 CODECOPY PUSH1 0x40 ADD SWAP2 POP POP PUSH1 0x40 MLOAD DUP1 SWAP2 SUB SWAP1 REVERT JUMPDEST PUSH1 0x1 PUSH1 0x1 PUSH1 0xA0 SHL SUB DUP3 AND PUSH2 0x6FF JUMPI PUSH1 0x40 MLOAD PUSH3 0x461BCD PUSH1 0xE5 SHL DUP2 MSTORE PUSH1 0x4 ADD DUP1 DUP1 PUSH1 0x20 ADD DUP3 DUP2 SUB DUP3 MSTORE PUSH1 0x23 DUP2 MSTORE PUSH1 0x20 ADD DUP1 PUSH2 0x8DA PUSH1 0x23 SWAP2 CODECOPY PUSH1 0x40 ADD SWAP2 POP POP PUSH1 0x40 MLOAD DUP1 SWAP2 SUB SWAP1 REVERT JUMPDEST PUSH2 0x70A DUP4 DUP4 DUP4 PUSH2 0x8D4 JUMP JUMPDEST PUSH2 0x74D DUP2 PUSH1 0x40 MLOAD DUP1 PUSH1 0x60 ADD PUSH1 0x40 MSTORE DUP1 PUSH1 0x26 DUP2 MSTORE PUSH1 0x20 ADD PUSH2 0x91F PUSH1 0x26 SWAP2 CODECOPY PUSH1 0x1 PUSH1 0x1 PUSH1 0xA0 SHL SUB DUP7 AND PUSH1 0x0 SWAP1 DUP2 MSTORE PUSH1 0x20 DUP2 SWAP1 MSTORE PUSH1 0x40 SWAP1 KECCAK256 SLOAD SWAP2 SWAP1 PUSH4 0xFFFFFFFF PUSH2 0x7DC AND JUMP JUMPDEST PUSH1 0x1 PUSH1 0x1 PUSH1 0xA0 SHL SUB DUP1 DUP6 AND PUSH1 0x0 SWAP1 DUP2 MSTORE PUSH1 0x20 DUP2 SWAP1 MSTORE PUSH1 0x40 DUP1 DUP3 KECCAK256 SWAP4 SWAP1 SWAP4 SSTORE SWAP1 DUP5 AND DUP2 MSTORE KECCAK256 SLOAD PUSH2 0x782 SWAP1 DUP3 PUSH4 0xFFFFFFFF PUSH2 0x873 AND JUMP JUMPDEST PUSH1 0x1 PUSH1 0x1 PUSH1 0xA0 SHL SUB DUP1 DUP5 AND PUSH1 0x0 DUP2 DUP2 MSTORE PUSH1 0x20 DUP2 DUP2 MSTORE PUSH1 0x40 SWAP2 DUP3 SWAP1 KECCAK256 SWAP5 SWAP1 SWAP5 SSTORE DUP1 MLOAD DUP6 DUP2 MSTORE SWAP1 MLOAD SWAP2 SWAP4 SWAP3 DUP8 AND SWAP3 PUSH32 0xDDF252AD1BE2C89B69C2B068FC378DAA952BA7F163C4A11628F55A4DF523B3EF SWAP3 SWAP2 DUP3 SWAP1 SUB ADD SWAP1 LOG3 POP POP POP JUMP JUMPDEST PUSH1 0x0 DUP2 DUP5 DUP5 GT ISZERO PUSH2 0x86B JUMPI PUSH1 0x40 MLOAD PUSH3 0x461BCD PUSH1 0xE5 SHL DUP2 MSTORE PUSH1 0x4 ADD DUP1 DUP1 PUSH1 0x20 ADD DUP3 DUP2 SUB DUP3 MSTORE DUP4 DUP2 DUP2 MLOAD DUP2 MSTORE PUSH1 0x20 ADD SWAP2 POP DUP1 MLOAD SWAP1 PUSH1 0x20 ADD SWAP1 DUP1 DUP4 DUP4 PUSH1 0x0 JUMPDEST DUP4 DUP2 LT ISZERO PUSH2 0x830 JUMPI DUP2 DUP2 ADD MLOAD DUP4 DUP3 ADD MSTORE PUSH1 0x20 ADD PUSH2 0x818 JUMP JUMPDEST POP POP POP POP SWAP1 POP SWAP1 DUP2 ADD SWAP1 PUSH1 0x1F AND DUP1 ISZERO PUSH2 0x85D JUMPI DUP1 DUP3 SUB DUP1 MLOAD PUSH1 0x1 DUP4 PUSH1 0x20 SUB PUSH2 0x100 EXP SUB NOT AND DUP2 MSTORE PUSH1 0x20 ADD SWAP2 POP JUMPDEST POP SWAP3 POP POP POP PUSH1 0x40 MLOAD DUP1 SWAP2 SUB SWAP1 REVERT JUMPDEST POP POP POP SWAP1 SUB SWAP1 JUMP JUMPDEST PUSH1 0x0 DUP3 DUP3 ADD DUP4 DUP2 LT ISZERO PUSH2 0x8CD JUMPI PUSH1 0x40 DUP1 MLOAD PUSH3 0x461BCD PUSH1 0xE5 SHL DUP2 MSTORE PUSH1 0x20 PUSH1 0x4 DUP3 ADD MSTORE PUSH1 0x1B PUSH1 0x24 DUP3 ADD MSTORE PUSH32 0x536166654D6174683A206164646974696F6E206F766572666C6F770000000000 PUSH1 0x44 DUP3 ADD MSTORE SWAP1 MLOAD SWAP1 DUP2 SWAP1 SUB PUSH1 0x64 ADD SWAP1 REVERT JUMPDEST SWAP4 SWAP3 POP POP POP JUMP JUMPDEST POP POP POP JUMP INVALID GASLIMIT MSTORE NUMBER ORIGIN ADDRESS GASPRICE KECCAK256 PUSH21 0x72616E7366657220746F20746865207A65726F2061 PUSH5 0x6472657373 GASLIMIT MSTORE NUMBER ORIGIN ADDRESS GASPRICE KECCAK256 PUSH2 0x7070 PUSH19 0x6F766520746F20746865207A65726F20616464 PUSH19 0x65737345524332303A207472616E7366657220 PUSH2 0x6D6F PUSH22 0x6E7420657863656564732062616C616E636545524332 ADDRESS GASPRICE KECCAK256 PUSH21 0x72616E7366657220616D6F756E7420657863656564 PUSH20 0x20616C6C6F77616E636545524332303A20747261 PUSH15 0x736665722066726F6D20746865207A PUSH6 0x726F20616464 PUSH19 0x65737345524332303A20617070726F76652066 PUSH19 0x6F6D20746865207A65726F2061646472657373 GASLIMIT MSTORE NUMBER ORIGIN ADDRESS GASPRICE KECCAK256 PUSH5 0x6563726561 PUSH20 0x656420616C6C6F77616E63652062656C6F77207A PUSH6 0x726FA2646970 PUSH7 0x73582212200561 DUP10 DIFFICULTY PUSH12 0xA73DD465B19CE8706C466A05 SGT 0x4D 0x28 0xBD RETURNDATACOPY 0xFB 0x27 PUSH24 0xAC79423B2A6B2264736F6C63430006060033A26469706673 PC 0x22 SLT KECCAK256 0x2C SWAP12 LOG3 PUSH6 0x7792A1E80341 0x24 0xE9 0xF8 0xD3 SLOAD PUSH28 0xED20892D4D185128A6FFA0E0E1D821D664736F6C6343000606003300 "
        },
        "methodIdentifiers": {
          "deployERC20(string,string,string,uint8)": "f7955637",
          "lastBatchNonce(address)": "011b2174",
          "lastLogicCallNonce(bytes32)": "c9d194d5",
          "sendToCosmos(address,bytes32,uint256)": "1ffbe7f9",
          "state_gravityId()": "bdda81d4",
          "state_invalidationMapping(bytes32)": "7dfb6f86",
          "state_lastBatchNonces(address)": "df97174b",
          "state_lastEventNonce()": "73b20547",
          "state_lastValsetCheckpoint()": "f2b53307",
          "state_lastValsetNonce()": "b56561fe",
          "state_powerThreshold()": "e5a2b5d2",
          "submitBatch(address[],uint256[],uint256,uint8[],bytes32[],bytes32[],uint256[],address[],uint256[],uint256,address,uint256)": "83b435db",
          "submitLogicCall(address[],uint256[],uint256,uint8[],bytes32[],bytes32[],(uint256[],address[],uint256[],address[],address,bytes,uint256,bytes32,uint256))": "0c246c82",
          "testCheckValidatorSignatures(address[],uint256[],uint8[],bytes32[],bytes32[],bytes32,uint256)": "db7c4e57",
          "testMakeCheckpoint(address[],uint256[],uint256,bytes32)": "c227c30b",
          "updateValset(address[],uint256[],uint256,address[],uint256[],uint256,uint8[],bytes32[],bytes32[])": "e3cb9f62"
        }
      }
    }
  }
}