{
  "_format": "hh-sol-artifact-1",
  "contractName": "BackBridge",
  "sourceName": "contracts/BackBridge.sol",
  "abi": [
    {
      "anonymous": false,
      "inputs": [
        {
          "indexed": true,
          "internalType": "address",
          "name": "_denom__eth_erc20",
          "type": "address"
        },
        {
          "indexed": true,
          "internalType": "address",
          "name": "_signer__amount",
          "type": "address"
        }
      ],
      "name": "MsgRequestBatchTx",
      "type": "event"
    },
    {
      "anonymous": false,
      "inputs": [
        {
          "indexed": true,
          "internalType": "address",
          "name": "_sender",
          "type": "address"
        },
        {
          "indexed": true,
          "internalType": "address",
          "name": "_ethereumRecipient",
          "type": "address"
        },
        {
          "indexed": true,
          "internalType": "address",
          "name": "_amount__eth_erc20",
          "type": "address"
        },
        {
          "indexed": false,
          "internalType": "uint256",
          "name": "_amount__amount",
          "type": "uint256"
        },
        {
          "indexed": false,
          "internalType": "address",
          "name": "_bridgeFee__eth_erc20",
          "type": "address"
        },
        {
          "indexed": false,
          "internalType": "uint256",
          "name": "_bridgeFee__amount",
          "type": "uint256"
        }
      ],
      "name": "MsgSendToEthereum",
      "type": "event"
    },
    {
      "inputs": [
        {
          "internalType": "address",
          "name": "denom__eth_erc20",
          "type": "address"
        }
      ],
      "name": "RequestBatchTx",
      "outputs": [],
      "stateMutability": "nonpayable",
      "type": "function"
    },
    {
      "inputs": [
        {
          "internalType": "address",
          "name": "ethereumRecipient",
          "type": "address"
        },
        {
          "internalType": "address",
          "name": "amount__eth_erc20",
          "type": "address"
        },
        {
          "internalType": "uint256",
          "name": "amount__amount",
          "type": "uint256"
        },
        {
          "internalType": "address",
          "name": "bridgeFee__eth_erc20",
          "type": "address"
        },
        {
          "internalType": "uint256",
          "name": "bridgeFee__amount",
          "type": "uint256"
        }
      ],
      "name": "SendToEthereum",
      "outputs": [],
      "stateMutability": "nonpayable",
      "type": "function"
    }
  ],
  "bytecode": "0x608060405234801561001057600080fd5b506101bf806100206000396000f3fe608060405234801561001057600080fd5b50600436106100365760003560e01c80638326d07f1461003b578063916c680314610050575b600080fd5b61004e610049366004610112565b610063565b005b61004e61005e366004610167565b6100bd565b604080518481526001600160a01b0384811660208301529181018390528186169187169033907f6aeaf9a22a235d86221176a04d07d260a265d8c791ba692578165fab112deed19060600160405180910390a45050505050565b60405133906001600160a01b038316907fe7a57df8cbd8d19c50c73aeb59ed428a35e5f70ec7d6332aae892e5bc3cb84ee90600090a350565b80356001600160a01b038116811461010d57600080fd5b919050565b600080600080600060a0868803121561012a57600080fd5b610133866100f6565b9450610141602087016100f6565b935060408601359250610156606087016100f6565b949793965091946080013592915050565b60006020828403121561017957600080fd5b610182826100f6565b939250505056fea26469706673582212204d1dd4f3a0f7666b8db576a451e0b859bd9671d6f7afb44ebeaa9c0ebb7279fa64736f6c63430008090033",
  "linkReferences": {},
  "deployedLinkReferences": {}
}