{
  "_format": "hh-sol-artifact-1",
  "contractName": "Gravity",
  "sourceName": "contracts/Gravity.sol",
  "abi": [
    {
      "inputs": [
        {
          "internalType": "bytes32",
          "name": "_gravityId",
          "type": "bytes32"
        },
        {
          "internalType": "uint256",
          "name": "_powerThreshold",
          "type": "uint256"
        },
        {
          "internalType": "address[]",
          "name": "_validators",
          "type": "address[]"
        },
        {
          "internalType": "uint256[]",
          "name": "_powers",
          "type": "uint256[]"
        }
      ],
      "stateMutability": "nonpayable",
      "type": "constructor"
    },
    {
      "anonymous": false,
      "inputs": [
        {
          "indexed": false,
          "internalType": "string",
          "name": "_cosmosDenom",
          "type": "string"
        },
        {
          "indexed": true,
          "internalType": "address",
          "name": "_tokenContract",
          "type": "address"
        },
        {
          "indexed": false,
          "internalType": "string",
          "name": "_name",
          "type": "string"
        },
        {
          "indexed": false,
          "internalType": "string",
          "name": "_symbol",
          "type": "string"
        },
        {
          "indexed": false,
          "internalType": "uint8",
          "name": "_decimals",
          "type": "uint8"
        },
        {
          "indexed": false,
          "internalType": "uint256",
          "name": "_eventNonce",
          "type": "uint256"
        }
      ],
      "name": "ERC20DeployedEvent",
      "type": "event"
    },
    {
      "anonymous": false,
      "inputs": [
        {
          "indexed": false,
          "internalType": "bytes32",
          "name": "_invalidationId",
          "type": "bytes32"
        },
        {
          "indexed": false,
          "internalType": "uint256",
          "name": "_invalidationNonce",
          "type": "uint256"
        },
        {
          "indexed": false,
          "internalType": "bytes",
          "name": "_returnData",
          "type": "bytes"
        },
        {
          "indexed": false,
          "internalType": "uint256",
          "name": "_eventNonce",
          "type": "uint256"
        }
      ],
      "name": "LogicCallEvent",
      "type": "event"
    },
    {
      "anonymous": false,
      "inputs": [
        {
          "indexed": true,
          "internalType": "address",
          "name": "_tokenContract",
          "type": "address"
        },
        {
          "indexed": true,
          "internalType": "address",
          "name": "_sender",
          "type": "address"
        },
        {
          "indexed": true,
          "internalType": "bytes32",
          "name": "_destination",
          "type": "bytes32"
        },
        {
          "indexed": false,
          "internalType": "uint256",
          "name": "_amount",
          "type": "uint256"
        },
        {
          "indexed": false,
          "internalType": "uint256",
          "name": "_eventNonce",
          "type": "uint256"
        },
        {
          "indexed": false,
          "internalType": "string",
          "name": "_name",
          "type": "string"
        },
        {
          "indexed": false,
          "internalType": "string",
          "name": "_symbol",
          "type": "string"
        },
        {
          "indexed": false,
          "internalType": "uint8",
          "name": "_decimals",
          "type": "uint8"
        },
        {
          "indexed": false,
          "internalType": "bool",
          "name": "_native",
          "type": "bool"
        }
      ],
      "name": "SendToCosmosEvent",
      "type": "event"
    },
    {
      "anonymous": false,
      "inputs": [
        {
          "indexed": true,
          "internalType": "uint256",
          "name": "_batchNonce",
          "type": "uint256"
        },
        {
          "indexed": true,
          "internalType": "address",
          "name": "_token",
          "type": "address"
        },
        {
          "indexed": false,
          "internalType": "uint256",
          "name": "_eventNonce",
          "type": "uint256"
        }
      ],
      "name": "TransactionBatchExecutedEvent",
      "type": "event"
    },
    {
      "anonymous": false,
      "inputs": [
        {
          "indexed": true,
          "internalType": "uint256",
          "name": "_newValsetNonce",
          "type": "uint256"
        },
        {
          "indexed": false,
          "internalType": "uint256",
          "name": "_eventNonce",
          "type": "uint256"
        },
        {
          "indexed": false,
          "internalType": "address[]",
          "name": "_validators",
          "type": "address[]"
        },
        {
          "indexed": false,
          "internalType": "uint256[]",
          "name": "_powers",
          "type": "uint256[]"
        }
      ],
      "name": "ValsetUpdatedEvent",
      "type": "event"
    },
    {
      "inputs": [],
      "name": "aiaxTokenAddress",
      "outputs": [
        {
          "internalType": "address",
          "name": "",
          "type": "address"
        }
      ],
      "stateMutability": "view",
      "type": "function"
    },
    {
      "inputs": [
        {
          "internalType": "string",
          "name": "_cosmosDenom",
          "type": "string"
        },
        {
          "internalType": "string",
          "name": "_name",
          "type": "string"
        },
        {
          "internalType": "string",
          "name": "_symbol",
          "type": "string"
        },
        {
          "internalType": "uint8",
          "name": "_decimals",
          "type": "uint8"
        }
      ],
      "name": "deployERC20",
      "outputs": [],
      "stateMutability": "nonpayable",
      "type": "function"
    },
    {
      "inputs": [
        {
          "internalType": "address",
          "name": "_erc20Address",
          "type": "address"
        }
      ],
      "name": "lastBatchNonce",
      "outputs": [
        {
          "internalType": "uint256",
          "name": "",
          "type": "uint256"
        }
      ],
      "stateMutability": "view",
      "type": "function"
    },
    {
      "inputs": [
        {
          "internalType": "bytes32",
          "name": "_invalidation_id",
          "type": "bytes32"
        }
      ],
      "name": "lastLogicCallNonce",
      "outputs": [
        {
          "internalType": "uint256",
          "name": "",
          "type": "uint256"
        }
      ],
      "stateMutability": "view",
      "type": "function"
    },
    {
      "inputs": [
        {
          "internalType": "address",
          "name": "_tokenContract",
          "type": "address"
        },
        {
          "internalType": "bytes32",
          "name": "_destination",
          "type": "bytes32"
        },
        {
          "internalType": "uint256",
          "name": "_amount",
          "type": "uint256"
        }
      ],
      "name": "sendToAiax",
      "outputs": [],
      "stateMutability": "nonpayable",
      "type": "function"
    },
    {
      "inputs": [
        {
          "internalType": "address",
          "name": "_tokenContract",
          "type": "address"
        },
        {
          "internalType": "bytes32",
          "name": "_destination",
          "type": "bytes32"
        },
        {
          "internalType": "uint256",
          "name": "_amount",
          "type": "uint256"
        }
      ],
      "name": "sendToCosmos",
      "outputs": [],
      "stateMutability": "nonpayable",
      "type": "function"
    },
    {
      "inputs": [],
      "name": "state_gravityId",
      "outputs": [
        {
          "internalType": "bytes32",
          "name": "",
          "type": "bytes32"
        }
      ],
      "stateMutability": "view",
      "type": "function"
    },
    {
      "inputs": [
        {
          "internalType": "bytes32",
          "name": "",
          "type": "bytes32"
        }
      ],
      "name": "state_invalidationMapping",
      "outputs": [
        {
          "internalType": "uint256",
          "name": "",
          "type": "uint256"
        }
      ],
      "stateMutability": "view",
      "type": "function"
    },
    {
      "inputs": [
        {
          "internalType": "address",
          "name": "",
          "type": "address"
        }
      ],
      "name": "state_lastBatchNonces",
      "outputs": [
        {
          "internalType": "uint256",
          "name": "",
          "type": "uint256"
        }
      ],
      "stateMutability": "view",
      "type": "function"
    },
    {
      "inputs": [],
      "name": "state_lastEventNonce",
      "outputs": [
        {
          "internalType": "uint256",
          "name": "",
          "type": "uint256"
        }
      ],
      "stateMutability": "view",
      "type": "function"
    },
    {
      "inputs": [],
      "name": "state_lastValsetCheckpoint",
      "outputs": [
        {
          "internalType": "bytes32",
          "name": "",
          "type": "bytes32"
        }
      ],
      "stateMutability": "view",
      "type": "function"
    },
    {
      "inputs": [],
      "name": "state_lastValsetNonce",
      "outputs": [
        {
          "internalType": "uint256",
          "name": "",
          "type": "uint256"
        }
      ],
      "stateMutability": "view",
      "type": "function"
    },
    {
      "inputs": [],
      "name": "state_powerThreshold",
      "outputs": [
        {
          "internalType": "uint256",
          "name": "",
          "type": "uint256"
        }
      ],
      "stateMutability": "view",
      "type": "function"
    },
    {
      "inputs": [
        {
          "internalType": "address[]",
          "name": "_currentValidators",
          "type": "address[]"
        },
        {
          "internalType": "uint256[]",
          "name": "_currentPowers",
          "type": "uint256[]"
        },
        {
          "internalType": "uint256",
          "name": "_currentValsetNonce",
          "type": "uint256"
        },
        {
          "internalType": "uint8[]",
          "name": "_v",
          "type": "uint8[]"
        },
        {
          "internalType": "bytes32[]",
          "name": "_r",
          "type": "bytes32[]"
        },
        {
          "internalType": "bytes32[]",
          "name": "_s",
          "type": "bytes32[]"
        },
        {
          "internalType": "uint256[]",
          "name": "_amounts",
          "type": "uint256[]"
        },
        {
          "internalType": "address[]",
          "name": "_destinations",
          "type": "address[]"
        },
        {
          "internalType": "uint256[]",
          "name": "_fees",
          "type": "uint256[]"
        },
        {
          "internalType": "uint256",
          "name": "_batchNonce",
          "type": "uint256"
        },
        {
          "internalType": "address",
          "name": "_tokenContract",
          "type": "address"
        },
        {
          "internalType": "uint256",
          "name": "_batchTimeout",
          "type": "uint256"
        }
      ],
      "name": "submitBatch",
      "outputs": [],
      "stateMutability": "nonpayable",
      "type": "function"
    },
    {
      "inputs": [
        {
          "internalType": "address[]",
          "name": "_currentValidators",
          "type": "address[]"
        },
        {
          "internalType": "uint256[]",
          "name": "_currentPowers",
          "type": "uint256[]"
        },
        {
          "internalType": "uint256",
          "name": "_currentValsetNonce",
          "type": "uint256"
        },
        {
          "internalType": "uint8[]",
          "name": "_v",
          "type": "uint8[]"
        },
        {
          "internalType": "bytes32[]",
          "name": "_r",
          "type": "bytes32[]"
        },
        {
          "internalType": "bytes32[]",
          "name": "_s",
          "type": "bytes32[]"
        },
        {
          "components": [
            {
              "internalType": "uint256[]",
              "name": "transferAmounts",
              "type": "uint256[]"
            },
            {
              "internalType": "address[]",
              "name": "transferTokenContracts",
              "type": "address[]"
            },
            {
              "internalType": "uint256[]",
              "name": "feeAmounts",
              "type": "uint256[]"
            },
            {
              "internalType": "address[]",
              "name": "feeTokenContracts",
              "type": "address[]"
            },
            {
              "internalType": "address",
              "name": "logicContractAddress",
              "type": "address"
            },
            {
              "internalType": "bytes",
              "name": "payload",
              "type": "bytes"
            },
            {
              "internalType": "uint256",
              "name": "timeOut",
              "type": "uint256"
            },
            {
              "internalType": "bytes32",
              "name": "invalidationId",
              "type": "bytes32"
            },
            {
              "internalType": "uint256",
              "name": "invalidationNonce",
              "type": "uint256"
            }
          ],
          "internalType": "struct LogicCallArgs",
          "name": "_args",
          "type": "tuple"
        }
      ],
      "name": "submitLogicCall",
      "outputs": [],
      "stateMutability": "nonpayable",
      "type": "function"
    },
    {
      "inputs": [
        {
          "internalType": "address[]",
          "name": "_newValidators",
          "type": "address[]"
        },
        {
          "internalType": "uint256[]",
          "name": "_newPowers",
          "type": "uint256[]"
        },
        {
          "internalType": "uint256",
          "name": "_newValsetNonce",
          "type": "uint256"
        },
        {
          "internalType": "address[]",
          "name": "_currentValidators",
          "type": "address[]"
        },
        {
          "internalType": "uint256[]",
          "name": "_currentPowers",
          "type": "uint256[]"
        },
        {
          "internalType": "uint256",
          "name": "_currentValsetNonce",
          "type": "uint256"
        },
        {
          "internalType": "uint8[]",
          "name": "_v",
          "type": "uint8[]"
        },
        {
          "internalType": "bytes32[]",
          "name": "_r",
          "type": "bytes32[]"
        },
        {
          "internalType": "bytes32[]",
          "name": "_s",
          "type": "bytes32[]"
        }
      ],
      "name": "updateValset",
      "outputs": [],
      "stateMutability": "nonpayable",
      "type": "function"
    }
  ],
  "bytecode": "0x6080604052600060045560016005553480156200001b57600080fd5b50604051620043ef380380620043ef8339810160408190526200003e9162000384565b600160005580518251146200009a5760405162461bcd60e51b815260206004820152601f60248201527f4d616c666f726d65642063757272656e742076616c696461746f72207365740060448201526064015b60405180910390fd5b6000805b8251811015620000f857828181518110620000bd57620000bd62000477565b602002602001015182620000d29190620004a3565b915084821115620000e357620000f8565b80620000ef81620004be565b9150506200009e565b50838111620001705760405162461bcd60e51b815260206004820152603c60248201527f5375626d69747465642076616c696461746f7220736574207369676e6174757260448201527f657320646f206e6f74206861766520656e6f75676820706f7765722e00000000606482015260840162000091565b6000620001808484838962000242565b6006879055600786905560018190556040519091506000903090620001a59062000294565b6001600160a01b039091168152602001604051809103906000f080158015620001d2573d6000803e3d6000fd5b50600880546001600160a01b0319166001600160a01b03831617905560045460055460405192935090917fb119f1f36224601586b5037da909ecf37e83864dddea5d32ad4e32ac1d97e62b916200022d918990899062000554565b60405180910390a250505050505050620005d4565b6040516000906918da1958dadc1bda5b9d60b21b90829062000271908590849088908b908b906020016200058d565b60408051808303601f190181529190528051602090910120979650505050505050565b610c0280620037ed83390190565b634e487b7160e01b600052604160045260246000fd5b604051601f8201601f191681016001600160401b0381118282101715620002e357620002e3620002a2565b604052919050565b60006001600160401b03821115620003075762000307620002a2565b5060051b60200190565b600082601f8301126200032357600080fd5b815160206200033c6200033683620002eb565b620002b8565b82815260059290921b840181019181810190868411156200035c57600080fd5b8286015b8481101562000379578051835291830191830162000360565b509695505050505050565b600080600080608085870312156200039b57600080fd5b845160208087015160408801519296509450906001600160401b0380821115620003c457600080fd5b818801915088601f830112620003d957600080fd5b8151620003ea6200033682620002eb565b81815260059190911b8301840190848101908b8311156200040a57600080fd5b938501935b82851015620004415784516001600160a01b0381168114620004315760008081fd5b825293850193908501906200040f565b60608b015190975094505050808311156200045b57600080fd5b50506200046b8782880162000311565b91505092959194509250565b634e487b7160e01b600052603260045260246000fd5b634e487b7160e01b600052601160045260246000fd5b60008219821115620004b957620004b96200048d565b500190565b6000600019821415620004d557620004d56200048d565b5060010190565b600081518084526020808501945080840160005b83811015620005175781516001600160a01b031687529582019590820190600101620004f0565b509495945050505050565b600081518084526020808501945080840160005b83811015620005175781518752958201959082019060010162000536565b8381526060602082015260006200056f6060830185620004dc565b828103604084015262000583818562000522565b9695505050505050565b85815284602082015283604082015260a060608201526000620005b460a0830185620004dc565b8281036080840152620005c8818562000522565b98975050505050505050565b61320980620005e46000396000f3fe60806040523480156200001157600080fd5b5060043610620001155760003560e01c8063bdda81d411620000a3578063e5a2b5d2116200006e578063e5a2b5d21462000255578063f08ef31e146200025f578063f2b53307146200028c578063f7955637146200029657600080fd5b8063bdda81d414620001ee578063c9d194d514620001f8578063df97174b146200021b578063e3cb9f62146200023e57600080fd5b80637dfb6f8611620000e45780637dfb6f86146200019357806383b435db14620001b65780639bf5e11014620001cd578063b56561fe14620001e457600080fd5b8063011b2174146200011a5780630c246c8214620001595780631ffbe7f9146200017257806373b205471462000189575b600080fd5b620001466200012b3660046200166d565b6001600160a01b031660009081526002602052604090205490565b6040519081526020015b60405180910390f35b620001706200016a36600462001a27565b620002ad565b005b620001706200018336600462001b39565b620006fd565b6200014660055481565b62000146620001a436600462001b6f565b60036020526000908152604090205481565b62000170620001c736600462001b89565b62000936565b62000170620001de36600462001b39565b62000ce7565b6200014660045481565b6200014660065481565b620001466200020936600462001b6f565b60009081526003602052604090205490565b620001466200022c3660046200166d565b60026020526000908152604090205481565b620001706200024f36600462001d49565b62000d29565b6200014660075481565b60085462000273906001600160a01b031681565b6040516001600160a01b03909116815260200162000150565b6200014660015481565b62000170620002a736600462001e8d565b62000f33565b60026000541415620002dc5760405162461bcd60e51b8152600401620002d39062001f33565b60405180910390fd5b600260005560c08101514310620003225760405162461bcd60e51b8152602060048201526009602482015268151a5b5959081bdd5d60ba1b6044820152606401620002d3565b61010081015160e082015160009081526003602052604090205410620003b15760405162461bcd60e51b815260206004820152603d60248201527f4e657720696e76616c69646174696f6e206e6f6e6365206d757374206265206760448201527f726561746572207468616e207468652063757272656e74206e6f6e63650000006064820152608401620002d3565b85518751148015620003c4575083518751145b8015620003d2575082518751145b8015620003e0575081518751145b620003ff5760405162461bcd60e51b8152600401620002d39062001f6a565b6001546200041288888860065462000fdf565b14620004325760405162461bcd60e51b8152600401620002d39062001fa1565b60208101515181515114620004945760405162461bcd60e51b815260206004820152602160248201527f4d616c666f726d6564206c697374206f6620746f6b656e207472616e736665726044820152607360f81b6064820152608401620002d3565b80606001515181604001515114620004e85760405162461bcd60e51b81526020600482015260166024820152754d616c666f726d6564206c697374206f66206665657360501b6044820152606401620002d3565b6000600654681b1bd9da58d0d85b1b60ba1b836000015184602001518560400151866060015187608001518860a001518960c001518a60e001518b6101000151604051602001620005449b9a99989796959493929190620020d3565b6040516020818303038152906040528051906020012090506200056f88888787878660075462001031565b61010082015160e08301516000908152600360205260408120919091555b8251518110156200061157620005fc836080015184600001518381518110620005ba57620005ba62002183565b602002602001015185602001518481518110620005db57620005db62002183565b60200260200101516001600160a01b0316620012129092919063ffffffff16565b806200060881620021af565b9150506200058d565b5060006200062883608001518460a001516200127c565b905060005b8360400151518110156200068f576200067a338560400151838151811062000659576200065962002183565b602002602001015186606001518481518110620005db57620005db62002183565b806200068681620021af565b9150506200062d565b50600554620006a0906001620012c7565b600581905560e08401516101008501516040517f7c2bb24f8e1b3725cb613d7f11ef97d9745cc97a0e40f730621c052d684077a193620006e5939291869190620021cd565b60405180910390a15050600160005550505050505050565b60026000541415620007235760405162461bcd60e51b8152600401620002d39062001f33565b60026000556200073f6001600160a01b038416333084620012d5565b6005546200074f906001620012c7565b6005819055506000836001600160a01b03166306fdde036040518163ffffffff1660e01b815260040160006040518083038186803b1580156200079157600080fd5b505afa158015620007a6573d6000803e3d6000fd5b505050506040513d6000823e601f3d908101601f19168201604052620007d09190810190620021ff565b90506000846001600160a01b03166395d89b416040518163ffffffff1660e01b815260040160006040518083038186803b1580156200080e57600080fd5b505afa15801562000823573d6000803e3d6000fd5b505050506040513d6000823e601f3d908101601f191682016040526200084d9190810190620021ff565b90506000856001600160a01b031663313ce5676040518163ffffffff1660e01b815260040160206040518083038186803b1580156200088b57600080fd5b505afa158015620008a0573d6000803e3d6000fd5b505050506040513d601f19601f82011682018060405250810190620008c691906200227e565b6008546005546040519293506001600160a01b0389811692168214928892339290917fdc3b0dddddb1157e82fefe8b60fdd28a537b35e505606f5112fb5d9942fba1539162000920918b91908b908b908b908b906200229e565b60405180910390a4505060016000555050505050565b600260005414156200095c5760405162461bcd60e51b8152600401620002d39062001f33565b600260008181556001600160a01b038416815260209190915260409020548311620009e95760405162461bcd60e51b815260206004820152603660248201527f4e6577206261746368206e6f6e6365206d7573742062652067726561746572206044820152757468616e207468652063757272656e74206e6f6e636560501b6064820152608401620002d3565b80431062000a605760405162461bcd60e51b815260206004820152603b60248201527f42617463682074696d656f7574206d757374206265206772656174657220746860448201527f616e207468652063757272656e7420626c6f636b2068656967687400000000006064820152608401620002d3565b8a518c5114801562000a73575088518c51145b801562000a81575087518c51145b801562000a8f575086518c51145b62000aae5760405162461bcd60e51b8152600401620002d39062001f6a565b60015462000ac18d8d8d60065462000fdf565b1462000ae15760405162461bcd60e51b8152600401620002d39062001fa1565b8451865114801562000af4575083518651145b62000b425760405162461bcd60e51b815260206004820152601f60248201527f4d616c666f726d6564206261746368206f66207472616e73616374696f6e73006044820152606401620002d3565b62000ba08c8c8b8b8b6006546f0e8e4c2dce6c2c6e8d2dedc84c2e8c6d60831b8d8d8d8d8d8d60405160200162000b81989796959493929190620022f1565b6040516020818303038152906040528051906020012060075462001031565b6001600160a01b0382166000908152600260205260408120849055805b875181101562000c675762000c1f87828151811062000be05762000be062002183565b602002602001015189838151811062000bfd5762000bfd62002183565b6020026020010151866001600160a01b0316620012129092919063ffffffff16565b62000c5086828151811062000c385762000c3862002183565b602002602001015183620012c790919063ffffffff16565b91508062000c5e81620021af565b91505062000bbd565b5062000c7e6001600160a01b038416338362001212565b5060055462000c8f906001620012c7565b60058190556040519081526001600160a01b0383169084907f02c7e81975f8edb86e2a0c038b7b86a49c744236abf0f6177ff5afc6986ab7089060200160405180910390a35050600160005550505050505050505050565b6002600054141562000d0d5760405162461bcd60e51b8152600401620002d39062001f33565b600260005562000d1f838383620006fd565b5050600160005550565b6002600054141562000d4f5760405162461bcd60e51b8152600401620002d39062001f33565b600260005583871162000dcb5760405162461bcd60e51b815260206004820152603760248201527f4e65772076616c736574206e6f6e6365206d757374206265206772656174657260448201527f207468616e207468652063757272656e74206e6f6e63650000000000000000006064820152608401620002d3565b875189511462000e1e5760405162461bcd60e51b815260206004820152601b60248201527f4d616c666f726d6564206e65772076616c696461746f722073657400000000006044820152606401620002d3565b8451865114801562000e31575082518651145b801562000e3f575081518651145b801562000e4d575080518651145b62000e6c5760405162461bcd60e51b8152600401620002d39062001f6a565b60015462000e7f87878760065462000fdf565b1462000e9f5760405162461bcd60e51b8152600401620002d39062001fa1565b600062000eb18a8a8a60065462000fdf565b905062000ec687878686868660075462001031565b6001818155600489905560055462000ede91620012c7565b600581905560405189917fb119f1f36224601586b5037da909ecf37e83864dddea5d32ad4e32ac1d97e62b9162000f1a91908e908e9062002369565b60405180910390a2505060016000555050505050505050565b60003084848460405162000f479062001642565b62000f569493929190620023a2565b604051809103906000f08015801562000f73573d6000803e3d6000fd5b5060055490915062000f87906001620012c7565b60058190556040516001600160a01b038316917f82fe3a4fa49c6382d0c085746698ddbbafe6c2bf61285b19410644b5b26287c79162000fd091899189918991899190620023f1565b60405180910390a25050505050565b6040516000906918da1958dadc1bda5b9d60b21b9082906200100e908590849088908b908b9060200162002448565b60408051808303601f190181529190528051602090910120979650505050505050565b6000805b8851811015620011905786818151811062001054576200105462002183565b602002602001015160ff166000146200117b57620010e689828151811062001080576200108062002183565b6020026020010151858984815181106200109e576200109e62002183565b6020026020010151898581518110620010bb57620010bb62002183565b6020026020010151898681518110620010d857620010d862002183565b602002602001015162001315565b620011405760405162461bcd60e51b815260206004820152602360248201527f56616c696461746f72207369676e617475726520646f6573206e6f74206d617460448201526231b41760e91b6064820152608401620002d3565b87818151811062001155576200115562002183565b6020026020010151826200116a91906200248f565b9150828211156200117b5762001190565b806200118781620021af565b91505062001035565b50818111620012085760405162461bcd60e51b815260206004820152603c60248201527f5375626d69747465642076616c696461746f7220736574207369676e6174757260448201527f657320646f206e6f74206861766520656e6f75676820706f7765722e000000006064820152608401620002d3565b5050505050505050565b6040516001600160a01b0383166024820152604481018290526200127790849063a9059cbb60e01b906064015b60408051601f198184030181529190526020810180516001600160e01b03166001600160e01b031990931692909217909152620013e0565b505050565b6060620012c083836040518060400160405280601e81526020017f416464726573733a206c6f772d6c6576656c2063616c6c206661696c65640000815250620014b9565b9392505050565b6000620012c082846200248f565b6040516001600160a01b03808516602483015283166044820152606481018290526200130f9085906323b872dd60e01b906084016200123f565b50505050565b6040517f19457468657265756d205369676e6564204d6573736167653a0a3332000000006020820152603c81018590526000908190605c0160408051601f1981840301815282825280516020918201206000845290830180835281905260ff8816918301919091526060820186905260808201859052915060019060a0016020604051602081039080840390855afa158015620013b6573d6000803e3d6000fd5b505050602060405103516001600160a01b0316876001600160a01b03161491505095945050505050565b600062001437826040518060400160405280602081526020017f5361666545524332303a206c6f772d6c6576656c2063616c6c206661696c6564815250856001600160a01b0316620014b99092919063ffffffff16565b805190915015620012775780806020019051810190620014589190620024aa565b620012775760405162461bcd60e51b815260206004820152602a60248201527f5361666545524332303a204552433230206f7065726174696f6e20646964206e6044820152691bdd081cdd58d8d9595960b21b6064820152608401620002d3565b6060620014ca8484600085620014d2565b949350505050565b606082471015620015355760405162461bcd60e51b815260206004820152602660248201527f416464726573733a20696e73756666696369656e742062616c616e636520666f6044820152651c8818d85b1b60d21b6064820152608401620002d3565b843b620015855760405162461bcd60e51b815260206004820152601d60248201527f416464726573733a2063616c6c20746f206e6f6e2d636f6e74726163740000006044820152606401620002d3565b600080866001600160a01b03168587604051620015a39190620024ce565b60006040518083038185875af1925050503d8060008114620015e2576040519150601f19603f3d011682016040523d82523d6000602084013e620015e7565b606091505b5091509150620015f982828662001604565b979650505050505050565b6060831562001615575081620012c0565b825115620016265782518084602001fd5b8160405162461bcd60e51b8152600401620002d39190620024ec565b610cd2806200250283390190565b80356001600160a01b03811681146200166857600080fd5b919050565b6000602082840312156200168057600080fd5b620012c08262001650565b634e487b7160e01b600052604160045260246000fd5b60405161012081016001600160401b0381118282101715620016c757620016c76200168b565b60405290565b604051601f8201601f191681016001600160401b0381118282101715620016f857620016f86200168b565b604052919050565b60006001600160401b038211156200171c576200171c6200168b565b5060051b60200190565b600082601f8301126200173857600080fd5b81356020620017516200174b8362001700565b620016cd565b82815260059290921b840181019181810190868411156200177157600080fd5b8286015b848110156200179757620017898162001650565b835291830191830162001775565b509695505050505050565b600082601f830112620017b457600080fd5b81356020620017c76200174b8362001700565b82815260059290921b84018101918181019086841115620017e757600080fd5b8286015b84811015620017975780358352918301918301620017eb565b60ff811681146200181457600080fd5b50565b600082601f8301126200182957600080fd5b813560206200183c6200174b8362001700565b82815260059290921b840181019181810190868411156200185c57600080fd5b8286015b8481101562001797578035620018768162001804565b835291830191830162001860565b60006001600160401b03821115620018a057620018a06200168b565b50601f01601f191660200190565b600082601f830112620018c057600080fd5b8135620018d16200174b8262001884565b818152846020838601011115620018e757600080fd5b816020850160208301376000918101602001919091529392505050565b600061012082840312156200191857600080fd5b62001922620016a1565b905081356001600160401b03808211156200193c57600080fd5b6200194a85838601620017a2565b835260208401359150808211156200196157600080fd5b6200196f8583860162001726565b602084015260408401359150808211156200198957600080fd5b6200199785838601620017a2565b60408401526060840135915080821115620019b157600080fd5b620019bf8583860162001726565b6060840152620019d26080850162001650565b608084015260a0840135915080821115620019ec57600080fd5b50620019fb84828501620018ae565b60a08301525060c082013560c082015260e082013560e082015261010080830135818301525092915050565b600080600080600080600060e0888a03121562001a4357600080fd5b87356001600160401b038082111562001a5b57600080fd5b62001a698b838c0162001726565b985060208a013591508082111562001a8057600080fd5b62001a8e8b838c01620017a2565b975060408a0135965060608a013591508082111562001aac57600080fd5b62001aba8b838c0162001817565b955060808a013591508082111562001ad157600080fd5b62001adf8b838c01620017a2565b945060a08a013591508082111562001af657600080fd5b62001b048b838c01620017a2565b935060c08a013591508082111562001b1b57600080fd5b5062001b2a8a828b0162001904565b91505092959891949750929550565b60008060006060848603121562001b4f57600080fd5b62001b5a8462001650565b95602085013595506040909401359392505050565b60006020828403121562001b8257600080fd5b5035919050565b6000806000806000806000806000806000806101808d8f03121562001bad57600080fd5b6001600160401b038d35111562001bc357600080fd5b62001bd28e8e358f0162001726565b9b506001600160401b0360208e0135111562001bed57600080fd5b62001bff8e60208f01358f01620017a2565b9a5060408d013599506001600160401b0360608e0135111562001c2157600080fd5b62001c338e60608f01358f0162001817565b98506001600160401b0360808e0135111562001c4e57600080fd5b62001c608e60808f01358f01620017a2565b97506001600160401b0360a08e0135111562001c7b57600080fd5b62001c8d8e60a08f01358f01620017a2565b96506001600160401b0360c08e0135111562001ca857600080fd5b62001cba8e60c08f01358f01620017a2565b95506001600160401b0360e08e0135111562001cd557600080fd5b62001ce78e60e08f01358f0162001726565b94506001600160401b036101008e0135111562001d0357600080fd5b62001d168e6101008f01358f01620017a2565b93506101208d0135925062001d2f6101408e0162001650565b91506101608d013590509295989b509295989b509295989b565b60008060008060008060008060006101208a8c03121562001d6957600080fd5b89356001600160401b038082111562001d8157600080fd5b62001d8f8d838e0162001726565b9a5060208c013591508082111562001da657600080fd5b62001db48d838e01620017a2565b995060408c0135985060608c013591508082111562001dd257600080fd5b62001de08d838e0162001726565b975060808c013591508082111562001df757600080fd5b62001e058d838e01620017a2565b965060a08c0135955060c08c013591508082111562001e2357600080fd5b62001e318d838e0162001817565b945060e08c013591508082111562001e4857600080fd5b62001e568d838e01620017a2565b93506101008c013591508082111562001e6e57600080fd5b5062001e7d8c828d01620017a2565b9150509295985092959850929598565b6000806000806080858703121562001ea457600080fd5b84356001600160401b038082111562001ebc57600080fd5b62001eca88838901620018ae565b9550602087013591508082111562001ee157600080fd5b62001eef88838901620018ae565b9450604087013591508082111562001f0657600080fd5b5062001f1587828801620018ae565b925050606085013562001f288162001804565b939692955090935050565b6020808252601f908201527f5265656e7472616e637947756172643a207265656e7472616e742063616c6c00604082015260600190565b6020808252601f908201527f4d616c666f726d65642063757272656e742076616c696461746f722073657400604082015260600190565b6020808252603f908201527f537570706c6965642063757272656e742076616c696461746f727320616e642060408201527f706f7765727320646f206e6f74206d6174636820636865636b706f696e742e00606082015260800190565b600081518084526020808501945080840160005b83811015620020305781518752958201959082019060010162002012565b509495945050505050565b600081518084526020808501945080840160005b83811015620020305781516001600160a01b0316875295820195908201906001016200204f565b60005b838110156200209357818101518382015260200162002079565b838111156200130f5750506000910152565b60008151808452620020bf81602086016020860162002076565b601f01601f19169290920160200192915050565b60006101608d83528c6020840152806040840152620020f58184018d62001ffe565b905082810360608401526200210b818c6200203b565b9050828103608084015262002121818b62001ffe565b905082810360a084015262002137818a6200203b565b6001600160a01b03891660c085015283810360e085015290506200215c8188620020a5565b61010084019690965250506101208101929092526101409091015298975050505050505050565b634e487b7160e01b600052603260045260246000fd5b634e487b7160e01b600052601160045260246000fd5b6000600019821415620021c657620021c662002199565b5060010190565b848152836020820152608060408201526000620021ee6080830185620020a5565b905082606083015295945050505050565b6000602082840312156200221257600080fd5b81516001600160401b038111156200222957600080fd5b8201601f810184136200223b57600080fd5b80516200224c6200174b8262001884565b8181528560208385010111156200226257600080fd5b6200227582602083016020860162002076565b95945050505050565b6000602082840312156200229157600080fd5b8151620012c08162001804565b86815285602082015260c060408201526000620022bf60c0830187620020a5565b8281036060840152620022d38187620020a5565b60ff959095166080840152505090151560a090910152949350505050565b60006101008a8352896020840152806040840152620023138184018a62001ffe565b905082810360608401526200232981896200203b565b905082810360808401526200233f818862001ffe565b60a084019690965250506001600160a01b039290921660c083015260e09091015295945050505050565b8381526060602082015260006200238460608301856200203b565b828103604084015262002398818562001ffe565b9695505050505050565b6001600160a01b0385168152608060208201819052600090620023c890830186620020a5565b8281036040840152620023dc8186620020a5565b91505060ff8316606083015295945050505050565b60a0815260006200240660a0830188620020a5565b82810360208401526200241a8188620020a5565b90508281036040840152620024308187620020a5565b60ff9590951660608401525050608001529392505050565b85815284602082015283604082015260a0606082015260006200246f60a08301856200203b565b828103608084015262002483818562001ffe565b98975050505050505050565b60008219821115620024a557620024a562002199565b500190565b600060208284031215620024bd57600080fd5b81518015158114620012c057600080fd5b60008251620024e281846020870162002076565b9190910192915050565b602081526000620012c06020830184620020a556fe60806040526000196005553480156200001757600080fd5b5060405162000cd238038062000cd28339810160408190526200003a91620002f0565b825183908390620000539060039060208501906200017d565b508051620000699060049060208401906200017d565b50506006805460ff191660ff8416179055506005546200008b90859062000095565b50505050620003f8565b6001600160a01b038216620000f05760405162461bcd60e51b815260206004820152601f60248201527f45524332303a206d696e7420746f20746865207a65726f206164647265737300604482015260640160405180910390fd5b806002600082825462000104919062000394565b90915550506001600160a01b038216600090815260208190526040812080548392906200013390849062000394565b90915550506040518181526001600160a01b038316906000907fddf252ad1be2c89b69c2b068fc378daa952ba7f163c4a11628f55a4df523b3ef9060200160405180910390a35050565b8280546200018b90620003bb565b90600052602060002090601f016020900481019282620001af5760008555620001fa565b82601f10620001ca57805160ff1916838001178555620001fa565b82800160010185558215620001fa579182015b82811115620001fa578251825591602001919060010190620001dd565b50620002089291506200020c565b5090565b5b808211156200020857600081556001016200020d565b634e487b7160e01b600052604160045260246000fd5b600082601f8301126200024b57600080fd5b81516001600160401b038082111562000268576200026862000223565b604051601f8301601f19908116603f0116810190828211818310171562000293576200029362000223565b81604052838152602092508683858801011115620002b057600080fd5b600091505b83821015620002d45785820183015181830184015290820190620002b5565b83821115620002e65760008385830101525b9695505050505050565b600080600080608085870312156200030757600080fd5b84516001600160a01b03811681146200031f57600080fd5b60208601519094506001600160401b03808211156200033d57600080fd5b6200034b8883890162000239565b945060408701519150808211156200036257600080fd5b50620003718782880162000239565b925050606085015160ff811681146200038957600080fd5b939692955090935050565b60008219821115620003b657634e487b7160e01b600052601160045260246000fd5b500190565b600181811c90821680620003d057607f821691505b60208210811415620003f257634e487b7160e01b600052602260045260246000fd5b50919050565b6108ca80620004086000396000f3fe608060405234801561001057600080fd5b50600436106100a95760003560e01c80633950935111610071578063395093511461012957806370a082311461013c57806395d89b4114610165578063a457c2d71461016d578063a9059cbb14610180578063dd62ed3e1461019357600080fd5b806306fdde03146100ae578063095ea7b3146100cc57806318160ddd146100ef57806323b872dd14610101578063313ce56714610114575b600080fd5b6100b66101cc565b6040516100c39190610707565b60405180910390f35b6100df6100da366004610778565b61025e565b60405190151581526020016100c3565b6002545b6040519081526020016100c3565b6100df61010f3660046107a2565b610274565b60065460405160ff90911681526020016100c3565b6100df610137366004610778565b610323565b6100f361014a3660046107de565b6001600160a01b031660009081526020819052604090205490565b6100b661035f565b6100df61017b366004610778565b61036e565b6100df61018e366004610778565b610407565b6100f36101a1366004610800565b6001600160a01b03918216600090815260016020908152604080832093909416825291909152205490565b6060600380546101db90610833565b80601f016020809104026020016040519081016040528092919081815260200182805461020790610833565b80156102545780601f1061022957610100808354040283529160200191610254565b820191906000526020600020905b81548152906001019060200180831161023757829003601f168201915b5050505050905090565b600061026b338484610414565b50600192915050565b6000610281848484610538565b6001600160a01b03841660009081526001602090815260408083203384529091529020548281101561030b5760405162461bcd60e51b815260206004820152602860248201527f45524332303a207472616e7366657220616d6f756e74206578636565647320616044820152676c6c6f77616e636560c01b60648201526084015b60405180910390fd5b6103188533858403610414565b506001949350505050565b3360008181526001602090815260408083206001600160a01b0387168452909152812054909161026b91859061035a90869061086e565b610414565b6060600480546101db90610833565b3360009081526001602090815260408083206001600160a01b0386168452909152812054828110156103f05760405162461bcd60e51b815260206004820152602560248201527f45524332303a2064656372656173656420616c6c6f77616e63652062656c6f77604482015264207a65726f60d81b6064820152608401610302565b6103fd3385858403610414565b5060019392505050565b600061026b338484610538565b6001600160a01b0383166104765760405162461bcd60e51b8152602060048201526024808201527f45524332303a20617070726f76652066726f6d20746865207a65726f206164646044820152637265737360e01b6064820152608401610302565b6001600160a01b0382166104d75760405162461bcd60e51b815260206004820152602260248201527f45524332303a20617070726f766520746f20746865207a65726f206164647265604482015261737360f01b6064820152608401610302565b6001600160a01b0383811660008181526001602090815260408083209487168084529482529182902085905590518481527f8c5be1e5ebec7d5bd14f71427d1e84f3dd0314c0f7b2291e5b200ac8c7c3b925910160405180910390a3505050565b6001600160a01b03831661059c5760405162461bcd60e51b815260206004820152602560248201527f45524332303a207472616e736665722066726f6d20746865207a65726f206164604482015264647265737360d81b6064820152608401610302565b6001600160a01b0382166105fe5760405162461bcd60e51b815260206004820152602360248201527f45524332303a207472616e7366657220746f20746865207a65726f206164647260448201526265737360e81b6064820152608401610302565b6001600160a01b038316600090815260208190526040902054818110156106765760405162461bcd60e51b815260206004820152602660248201527f45524332303a207472616e7366657220616d6f756e7420657863656564732062604482015265616c616e636560d01b6064820152608401610302565b6001600160a01b038085166000908152602081905260408082208585039055918516815290812080548492906106ad90849061086e565b92505081905550826001600160a01b0316846001600160a01b03167fddf252ad1be2c89b69c2b068fc378daa952ba7f163c4a11628f55a4df523b3ef846040516106f991815260200190565b60405180910390a350505050565b600060208083528351808285015260005b8181101561073457858101830151858201604001528201610718565b81811115610746576000604083870101525b50601f01601f1916929092016040019392505050565b80356001600160a01b038116811461077357600080fd5b919050565b6000806040838503121561078b57600080fd5b6107948361075c565b946020939093013593505050565b6000806000606084860312156107b757600080fd5b6107c08461075c565b92506107ce6020850161075c565b9150604084013590509250925092565b6000602082840312156107f057600080fd5b6107f98261075c565b9392505050565b6000806040838503121561081357600080fd5b61081c8361075c565b915061082a6020840161075c565b90509250929050565b600181811c9082168061084757607f821691505b6020821081141561086857634e487b7160e01b600052602260045260246000fd5b50919050565b6000821982111561088f57634e487b7160e01b600052601160045260246000fd5b50019056fea264697066735822122030e2a9e9ecf2a9bb13d9e7adf8bd1b56e9b7f17e40c5f74ae7e22e74267d8cf664736f6c63430008090033a2646970667358221220aae9ad5cb64487c1d0154c5c378ba3816163dd121204db5993b03aff2595142e64736f6c6343000809003360806040523480156200001157600080fd5b5060405162000c0238038062000c02833981016040819052620000349162000262565b6040518060400160405280600a81526020016920b4b0bc103a37b5b2b760b11b81525060405180604001604052806003815260200162082b0b60eb1b81525081600390805190602001906200008b929190620001bc565b508051620000a1906004906020840190620001bc565b5050600580546001600160a01b0319166001600160a01b03841617905550620000cd81600019620000d4565b50620002f8565b6001600160a01b0382166200012f5760405162461bcd60e51b815260206004820152601f60248201527f45524332303a206d696e7420746f20746865207a65726f206164647265737300604482015260640160405180910390fd5b806002600082825462000143919062000294565b90915550506001600160a01b038216600090815260208190526040812080548392906200017290849062000294565b90915550506040518181526001600160a01b038316906000907fddf252ad1be2c89b69c2b068fc378daa952ba7f163c4a11628f55a4df523b3ef9060200160405180910390a35050565b828054620001ca90620002bb565b90600052602060002090601f016020900481019282620001ee576000855562000239565b82601f106200020957805160ff191683800117855562000239565b8280016001018555821562000239579182015b82811115620002395782518255916020019190600101906200021c565b50620002479291506200024b565b5090565b5b808211156200024757600081556001016200024c565b6000602082840312156200027557600080fd5b81516001600160a01b03811681146200028d57600080fd5b9392505050565b60008219821115620002b657634e487b7160e01b600052601160045260246000fd5b500190565b600181811c90821680620002d057607f821691505b60208210811415620002f257634e487b7160e01b600052602260045260246000fd5b50919050565b6108fa80620003086000396000f3fe608060405234801561001057600080fd5b50600436106100b45760003560e01c806370a082311161007157806370a082311461014157806395d89b411461016a578063a457c2d714610172578063a9059cbb14610185578063d1e5fc6914610198578063dd62ed3e146101c357600080fd5b806306fdde03146100b9578063095ea7b3146100d757806318160ddd146100fa57806323b872dd1461010c578063313ce5671461011f578063395093511461012e575b600080fd5b6100c16101fc565b6040516100ce9190610737565b60405180910390f35b6100ea6100e53660046107a8565b61028e565b60405190151581526020016100ce565b6002545b6040519081526020016100ce565b6100ea61011a3660046107d2565b6102a4565b604051601281526020016100ce565b6100ea61013c3660046107a8565b610353565b6100fe61014f36600461080e565b6001600160a01b031660009081526020819052604090205490565b6100c161038f565b6100ea6101803660046107a8565b61039e565b6100ea6101933660046107a8565b610437565b6005546101ab906001600160a01b031681565b6040516001600160a01b0390911681526020016100ce565b6100fe6101d1366004610830565b6001600160a01b03918216600090815260016020908152604080832093909416825291909152205490565b60606003805461020b90610863565b80601f016020809104026020016040519081016040528092919081815260200182805461023790610863565b80156102845780601f1061025957610100808354040283529160200191610284565b820191906000526020600020905b81548152906001019060200180831161026757829003601f168201915b5050505050905090565b600061029b338484610444565b50600192915050565b60006102b1848484610568565b6001600160a01b03841660009081526001602090815260408083203384529091529020548281101561033b5760405162461bcd60e51b815260206004820152602860248201527f45524332303a207472616e7366657220616d6f756e74206578636565647320616044820152676c6c6f77616e636560c01b60648201526084015b60405180910390fd5b6103488533858403610444565b506001949350505050565b3360008181526001602090815260408083206001600160a01b0387168452909152812054909161029b91859061038a90869061089e565b610444565b60606004805461020b90610863565b3360009081526001602090815260408083206001600160a01b0386168452909152812054828110156104205760405162461bcd60e51b815260206004820152602560248201527f45524332303a2064656372656173656420616c6c6f77616e63652062656c6f77604482015264207a65726f60d81b6064820152608401610332565b61042d3385858403610444565b5060019392505050565b600061029b338484610568565b6001600160a01b0383166104a65760405162461bcd60e51b8152602060048201526024808201527f45524332303a20617070726f76652066726f6d20746865207a65726f206164646044820152637265737360e01b6064820152608401610332565b6001600160a01b0382166105075760405162461bcd60e51b815260206004820152602260248201527f45524332303a20617070726f766520746f20746865207a65726f206164647265604482015261737360f01b6064820152608401610332565b6001600160a01b0383811660008181526001602090815260408083209487168084529482529182902085905590518481527f8c5be1e5ebec7d5bd14f71427d1e84f3dd0314c0f7b2291e5b200ac8c7c3b925910160405180910390a3505050565b6001600160a01b0383166105cc5760405162461bcd60e51b815260206004820152602560248201527f45524332303a207472616e736665722066726f6d20746865207a65726f206164604482015264647265737360d81b6064820152608401610332565b6001600160a01b03821661062e5760405162461bcd60e51b815260206004820152602360248201527f45524332303a207472616e7366657220746f20746865207a65726f206164647260448201526265737360e81b6064820152608401610332565b6001600160a01b038316600090815260208190526040902054818110156106a65760405162461bcd60e51b815260206004820152602660248201527f45524332303a207472616e7366657220616d6f756e7420657863656564732062604482015265616c616e636560d01b6064820152608401610332565b6001600160a01b038085166000908152602081905260408082208585039055918516815290812080548492906106dd90849061089e565b92505081905550826001600160a01b0316846001600160a01b03167fddf252ad1be2c89b69c2b068fc378daa952ba7f163c4a11628f55a4df523b3ef8460405161072991815260200190565b60405180910390a350505050565b600060208083528351808285015260005b8181101561076457858101830151858201604001528201610748565b81811115610776576000604083870101525b50601f01601f1916929092016040019392505050565b80356001600160a01b03811681146107a357600080fd5b919050565b600080604083850312156107bb57600080fd5b6107c48361078c565b946020939093013593505050565b6000806000606084860312156107e757600080fd5b6107f08461078c565b92506107fe6020850161078c565b9150604084013590509250925092565b60006020828403121561082057600080fd5b6108298261078c565b9392505050565b6000806040838503121561084357600080fd5b61084c8361078c565b915061085a6020840161078c565b90509250929050565b600181811c9082168061087757607f821691505b6020821081141561089857634e487b7160e01b600052602260045260246000fd5b50919050565b600082198211156108bf57634e487b7160e01b600052601160045260246000fd5b50019056fea2646970667358221220e7d828bf299fa9895dcd879c8f68baadcd547eefdb7f5143ed0ea645cf6c2c7d64736f6c63430008090033",
  "linkReferences": {},
  "deployedLinkReferences": {}
}