{
  "_format": "hh-sol-artifact-1",
  "contractName": "Gravity",
  "sourceName": "contracts/Gravity.sol",
  "abi": [
    {
      "inputs": [
        {
          "internalType": "bytes32",
          "name": "_gravityId",
          "type": "bytes32"
        },
        {
          "internalType": "uint256",
          "name": "_powerThreshold",
          "type": "uint256"
        },
        {
          "internalType": "address[]",
          "name": "_validators",
          "type": "address[]"
        },
        {
          "internalType": "uint256[]",
          "name": "_powers",
          "type": "uint256[]"
        }
      ],
      "stateMutability": "nonpayable",
      "type": "constructor"
    },
    {
      "anonymous": false,
      "inputs": [
        {
          "indexed": false,
          "internalType": "string",
          "name": "_cosmosDenom",
          "type": "string"
        },
        {
          "indexed": true,
          "internalType": "address",
          "name": "_tokenContract",
          "type": "address"
        },
        {
          "indexed": false,
          "internalType": "string",
          "name": "_name",
          "type": "string"
        },
        {
          "indexed": false,
          "internalType": "string",
          "name": "_symbol",
          "type": "string"
        },
        {
          "indexed": false,
          "internalType": "uint8",
          "name": "_decimals",
          "type": "uint8"
        },
        {
          "indexed": false,
          "internalType": "uint256",
          "name": "_eventNonce",
          "type": "uint256"
        }
      ],
      "name": "ERC20DeployedEvent",
      "type": "event"
    },
    {
      "anonymous": false,
      "inputs": [
        {
          "indexed": false,
          "internalType": "bytes32",
          "name": "_invalidationId",
          "type": "bytes32"
        },
        {
          "indexed": false,
          "internalType": "uint256",
          "name": "_invalidationNonce",
          "type": "uint256"
        },
        {
          "indexed": false,
          "internalType": "bytes",
          "name": "_returnData",
          "type": "bytes"
        },
        {
          "indexed": false,
          "internalType": "uint256",
          "name": "_eventNonce",
          "type": "uint256"
        }
      ],
      "name": "LogicCallEvent",
      "type": "event"
    },
    {
      "anonymous": false,
      "inputs": [
        {
          "indexed": true,
          "internalType": "address",
          "name": "_tokenContract",
          "type": "address"
        },
        {
          "indexed": true,
          "internalType": "address",
          "name": "_sender",
          "type": "address"
        },
        {
          "indexed": true,
          "internalType": "bytes32",
          "name": "_destination",
          "type": "bytes32"
        },
        {
          "indexed": false,
          "internalType": "uint256",
          "name": "_amount",
          "type": "uint256"
        },
        {
          "indexed": false,
          "internalType": "uint256",
          "name": "_eventNonce",
          "type": "uint256"
        },
        {
          "indexed": false,
          "internalType": "string",
          "name": "_name",
          "type": "string"
        },
        {
          "indexed": false,
          "internalType": "string",
          "name": "_symbol",
          "type": "string"
        },
        {
          "indexed": false,
          "internalType": "uint8",
          "name": "_decimals",
          "type": "uint8"
        }
      ],
      "name": "SendToCosmosEvent",
      "type": "event"
    },
    {
      "anonymous": false,
      "inputs": [
        {
          "indexed": true,
          "internalType": "uint256",
          "name": "_batchNonce",
          "type": "uint256"
        },
        {
          "indexed": true,
          "internalType": "address",
          "name": "_token",
          "type": "address"
        },
        {
          "indexed": false,
          "internalType": "uint256",
          "name": "_eventNonce",
          "type": "uint256"
        }
      ],
      "name": "TransactionBatchExecutedEvent",
      "type": "event"
    },
    {
      "anonymous": false,
      "inputs": [
        {
          "indexed": true,
          "internalType": "uint256",
          "name": "_newValsetNonce",
          "type": "uint256"
        },
        {
          "indexed": false,
          "internalType": "uint256",
          "name": "_eventNonce",
          "type": "uint256"
        },
        {
          "indexed": false,
          "internalType": "address[]",
          "name": "_validators",
          "type": "address[]"
        },
        {
          "indexed": false,
          "internalType": "uint256[]",
          "name": "_powers",
          "type": "uint256[]"
        }
      ],
      "name": "ValsetUpdatedEvent",
      "type": "event"
    },
    {
      "inputs": [
        {
          "internalType": "string",
          "name": "_cosmosDenom",
          "type": "string"
        },
        {
          "internalType": "string",
          "name": "_name",
          "type": "string"
        },
        {
          "internalType": "string",
          "name": "_symbol",
          "type": "string"
        },
        {
          "internalType": "uint8",
          "name": "_decimals",
          "type": "uint8"
        }
      ],
      "name": "deployERC20",
      "outputs": [],
      "stateMutability": "nonpayable",
      "type": "function"
    },
    {
      "inputs": [
        {
          "internalType": "address",
          "name": "_erc20Address",
          "type": "address"
        }
      ],
      "name": "lastBatchNonce",
      "outputs": [
        {
          "internalType": "uint256",
          "name": "",
          "type": "uint256"
        }
      ],
      "stateMutability": "view",
      "type": "function"
    },
    {
      "inputs": [
        {
          "internalType": "bytes32",
          "name": "_invalidation_id",
          "type": "bytes32"
        }
      ],
      "name": "lastLogicCallNonce",
      "outputs": [
        {
          "internalType": "uint256",
          "name": "",
          "type": "uint256"
        }
      ],
      "stateMutability": "view",
      "type": "function"
    },
    {
      "inputs": [
        {
          "internalType": "address",
          "name": "_tokenContract",
          "type": "address"
        },
        {
          "internalType": "bytes32",
          "name": "_destination",
          "type": "bytes32"
        },
        {
          "internalType": "uint256",
          "name": "_amount",
          "type": "uint256"
        }
      ],
      "name": "sendToAiax",
      "outputs": [],
      "stateMutability": "nonpayable",
      "type": "function"
    },
    {
      "inputs": [
        {
          "internalType": "address",
          "name": "_tokenContract",
          "type": "address"
        },
        {
          "internalType": "bytes32",
          "name": "_destination",
          "type": "bytes32"
        },
        {
          "internalType": "uint256",
          "name": "_amount",
          "type": "uint256"
        }
      ],
      "name": "sendToCosmos",
      "outputs": [],
      "stateMutability": "nonpayable",
      "type": "function"
    },
    {
      "inputs": [],
      "name": "state_gravityId",
      "outputs": [
        {
          "internalType": "bytes32",
          "name": "",
          "type": "bytes32"
        }
      ],
      "stateMutability": "view",
      "type": "function"
    },
    {
      "inputs": [
        {
          "internalType": "bytes32",
          "name": "",
          "type": "bytes32"
        }
      ],
      "name": "state_invalidationMapping",
      "outputs": [
        {
          "internalType": "uint256",
          "name": "",
          "type": "uint256"
        }
      ],
      "stateMutability": "view",
      "type": "function"
    },
    {
      "inputs": [
        {
          "internalType": "address",
          "name": "",
          "type": "address"
        }
      ],
      "name": "state_lastBatchNonces",
      "outputs": [
        {
          "internalType": "uint256",
          "name": "",
          "type": "uint256"
        }
      ],
      "stateMutability": "view",
      "type": "function"
    },
    {
      "inputs": [],
      "name": "state_lastEventNonce",
      "outputs": [
        {
          "internalType": "uint256",
          "name": "",
          "type": "uint256"
        }
      ],
      "stateMutability": "view",
      "type": "function"
    },
    {
      "inputs": [],
      "name": "state_lastValsetCheckpoint",
      "outputs": [
        {
          "internalType": "bytes32",
          "name": "",
          "type": "bytes32"
        }
      ],
      "stateMutability": "view",
      "type": "function"
    },
    {
      "inputs": [],
      "name": "state_lastValsetNonce",
      "outputs": [
        {
          "internalType": "uint256",
          "name": "",
          "type": "uint256"
        }
      ],
      "stateMutability": "view",
      "type": "function"
    },
    {
      "inputs": [],
      "name": "state_powerThreshold",
      "outputs": [
        {
          "internalType": "uint256",
          "name": "",
          "type": "uint256"
        }
      ],
      "stateMutability": "view",
      "type": "function"
    },
    {
      "inputs": [
        {
          "internalType": "address[]",
          "name": "_currentValidators",
          "type": "address[]"
        },
        {
          "internalType": "uint256[]",
          "name": "_currentPowers",
          "type": "uint256[]"
        },
        {
          "internalType": "uint256",
          "name": "_currentValsetNonce",
          "type": "uint256"
        },
        {
          "internalType": "uint8[]",
          "name": "_v",
          "type": "uint8[]"
        },
        {
          "internalType": "bytes32[]",
          "name": "_r",
          "type": "bytes32[]"
        },
        {
          "internalType": "bytes32[]",
          "name": "_s",
          "type": "bytes32[]"
        },
        {
          "internalType": "uint256[]",
          "name": "_amounts",
          "type": "uint256[]"
        },
        {
          "internalType": "address[]",
          "name": "_destinations",
          "type": "address[]"
        },
        {
          "internalType": "uint256[]",
          "name": "_fees",
          "type": "uint256[]"
        },
        {
          "internalType": "uint256",
          "name": "_batchNonce",
          "type": "uint256"
        },
        {
          "internalType": "address",
          "name": "_tokenContract",
          "type": "address"
        },
        {
          "internalType": "uint256",
          "name": "_batchTimeout",
          "type": "uint256"
        }
      ],
      "name": "submitBatch",
      "outputs": [],
      "stateMutability": "nonpayable",
      "type": "function"
    },
    {
      "inputs": [
        {
          "internalType": "address[]",
          "name": "_currentValidators",
          "type": "address[]"
        },
        {
          "internalType": "uint256[]",
          "name": "_currentPowers",
          "type": "uint256[]"
        },
        {
          "internalType": "uint256",
          "name": "_currentValsetNonce",
          "type": "uint256"
        },
        {
          "internalType": "uint8[]",
          "name": "_v",
          "type": "uint8[]"
        },
        {
          "internalType": "bytes32[]",
          "name": "_r",
          "type": "bytes32[]"
        },
        {
          "internalType": "bytes32[]",
          "name": "_s",
          "type": "bytes32[]"
        },
        {
          "components": [
            {
              "internalType": "uint256[]",
              "name": "transferAmounts",
              "type": "uint256[]"
            },
            {
              "internalType": "address[]",
              "name": "transferTokenContracts",
              "type": "address[]"
            },
            {
              "internalType": "uint256[]",
              "name": "feeAmounts",
              "type": "uint256[]"
            },
            {
              "internalType": "address[]",
              "name": "feeTokenContracts",
              "type": "address[]"
            },
            {
              "internalType": "address",
              "name": "logicContractAddress",
              "type": "address"
            },
            {
              "internalType": "bytes",
              "name": "payload",
              "type": "bytes"
            },
            {
              "internalType": "uint256",
              "name": "timeOut",
              "type": "uint256"
            },
            {
              "internalType": "bytes32",
              "name": "invalidationId",
              "type": "bytes32"
            },
            {
              "internalType": "uint256",
              "name": "invalidationNonce",
              "type": "uint256"
            }
          ],
          "internalType": "struct LogicCallArgs",
          "name": "_args",
          "type": "tuple"
        }
      ],
      "name": "submitLogicCall",
      "outputs": [],
      "stateMutability": "nonpayable",
      "type": "function"
    },
    {
      "inputs": [
        {
          "internalType": "address[]",
          "name": "_newValidators",
          "type": "address[]"
        },
        {
          "internalType": "uint256[]",
          "name": "_newPowers",
          "type": "uint256[]"
        },
        {
          "internalType": "uint256",
          "name": "_newValsetNonce",
          "type": "uint256"
        },
        {
          "internalType": "address[]",
          "name": "_currentValidators",
          "type": "address[]"
        },
        {
          "internalType": "uint256[]",
          "name": "_currentPowers",
          "type": "uint256[]"
        },
        {
          "internalType": "uint256",
          "name": "_currentValsetNonce",
          "type": "uint256"
        },
        {
          "internalType": "uint8[]",
          "name": "_v",
          "type": "uint8[]"
        },
        {
          "internalType": "bytes32[]",
          "name": "_r",
          "type": "bytes32[]"
        },
        {
          "internalType": "bytes32[]",
          "name": "_s",
          "type": "bytes32[]"
        }
      ],
      "name": "updateValset",
      "outputs": [],
      "stateMutability": "nonpayable",
      "type": "function"
    }
  ],
  "bytecode": "0x6080604052600060045560016005553480156200001b57600080fd5b50604051620045be380380620045be8339810160408190526200003e91620004a1565b600160005580518251146200009a5760405162461bcd60e51b815260206004820152601f60248201527f4d616c666f726d65642063757272656e742076616c696461746f72207365740060448201526064015b60405180910390fd5b6000805b8251811015620000f857828181518110620000bd57620000bd62000594565b602002602001015182620000d29190620005c0565b915084821115620000e357620000f8565b80620000ef81620005db565b9150506200009e565b50838111620001705760405162461bcd60e51b815260206004820152603c60248201527f5375626d69747465642076616c696461746f7220736574207369676e6174757260448201527f657320646f206e6f74206861766520656e6f75676820706f7765722e00000000606482015260840162000091565b600062000180848483896200034a565b60068790556007869055600181905560045460055460405192935090917fb119f1f36224601586b5037da909ecf37e83864dddea5d32ad4e32ac1d97e62b91620001ce918890889062000671565b60405180910390a26000306012604051620001e990620003b1565b6001600160a01b039092168252608060208301819052600a908301526920b4b0bc103a37b5b2b760b11b60a083015260c06040830181905260039083015262082b0b60eb1b60e083015260ff16606082015261010001604051809103906000f0801580156200025c573d6000803e3d6000fd5b5090506200027c60016005546200039c60201b62000f9c1790919060201c565b600581905550806001600160a01b03167f82fe3a4fa49c6382d0c085746698ddbbafe6c2bf61285b19410644b5b26287c7826001600160a01b031663313ce5676040518163ffffffff1660e01b815260040160206040518083038186803b158015620002e757600080fd5b505afa158015620002fc573d6000803e3d6000fd5b505050506040513d601f19601f82011682018060405250810190620003229190620006aa565b60055460405162000335929190620006cf565b60405180910390a2505050505050506200078f565b6040516000906918da1958dadc1bda5b9d60b21b90829062000379908590849088908b908b9060200162000748565b60408051808303601f190181529190528051602090910120979650505050505050565b6000620003aa8284620005c0565b9392505050565b610c95806200392983390190565b634e487b7160e01b600052604160045260246000fd5b604051601f8201601f191681016001600160401b0381118282101715620004005762000400620003bf565b604052919050565b60006001600160401b03821115620004245762000424620003bf565b5060051b60200190565b600082601f8301126200044057600080fd5b8151602062000459620004538362000408565b620003d5565b82815260059290921b840181019181810190868411156200047957600080fd5b8286015b848110156200049657805183529183019183016200047d565b509695505050505050565b60008060008060808587031215620004b857600080fd5b845160208087015160408801519296509450906001600160401b0380821115620004e157600080fd5b818801915088601f830112620004f657600080fd5b815162000507620004538262000408565b81815260059190911b8301840190848101908b8311156200052757600080fd5b938501935b828510156200055e5784516001600160a01b03811681146200054e5760008081fd5b825293850193908501906200052c565b60608b015190975094505050808311156200057857600080fd5b505062000588878288016200042e565b91505092959194509250565b634e487b7160e01b600052603260045260246000fd5b634e487b7160e01b600052601160045260246000fd5b60008219821115620005d657620005d6620005aa565b500190565b6000600019821415620005f257620005f2620005aa565b5060010190565b600081518084526020808501945080840160005b83811015620006345781516001600160a01b0316875295820195908201906001016200060d565b509495945050505050565b600081518084526020808501945080840160005b83811015620006345781518752958201959082019060010162000653565b8381526060602082015260006200068c6060830185620005f9565b8281036040840152620006a081856200063f565b9695505050505050565b600060208284031215620006bd57600080fd5b815160ff81168114620003aa57600080fd5b60a08152600560a0820152640c2c2d2c2f60db1b60c082015260e0602082015260006200071060e0830160048152630c2d2c2f60e31b602082015260400190565b8281036040840152620007348160048152630c2d2c2f60e31b602082015260400190565b60ff95909516606084015250506080015290565b85815284602082015283604082015260a0606082015260006200076f60a0830185620005f9565b82810360808401526200078381856200063f565b98975050505050505050565b61318a806200079f6000396000f3fe60806040523480156200001157600080fd5b5060043610620001095760003560e01c8063b56561fe11620000a3578063e3cb9f62116200006e578063e3cb9f621462000231578063e5a2b5d21462000248578063f2b533071462000252578063f7955637146200025c57600080fd5b8063b56561fe14620001d7578063bdda81d414620001e1578063c9d194d514620001eb578063df97174b146200020e57600080fd5b806373b2054711620000e457806373b20547146200017c5780637dfb6f86146200018657806383b435db14620001a95780639bf5e11014620001c057600080fd5b8063011b2174146200010e5780630c246c82146200014c5780631ffbe7f91462000165575b600080fd5b6200013a6200011f36600462001633565b6001600160a01b031660009081526002602052604090205490565b60405190815260200160405180910390f35b620001636200015d366004620019ed565b62000273565b005b620001636200017636600462001aff565b620006c3565b6200013a60055481565b6200013a6200019736600462001b35565b60036020526000908152604090205481565b62000163620001ba36600462001b4f565b620008f3565b62000163620001d136600462001aff565b62000ca4565b6200013a60045481565b6200013a60065481565b6200013a620001fc36600462001b35565b60009081526003602052604090205490565b6200013a6200021f36600462001633565b60026020526000908152604090205481565b620001636200024236600462001d0f565b62000ce6565b6200013a60075481565b6200013a60015481565b620001636200026d36600462001e53565b62000ef0565b60026000541415620002a25760405162461bcd60e51b8152600401620002999062001ef9565b60405180910390fd5b600260005560c08101514310620002e85760405162461bcd60e51b8152602060048201526009602482015268151a5b5959081bdd5d60ba1b604482015260640162000299565b61010081015160e082015160009081526003602052604090205410620003775760405162461bcd60e51b815260206004820152603d60248201527f4e657720696e76616c69646174696f6e206e6f6e6365206d757374206265206760448201527f726561746572207468616e207468652063757272656e74206e6f6e6365000000606482015260840162000299565b855187511480156200038a575083518751145b801562000398575082518751145b8015620003a6575081518751145b620003c55760405162461bcd60e51b8152600401620002999062001f30565b600154620003d888888860065462000fb1565b14620003f85760405162461bcd60e51b8152600401620002999062001f67565b602081015151815151146200045a5760405162461bcd60e51b815260206004820152602160248201527f4d616c666f726d6564206c697374206f6620746f6b656e207472616e736665726044820152607360f81b606482015260840162000299565b80606001515181604001515114620004ae5760405162461bcd60e51b81526020600482015260166024820152754d616c666f726d6564206c697374206f66206665657360501b604482015260640162000299565b6000600654681b1bd9da58d0d85b1b60ba1b836000015184602001518560400151866060015187608001518860a001518960c001518a60e001518b61010001516040516020016200050a9b9a9998979695949392919062002099565b6040516020818303038152906040528051906020012090506200053588888787878660075462001003565b61010082015160e08301516000908152600360205260408120919091555b825151811015620005d757620005c283608001518460000151838151811062000580576200058062002149565b602002602001015185602001518481518110620005a157620005a162002149565b60200260200101516001600160a01b0316620011e49092919063ffffffff16565b80620005ce8162002175565b91505062000553565b506000620005ee83608001518460a001516200124e565b905060005b83604001515181101562000655576200064033856040015183815181106200061f576200061f62002149565b602002602001015186606001518481518110620005a157620005a162002149565b806200064c8162002175565b915050620005f3565b506005546200066690600162000f9c565b600581905560e08401516101008501516040517f7c2bb24f8e1b3725cb613d7f11ef97d9745cc97a0e40f730621c052d684077a193620006ab93929186919062002193565b60405180910390a15050600160005550505050505050565b60026000541415620006e95760405162461bcd60e51b8152600401620002999062001ef9565b6002600055620007056001600160a01b03841633308462001292565b6005546200071590600162000f9c565b6005819055506000836001600160a01b03166306fdde036040518163ffffffff1660e01b815260040160006040518083038186803b1580156200075757600080fd5b505afa1580156200076c573d6000803e3d6000fd5b505050506040513d6000823e601f3d908101601f19168201604052620007969190810190620021c5565b90506000846001600160a01b03166395d89b416040518163ffffffff1660e01b815260040160006040518083038186803b158015620007d457600080fd5b505afa158015620007e9573d6000803e3d6000fd5b505050506040513d6000823e601f3d908101601f19168201604052620008139190810190620021c5565b90506000856001600160a01b031663313ce5676040518163ffffffff1660e01b815260040160206040518083038186803b1580156200085157600080fd5b505afa15801562000866573d6000803e3d6000fd5b505050506040513d601f19601f820116820180604052508101906200088c919062002244565b905084336001600160a01b0316876001600160a01b03167f457d57c3b144bf85ac1f8e9d2f11f6166b0434ca428ce8ac3f50df44afd516e587600554888888604051620008de95949392919062002264565b60405180910390a45050600160005550505050565b60026000541415620009195760405162461bcd60e51b8152600401620002999062001ef9565b600260008181556001600160a01b038416815260209190915260409020548311620009a65760405162461bcd60e51b815260206004820152603660248201527f4e6577206261746368206e6f6e6365206d7573742062652067726561746572206044820152757468616e207468652063757272656e74206e6f6e636560501b606482015260840162000299565b80431062000a1d5760405162461bcd60e51b815260206004820152603b60248201527f42617463682074696d656f7574206d757374206265206772656174657220746860448201527f616e207468652063757272656e7420626c6f636b206865696768740000000000606482015260840162000299565b8a518c5114801562000a30575088518c51145b801562000a3e575087518c51145b801562000a4c575086518c51145b62000a6b5760405162461bcd60e51b8152600401620002999062001f30565b60015462000a7e8d8d8d60065462000fb1565b1462000a9e5760405162461bcd60e51b8152600401620002999062001f67565b8451865114801562000ab1575083518651145b62000aff5760405162461bcd60e51b815260206004820152601f60248201527f4d616c666f726d6564206261746368206f66207472616e73616374696f6e7300604482015260640162000299565b62000b5d8c8c8b8b8b6006546f0e8e4c2dce6c2c6e8d2dedc84c2e8c6d60831b8d8d8d8d8d8d60405160200162000b3e989796959493929190620022af565b6040516020818303038152906040528051906020012060075462001003565b6001600160a01b0382166000908152600260205260408120849055805b875181101562000c245762000bdc87828151811062000b9d5762000b9d62002149565b602002602001015189838151811062000bba5762000bba62002149565b6020026020010151866001600160a01b0316620011e49092919063ffffffff16565b62000c0d86828151811062000bf55762000bf562002149565b60200260200101518362000f9c90919063ffffffff16565b91508062000c1b8162002175565b91505062000b7a565b5062000c3b6001600160a01b0384163383620011e4565b5060055462000c4c90600162000f9c565b60058190556040519081526001600160a01b0383169084907f02c7e81975f8edb86e2a0c038b7b86a49c744236abf0f6177ff5afc6986ab7089060200160405180910390a35050600160005550505050505050505050565b6002600054141562000cca5760405162461bcd60e51b8152600401620002999062001ef9565b600260005562000cdc838383620006c3565b5050600160005550565b6002600054141562000d0c5760405162461bcd60e51b8152600401620002999062001ef9565b600260005583871162000d885760405162461bcd60e51b815260206004820152603760248201527f4e65772076616c736574206e6f6e6365206d757374206265206772656174657260448201527f207468616e207468652063757272656e74206e6f6e6365000000000000000000606482015260840162000299565b875189511462000ddb5760405162461bcd60e51b815260206004820152601b60248201527f4d616c666f726d6564206e65772076616c696461746f72207365740000000000604482015260640162000299565b8451865114801562000dee575082518651145b801562000dfc575081518651145b801562000e0a575080518651145b62000e295760405162461bcd60e51b8152600401620002999062001f30565b60015462000e3c87878760065462000fb1565b1462000e5c5760405162461bcd60e51b8152600401620002999062001f67565b600062000e6e8a8a8a60065462000fb1565b905062000e8387878686868660075462001003565b6001818155600489905560055462000e9b9162000f9c565b600581905560405189917fb119f1f36224601586b5037da909ecf37e83864dddea5d32ad4e32ac1d97e62b9162000ed791908e908e9062002327565b60405180910390a2505060016000555050505050505050565b60003084848460405162000f049062001608565b62000f13949392919062002360565b604051809103906000f08015801562000f30573d6000803e3d6000fd5b5060055490915062000f4490600162000f9c565b60058190556040516001600160a01b038316917f82fe3a4fa49c6382d0c085746698ddbbafe6c2bf61285b19410644b5b26287c79162000f8d91899189918991899190620023af565b60405180910390a25050505050565b600062000faa828462002406565b9392505050565b6040516000906918da1958dadc1bda5b9d60b21b90829062000fe0908590849088908b908b9060200162002421565b60408051808303601f190181529190528051602090910120979650505050505050565b6000805b8851811015620011625786818151811062001026576200102662002149565b602002602001015160ff166000146200114d57620010b889828151811062001052576200105262002149565b60200260200101518589848151811062001070576200107062002149565b60200260200101518985815181106200108d576200108d62002149565b6020026020010151898681518110620010aa57620010aa62002149565b6020026020010151620012d2565b620011125760405162461bcd60e51b815260206004820152602360248201527f56616c696461746f72207369676e617475726520646f6573206e6f74206d617460448201526231b41760e91b606482015260840162000299565b87818151811062001127576200112762002149565b6020026020010151826200113c919062002406565b9150828211156200114d5762001162565b80620011598162002175565b91505062001007565b50818111620011da5760405162461bcd60e51b815260206004820152603c60248201527f5375626d69747465642076616c696461746f7220736574207369676e6174757260448201527f657320646f206e6f74206861766520656e6f75676820706f7765722e00000000606482015260840162000299565b5050505050505050565b6040516001600160a01b0383166024820152604481018290526200124990849063a9059cbb60e01b906064015b60408051601f198184030181529190526020810180516001600160e01b03166001600160e01b0319909316929092179091526200139d565b505050565b606062000faa83836040518060400160405280601e81526020017f416464726573733a206c6f772d6c6576656c2063616c6c206661696c6564000081525062001476565b6040516001600160a01b0380851660248301528316604482015260648101829052620012cc9085906323b872dd60e01b9060840162001211565b50505050565b6040517f19457468657265756d205369676e6564204d6573736167653a0a3332000000006020820152603c81018590526000908190605c0160408051601f1981840301815282825280516020918201206000845290830180835281905260ff8816918301919091526060820186905260808201859052915060019060a0016020604051602081039080840390855afa15801562001373573d6000803e3d6000fd5b505050602060405103516001600160a01b0316876001600160a01b03161491505095945050505050565b6000620013f4826040518060400160405280602081526020017f5361666545524332303a206c6f772d6c6576656c2063616c6c206661696c6564815250856001600160a01b0316620014769092919063ffffffff16565b80519091501562001249578080602001905181019062001415919062002468565b620012495760405162461bcd60e51b815260206004820152602a60248201527f5361666545524332303a204552433230206f7065726174696f6e20646964206e6044820152691bdd081cdd58d8d9595960b21b606482015260840162000299565b60606200148784846000856200148f565b949350505050565b606082471015620014f25760405162461bcd60e51b815260206004820152602660248201527f416464726573733a20696e73756666696369656e742062616c616e636520666f6044820152651c8818d85b1b60d21b606482015260840162000299565b6001600160a01b0385163b6200154b5760405162461bcd60e51b815260206004820152601d60248201527f416464726573733a2063616c6c20746f206e6f6e2d636f6e7472616374000000604482015260640162000299565b600080866001600160a01b031685876040516200156991906200248c565b60006040518083038185875af1925050503d8060008114620015a8576040519150601f19603f3d011682016040523d82523d6000602084013e620015ad565b606091505b5091509150620015bf828286620015ca565b979650505050505050565b60608315620015db57508162000faa565b825115620015ec5782518084602001fd5b8160405162461bcd60e51b8152600401620002999190620024aa565b610c9580620024c083390190565b80356001600160a01b03811681146200162e57600080fd5b919050565b6000602082840312156200164657600080fd5b62000faa8262001616565b634e487b7160e01b600052604160045260246000fd5b60405161012081016001600160401b03811182821017156200168d576200168d62001651565b60405290565b604051601f8201601f191681016001600160401b0381118282101715620016be57620016be62001651565b604052919050565b60006001600160401b03821115620016e257620016e262001651565b5060051b60200190565b600082601f830112620016fe57600080fd5b81356020620017176200171183620016c6565b62001693565b82815260059290921b840181019181810190868411156200173757600080fd5b8286015b848110156200175d576200174f8162001616565b83529183019183016200173b565b509695505050505050565b600082601f8301126200177a57600080fd5b813560206200178d6200171183620016c6565b82815260059290921b84018101918181019086841115620017ad57600080fd5b8286015b848110156200175d5780358352918301918301620017b1565b60ff81168114620017da57600080fd5b50565b600082601f830112620017ef57600080fd5b81356020620018026200171183620016c6565b82815260059290921b840181019181810190868411156200182257600080fd5b8286015b848110156200175d5780356200183c81620017ca565b835291830191830162001826565b60006001600160401b0382111562001866576200186662001651565b50601f01601f191660200190565b600082601f8301126200188657600080fd5b81356200189762001711826200184a565b818152846020838601011115620018ad57600080fd5b816020850160208301376000918101602001919091529392505050565b60006101208284031215620018de57600080fd5b620018e862001667565b905081356001600160401b03808211156200190257600080fd5b620019108583860162001768565b835260208401359150808211156200192757600080fd5b6200193585838601620016ec565b602084015260408401359150808211156200194f57600080fd5b6200195d8583860162001768565b604084015260608401359150808211156200197757600080fd5b6200198585838601620016ec565b6060840152620019986080850162001616565b608084015260a0840135915080821115620019b257600080fd5b50620019c18482850162001874565b60a08301525060c082013560c082015260e082013560e082015261010080830135818301525092915050565b600080600080600080600060e0888a03121562001a0957600080fd5b87356001600160401b038082111562001a2157600080fd5b62001a2f8b838c01620016ec565b985060208a013591508082111562001a4657600080fd5b62001a548b838c0162001768565b975060408a0135965060608a013591508082111562001a7257600080fd5b62001a808b838c01620017dd565b955060808a013591508082111562001a9757600080fd5b62001aa58b838c0162001768565b945060a08a013591508082111562001abc57600080fd5b62001aca8b838c0162001768565b935060c08a013591508082111562001ae157600080fd5b5062001af08a828b01620018ca565b91505092959891949750929550565b60008060006060848603121562001b1557600080fd5b62001b208462001616565b95602085013595506040909401359392505050565b60006020828403121562001b4857600080fd5b5035919050565b6000806000806000806000806000806000806101808d8f03121562001b7357600080fd5b6001600160401b038d35111562001b8957600080fd5b62001b988e8e358f01620016ec565b9b506001600160401b0360208e0135111562001bb357600080fd5b62001bc58e60208f01358f0162001768565b9a5060408d013599506001600160401b0360608e0135111562001be757600080fd5b62001bf98e60608f01358f01620017dd565b98506001600160401b0360808e0135111562001c1457600080fd5b62001c268e60808f01358f0162001768565b97506001600160401b0360a08e0135111562001c4157600080fd5b62001c538e60a08f01358f0162001768565b96506001600160401b0360c08e0135111562001c6e57600080fd5b62001c808e60c08f01358f0162001768565b95506001600160401b0360e08e0135111562001c9b57600080fd5b62001cad8e60e08f01358f01620016ec565b94506001600160401b036101008e0135111562001cc957600080fd5b62001cdc8e6101008f01358f0162001768565b93506101208d0135925062001cf56101408e0162001616565b91506101608d013590509295989b509295989b509295989b565b60008060008060008060008060006101208a8c03121562001d2f57600080fd5b89356001600160401b038082111562001d4757600080fd5b62001d558d838e01620016ec565b9a5060208c013591508082111562001d6c57600080fd5b62001d7a8d838e0162001768565b995060408c0135985060608c013591508082111562001d9857600080fd5b62001da68d838e01620016ec565b975060808c013591508082111562001dbd57600080fd5b62001dcb8d838e0162001768565b965060a08c0135955060c08c013591508082111562001de957600080fd5b62001df78d838e01620017dd565b945060e08c013591508082111562001e0e57600080fd5b62001e1c8d838e0162001768565b93506101008c013591508082111562001e3457600080fd5b5062001e438c828d0162001768565b9150509295985092959850929598565b6000806000806080858703121562001e6a57600080fd5b84356001600160401b038082111562001e8257600080fd5b62001e908883890162001874565b9550602087013591508082111562001ea757600080fd5b62001eb58883890162001874565b9450604087013591508082111562001ecc57600080fd5b5062001edb8782880162001874565b925050606085013562001eee81620017ca565b939692955090935050565b6020808252601f908201527f5265656e7472616e637947756172643a207265656e7472616e742063616c6c00604082015260600190565b6020808252601f908201527f4d616c666f726d65642063757272656e742076616c696461746f722073657400604082015260600190565b6020808252603f908201527f537570706c6965642063757272656e742076616c696461746f727320616e642060408201527f706f7765727320646f206e6f74206d6174636820636865636b706f696e742e00606082015260800190565b600081518084526020808501945080840160005b8381101562001ff65781518752958201959082019060010162001fd8565b509495945050505050565b600081518084526020808501945080840160005b8381101562001ff65781516001600160a01b03168752958201959082019060010162002015565b60005b83811015620020595781810151838201526020016200203f565b83811115620012cc5750506000910152565b60008151808452620020858160208601602086016200203c565b601f01601f19169290920160200192915050565b60006101608d83528c6020840152806040840152620020bb8184018d62001fc4565b90508281036060840152620020d1818c62002001565b90508281036080840152620020e7818b62001fc4565b905082810360a0840152620020fd818a62002001565b6001600160a01b03891660c085015283810360e085015290506200212281886200206b565b61010084019690965250506101208101929092526101409091015298975050505050505050565b634e487b7160e01b600052603260045260246000fd5b634e487b7160e01b600052601160045260246000fd5b60006000198214156200218c576200218c6200215f565b5060010190565b848152836020820152608060408201526000620021b460808301856200206b565b905082606083015295945050505050565b600060208284031215620021d857600080fd5b81516001600160401b03811115620021ef57600080fd5b8201601f810184136200220157600080fd5b80516200221262001711826200184a565b8181528560208385010111156200222857600080fd5b6200223b8260208301602086016200203c565b95945050505050565b6000602082840312156200225757600080fd5b815162000faa81620017ca565b85815284602082015260a0604082015260006200228560a08301866200206b565b82810360608401526200229981866200206b565b91505060ff831660808301529695505050505050565b60006101008a8352896020840152806040840152620022d18184018a62001fc4565b90508281036060840152620022e7818962002001565b90508281036080840152620022fd818862001fc4565b60a084019690965250506001600160a01b039290921660c083015260e09091015295945050505050565b83815260606020820152600062002342606083018562002001565b828103604084015262002356818562001fc4565b9695505050505050565b6001600160a01b038516815260806020820181905260009062002386908301866200206b565b82810360408401526200239a81866200206b565b91505060ff8316606083015295945050505050565b60a081526000620023c460a08301886200206b565b8281036020840152620023d881886200206b565b90508281036040840152620023ee81876200206b565b60ff9590951660608401525050608001529392505050565b600082198211156200241c576200241c6200215f565b500190565b85815284602082015283604082015260a0606082015260006200244860a083018562002001565b82810360808401526200245c818562001fc4565b98975050505050505050565b6000602082840312156200247b57600080fd5b8151801515811462000faa57600080fd5b60008251620024a08184602087016200203c565b9190910192915050565b60208152600062000faa60208301846200206b56fe60806040526000196005553480156200001757600080fd5b5060405162000c9538038062000c958339810160408190526200003a91620002f0565b825183908390620000539060039060208501906200017d565b508051620000699060049060208401906200017d565b50506006805460ff191660ff8416179055506005546200008b90859062000095565b50505050620003f8565b6001600160a01b038216620000f05760405162461bcd60e51b815260206004820152601f60248201527f45524332303a206d696e7420746f20746865207a65726f206164647265737300604482015260640160405180910390fd5b806002600082825462000104919062000394565b90915550506001600160a01b038216600090815260208190526040812080548392906200013390849062000394565b90915550506040518181526001600160a01b038316906000907fddf252ad1be2c89b69c2b068fc378daa952ba7f163c4a11628f55a4df523b3ef9060200160405180910390a35050565b8280546200018b90620003bb565b90600052602060002090601f016020900481019282620001af5760008555620001fa565b82601f10620001ca57805160ff1916838001178555620001fa565b82800160010185558215620001fa579182015b82811115620001fa578251825591602001919060010190620001dd565b50620002089291506200020c565b5090565b5b808211156200020857600081556001016200020d565b634e487b7160e01b600052604160045260246000fd5b600082601f8301126200024b57600080fd5b81516001600160401b038082111562000268576200026862000223565b604051601f8301601f19908116603f0116810190828211818310171562000293576200029362000223565b81604052838152602092508683858801011115620002b057600080fd5b600091505b83821015620002d45785820183015181830184015290820190620002b5565b83821115620002e65760008385830101525b9695505050505050565b600080600080608085870312156200030757600080fd5b84516001600160a01b03811681146200031f57600080fd5b60208601519094506001600160401b03808211156200033d57600080fd5b6200034b8883890162000239565b945060408701519150808211156200036257600080fd5b50620003718782880162000239565b925050606085015160ff811681146200038957600080fd5b939692955090935050565b60008219821115620003b657634e487b7160e01b600052601160045260246000fd5b500190565b600181811c90821680620003d057607f821691505b60208210811415620003f257634e487b7160e01b600052602260045260246000fd5b50919050565b61088d80620004086000396000f3fe608060405234801561001057600080fd5b50600436106100a95760003560e01c80633950935111610071578063395093511461012957806370a082311461013c57806395d89b4114610165578063a457c2d71461016d578063a9059cbb14610180578063dd62ed3e1461019357600080fd5b806306fdde03146100ae578063095ea7b3146100cc57806318160ddd146100ef57806323b872dd14610101578063313ce56714610114575b600080fd5b6100b66101a6565b6040516100c391906106ca565b60405180910390f35b6100df6100da36600461073b565b610238565b60405190151581526020016100c3565b6002545b6040519081526020016100c3565b6100df61010f366004610765565b610250565b60065460405160ff90911681526020016100c3565b6100df61013736600461073b565b610274565b6100f361014a3660046107a1565b6001600160a01b031660009081526020819052604090205490565b6100b6610296565b6100df61017b36600461073b565b6102a5565b6100df61018e36600461073b565b610325565b6100f36101a13660046107c3565b610333565b6060600380546101b5906107f6565b80601f01602080910402602001604051908101604052809291908181526020018280546101e1906107f6565b801561022e5780601f106102035761010080835404028352916020019161022e565b820191906000526020600020905b81548152906001019060200180831161021157829003601f168201915b5050505050905090565b60003361024681858561035e565b5060019392505050565b60003361025e858285610482565b6102698585856104fc565b506001949350505050565b6000336102468185856102878383610333565b6102919190610831565b61035e565b6060600480546101b5906107f6565b600033816102b38286610333565b9050838110156103185760405162461bcd60e51b815260206004820152602560248201527f45524332303a2064656372656173656420616c6c6f77616e63652062656c6f77604482015264207a65726f60d81b60648201526084015b60405180910390fd5b610269828686840361035e565b6000336102468185856104fc565b6001600160a01b03918216600090815260016020908152604080832093909416825291909152205490565b6001600160a01b0383166103c05760405162461bcd60e51b8152602060048201526024808201527f45524332303a20617070726f76652066726f6d20746865207a65726f206164646044820152637265737360e01b606482015260840161030f565b6001600160a01b0382166104215760405162461bcd60e51b815260206004820152602260248201527f45524332303a20617070726f766520746f20746865207a65726f206164647265604482015261737360f01b606482015260840161030f565b6001600160a01b0383811660008181526001602090815260408083209487168084529482529182902085905590518481527f8c5be1e5ebec7d5bd14f71427d1e84f3dd0314c0f7b2291e5b200ac8c7c3b925910160405180910390a3505050565b600061048e8484610333565b905060001981146104f657818110156104e95760405162461bcd60e51b815260206004820152601d60248201527f45524332303a20696e73756666696369656e7420616c6c6f77616e6365000000604482015260640161030f565b6104f6848484840361035e565b50505050565b6001600160a01b0383166105605760405162461bcd60e51b815260206004820152602560248201527f45524332303a207472616e736665722066726f6d20746865207a65726f206164604482015264647265737360d81b606482015260840161030f565b6001600160a01b0382166105c25760405162461bcd60e51b815260206004820152602360248201527f45524332303a207472616e7366657220746f20746865207a65726f206164647260448201526265737360e81b606482015260840161030f565b6001600160a01b0383166000908152602081905260409020548181101561063a5760405162461bcd60e51b815260206004820152602660248201527f45524332303a207472616e7366657220616d6f756e7420657863656564732062604482015265616c616e636560d01b606482015260840161030f565b6001600160a01b03808516600090815260208190526040808220858503905591851681529081208054849290610671908490610831565b92505081905550826001600160a01b0316846001600160a01b03167fddf252ad1be2c89b69c2b068fc378daa952ba7f163c4a11628f55a4df523b3ef846040516106bd91815260200190565b60405180910390a36104f6565b600060208083528351808285015260005b818110156106f7578581018301518582016040015282016106db565b81811115610709576000604083870101525b50601f01601f1916929092016040019392505050565b80356001600160a01b038116811461073657600080fd5b919050565b6000806040838503121561074e57600080fd5b6107578361071f565b946020939093013593505050565b60008060006060848603121561077a57600080fd5b6107838461071f565b92506107916020850161071f565b9150604084013590509250925092565b6000602082840312156107b357600080fd5b6107bc8261071f565b9392505050565b600080604083850312156107d657600080fd5b6107df8361071f565b91506107ed6020840161071f565b90509250929050565b600181811c9082168061080a57607f821691505b6020821081141561082b57634e487b7160e01b600052602260045260246000fd5b50919050565b6000821982111561085257634e487b7160e01b600052601160045260246000fd5b50019056fea26469706673582212205e946deb57940b8a0b94480cd68e8ade54e5735ecdbfff710992d3ebd61ea5f964736f6c63430008090033a26469706673582212200aed92fe3837d578ba3818e084c463082e023a0a927aeccb286cd66f18dea36764736f6c6343000809003360806040526000196005553480156200001757600080fd5b5060405162000c9538038062000c958339810160408190526200003a91620002f0565b825183908390620000539060039060208501906200017d565b508051620000699060049060208401906200017d565b50506006805460ff191660ff8416179055506005546200008b90859062000095565b50505050620003f8565b6001600160a01b038216620000f05760405162461bcd60e51b815260206004820152601f60248201527f45524332303a206d696e7420746f20746865207a65726f206164647265737300604482015260640160405180910390fd5b806002600082825462000104919062000394565b90915550506001600160a01b038216600090815260208190526040812080548392906200013390849062000394565b90915550506040518181526001600160a01b038316906000907fddf252ad1be2c89b69c2b068fc378daa952ba7f163c4a11628f55a4df523b3ef9060200160405180910390a35050565b8280546200018b90620003bb565b90600052602060002090601f016020900481019282620001af5760008555620001fa565b82601f10620001ca57805160ff1916838001178555620001fa565b82800160010185558215620001fa579182015b82811115620001fa578251825591602001919060010190620001dd565b50620002089291506200020c565b5090565b5b808211156200020857600081556001016200020d565b634e487b7160e01b600052604160045260246000fd5b600082601f8301126200024b57600080fd5b81516001600160401b038082111562000268576200026862000223565b604051601f8301601f19908116603f0116810190828211818310171562000293576200029362000223565b81604052838152602092508683858801011115620002b057600080fd5b600091505b83821015620002d45785820183015181830184015290820190620002b5565b83821115620002e65760008385830101525b9695505050505050565b600080600080608085870312156200030757600080fd5b84516001600160a01b03811681146200031f57600080fd5b60208601519094506001600160401b03808211156200033d57600080fd5b6200034b8883890162000239565b945060408701519150808211156200036257600080fd5b50620003718782880162000239565b925050606085015160ff811681146200038957600080fd5b939692955090935050565b60008219821115620003b657634e487b7160e01b600052601160045260246000fd5b500190565b600181811c90821680620003d057607f821691505b60208210811415620003f257634e487b7160e01b600052602260045260246000fd5b50919050565b61088d80620004086000396000f3fe608060405234801561001057600080fd5b50600436106100a95760003560e01c80633950935111610071578063395093511461012957806370a082311461013c57806395d89b4114610165578063a457c2d71461016d578063a9059cbb14610180578063dd62ed3e1461019357600080fd5b806306fdde03146100ae578063095ea7b3146100cc57806318160ddd146100ef57806323b872dd14610101578063313ce56714610114575b600080fd5b6100b66101a6565b6040516100c391906106ca565b60405180910390f35b6100df6100da36600461073b565b610238565b60405190151581526020016100c3565b6002545b6040519081526020016100c3565b6100df61010f366004610765565b610250565b60065460405160ff90911681526020016100c3565b6100df61013736600461073b565b610274565b6100f361014a3660046107a1565b6001600160a01b031660009081526020819052604090205490565b6100b6610296565b6100df61017b36600461073b565b6102a5565b6100df61018e36600461073b565b610325565b6100f36101a13660046107c3565b610333565b6060600380546101b5906107f6565b80601f01602080910402602001604051908101604052809291908181526020018280546101e1906107f6565b801561022e5780601f106102035761010080835404028352916020019161022e565b820191906000526020600020905b81548152906001019060200180831161021157829003601f168201915b5050505050905090565b60003361024681858561035e565b5060019392505050565b60003361025e858285610482565b6102698585856104fc565b506001949350505050565b6000336102468185856102878383610333565b6102919190610831565b61035e565b6060600480546101b5906107f6565b600033816102b38286610333565b9050838110156103185760405162461bcd60e51b815260206004820152602560248201527f45524332303a2064656372656173656420616c6c6f77616e63652062656c6f77604482015264207a65726f60d81b60648201526084015b60405180910390fd5b610269828686840361035e565b6000336102468185856104fc565b6001600160a01b03918216600090815260016020908152604080832093909416825291909152205490565b6001600160a01b0383166103c05760405162461bcd60e51b8152602060048201526024808201527f45524332303a20617070726f76652066726f6d20746865207a65726f206164646044820152637265737360e01b606482015260840161030f565b6001600160a01b0382166104215760405162461bcd60e51b815260206004820152602260248201527f45524332303a20617070726f766520746f20746865207a65726f206164647265604482015261737360f01b606482015260840161030f565b6001600160a01b0383811660008181526001602090815260408083209487168084529482529182902085905590518481527f8c5be1e5ebec7d5bd14f71427d1e84f3dd0314c0f7b2291e5b200ac8c7c3b925910160405180910390a3505050565b600061048e8484610333565b905060001981146104f657818110156104e95760405162461bcd60e51b815260206004820152601d60248201527f45524332303a20696e73756666696369656e7420616c6c6f77616e6365000000604482015260640161030f565b6104f6848484840361035e565b50505050565b6001600160a01b0383166105605760405162461bcd60e51b815260206004820152602560248201527f45524332303a207472616e736665722066726f6d20746865207a65726f206164604482015264647265737360d81b606482015260840161030f565b6001600160a01b0382166105c25760405162461bcd60e51b815260206004820152602360248201527f45524332303a207472616e7366657220746f20746865207a65726f206164647260448201526265737360e81b606482015260840161030f565b6001600160a01b0383166000908152602081905260409020548181101561063a5760405162461bcd60e51b815260206004820152602660248201527f45524332303a207472616e7366657220616d6f756e7420657863656564732062604482015265616c616e636560d01b606482015260840161030f565b6001600160a01b03808516600090815260208190526040808220858503905591851681529081208054849290610671908490610831565b92505081905550826001600160a01b0316846001600160a01b03167fddf252ad1be2c89b69c2b068fc378daa952ba7f163c4a11628f55a4df523b3ef846040516106bd91815260200190565b60405180910390a36104f6565b600060208083528351808285015260005b818110156106f7578581018301518582016040015282016106db565b81811115610709576000604083870101525b50601f01601f1916929092016040019392505050565b80356001600160a01b038116811461073657600080fd5b919050565b6000806040838503121561074e57600080fd5b6107578361071f565b946020939093013593505050565b60008060006060848603121561077a57600080fd5b6107838461071f565b92506107916020850161071f565b9150604084013590509250925092565b6000602082840312156107b357600080fd5b6107bc8261071f565b9392505050565b600080604083850312156107d657600080fd5b6107df8361071f565b91506107ed6020840161071f565b90509250929050565b600181811c9082168061080a57607f821691505b6020821081141561082b57634e487b7160e01b600052602260045260246000fd5b50919050565b6000821982111561085257634e487b7160e01b600052601160045260246000fd5b50019056fea26469706673582212205e946deb57940b8a0b94480cd68e8ade54e5735ecdbfff710992d3ebd61ea5f964736f6c63430008090033",
  "linkReferences": {},
  "deployedLinkReferences": {}
}