{
  "_format": "hh-sol-artifact-1",
  "contractName": "GravityTest",
  "sourceName": "contracts/GravityTest.sol",
  "abi": [
    {
      "inputs": [
        {
          "internalType": "bytes32",
          "name": "_gravityId",
          "type": "bytes32"
        },
        {
          "internalType": "uint256",
          "name": "_powerThreshold",
          "type": "uint256"
        },
        {
          "internalType": "address[]",
          "name": "_validators",
          "type": "address[]"
        },
        {
          "internalType": "uint256[]",
          "name": "_powers",
          "type": "uint256[]"
        }
      ],
      "stateMutability": "nonpayable",
      "type": "constructor"
    },
    {
      "anonymous": false,
      "inputs": [
        {
          "indexed": false,
          "internalType": "string",
          "name": "_cosmosDenom",
          "type": "string"
        },
        {
          "indexed": true,
          "internalType": "address",
          "name": "_tokenContract",
          "type": "address"
        },
        {
          "indexed": false,
          "internalType": "string",
          "name": "_name",
          "type": "string"
        },
        {
          "indexed": false,
          "internalType": "string",
          "name": "_symbol",
          "type": "string"
        },
        {
          "indexed": false,
          "internalType": "uint8",
          "name": "_decimals",
          "type": "uint8"
        },
        {
          "indexed": false,
          "internalType": "uint256",
          "name": "_eventNonce",
          "type": "uint256"
        }
      ],
      "name": "ERC20DeployedEvent",
      "type": "event"
    },
    {
      "anonymous": false,
      "inputs": [
        {
          "indexed": false,
          "internalType": "bytes32",
          "name": "_invalidationId",
          "type": "bytes32"
        },
        {
          "indexed": false,
          "internalType": "uint256",
          "name": "_invalidationNonce",
          "type": "uint256"
        },
        {
          "indexed": false,
          "internalType": "bytes",
          "name": "_returnData",
          "type": "bytes"
        },
        {
          "indexed": false,
          "internalType": "uint256",
          "name": "_eventNonce",
          "type": "uint256"
        }
      ],
      "name": "LogicCallEvent",
      "type": "event"
    },
    {
      "anonymous": false,
      "inputs": [
        {
          "indexed": true,
          "internalType": "address",
          "name": "_tokenContract",
          "type": "address"
        },
        {
          "indexed": true,
          "internalType": "address",
          "name": "_sender",
          "type": "address"
        },
        {
          "indexed": true,
          "internalType": "bytes32",
          "name": "_destination",
          "type": "bytes32"
        },
        {
          "indexed": false,
          "internalType": "uint256",
          "name": "_amount",
          "type": "uint256"
        },
        {
          "indexed": false,
          "internalType": "uint256",
          "name": "_eventNonce",
          "type": "uint256"
        },
        {
          "indexed": false,
          "internalType": "string",
          "name": "_name",
          "type": "string"
        },
        {
          "indexed": false,
          "internalType": "string",
          "name": "_symbol",
          "type": "string"
        },
        {
          "indexed": false,
          "internalType": "uint8",
          "name": "_decimals",
          "type": "uint8"
        }
      ],
      "name": "SendToCosmosEvent",
      "type": "event"
    },
    {
      "anonymous": false,
      "inputs": [
        {
          "indexed": true,
          "internalType": "uint256",
          "name": "_batchNonce",
          "type": "uint256"
        },
        {
          "indexed": true,
          "internalType": "address",
          "name": "_token",
          "type": "address"
        },
        {
          "indexed": false,
          "internalType": "uint256",
          "name": "_eventNonce",
          "type": "uint256"
        }
      ],
      "name": "TransactionBatchExecutedEvent",
      "type": "event"
    },
    {
      "anonymous": false,
      "inputs": [
        {
          "indexed": true,
          "internalType": "uint256",
          "name": "_newValsetNonce",
          "type": "uint256"
        },
        {
          "indexed": false,
          "internalType": "uint256",
          "name": "_eventNonce",
          "type": "uint256"
        },
        {
          "indexed": false,
          "internalType": "address[]",
          "name": "_validators",
          "type": "address[]"
        },
        {
          "indexed": false,
          "internalType": "uint256[]",
          "name": "_powers",
          "type": "uint256[]"
        }
      ],
      "name": "ValsetUpdatedEvent",
      "type": "event"
    },
    {
      "inputs": [
        {
          "internalType": "string",
          "name": "_cosmosDenom",
          "type": "string"
        },
        {
          "internalType": "string",
          "name": "_name",
          "type": "string"
        },
        {
          "internalType": "string",
          "name": "_symbol",
          "type": "string"
        },
        {
          "internalType": "uint8",
          "name": "_decimals",
          "type": "uint8"
        }
      ],
      "name": "deployERC20",
      "outputs": [],
      "stateMutability": "nonpayable",
      "type": "function"
    },
    {
      "inputs": [
        {
          "internalType": "address",
          "name": "_erc20Address",
          "type": "address"
        }
      ],
      "name": "lastBatchNonce",
      "outputs": [
        {
          "internalType": "uint256",
          "name": "",
          "type": "uint256"
        }
      ],
      "stateMutability": "view",
      "type": "function"
    },
    {
      "inputs": [
        {
          "internalType": "bytes32",
          "name": "_invalidation_id",
          "type": "bytes32"
        }
      ],
      "name": "lastLogicCallNonce",
      "outputs": [
        {
          "internalType": "uint256",
          "name": "",
          "type": "uint256"
        }
      ],
      "stateMutability": "view",
      "type": "function"
    },
    {
      "inputs": [
        {
          "internalType": "address",
          "name": "_tokenContract",
          "type": "address"
        },
        {
          "internalType": "bytes32",
          "name": "_destination",
          "type": "bytes32"
        },
        {
          "internalType": "uint256",
          "name": "_amount",
          "type": "uint256"
        }
      ],
      "name": "sendToAiax",
      "outputs": [],
      "stateMutability": "nonpayable",
      "type": "function"
    },
    {
      "inputs": [
        {
          "internalType": "address",
          "name": "_tokenContract",
          "type": "address"
        },
        {
          "internalType": "bytes32",
          "name": "_destination",
          "type": "bytes32"
        },
        {
          "internalType": "uint256",
          "name": "_amount",
          "type": "uint256"
        }
      ],
      "name": "sendToCosmos",
      "outputs": [],
      "stateMutability": "nonpayable",
      "type": "function"
    },
    {
      "inputs": [],
      "name": "state_gravityId",
      "outputs": [
        {
          "internalType": "bytes32",
          "name": "",
          "type": "bytes32"
        }
      ],
      "stateMutability": "view",
      "type": "function"
    },
    {
      "inputs": [
        {
          "internalType": "bytes32",
          "name": "",
          "type": "bytes32"
        }
      ],
      "name": "state_invalidationMapping",
      "outputs": [
        {
          "internalType": "uint256",
          "name": "",
          "type": "uint256"
        }
      ],
      "stateMutability": "view",
      "type": "function"
    },
    {
      "inputs": [
        {
          "internalType": "address",
          "name": "",
          "type": "address"
        }
      ],
      "name": "state_lastBatchNonces",
      "outputs": [
        {
          "internalType": "uint256",
          "name": "",
          "type": "uint256"
        }
      ],
      "stateMutability": "view",
      "type": "function"
    },
    {
      "inputs": [],
      "name": "state_lastEventNonce",
      "outputs": [
        {
          "internalType": "uint256",
          "name": "",
          "type": "uint256"
        }
      ],
      "stateMutability": "view",
      "type": "function"
    },
    {
      "inputs": [],
      "name": "state_lastValsetCheckpoint",
      "outputs": [
        {
          "internalType": "bytes32",
          "name": "",
          "type": "bytes32"
        }
      ],
      "stateMutability": "view",
      "type": "function"
    },
    {
      "inputs": [],
      "name": "state_lastValsetNonce",
      "outputs": [
        {
          "internalType": "uint256",
          "name": "",
          "type": "uint256"
        }
      ],
      "stateMutability": "view",
      "type": "function"
    },
    {
      "inputs": [],
      "name": "state_powerThreshold",
      "outputs": [
        {
          "internalType": "uint256",
          "name": "",
          "type": "uint256"
        }
      ],
      "stateMutability": "view",
      "type": "function"
    },
    {
      "inputs": [
        {
          "internalType": "address[]",
          "name": "_currentValidators",
          "type": "address[]"
        },
        {
          "internalType": "uint256[]",
          "name": "_currentPowers",
          "type": "uint256[]"
        },
        {
          "internalType": "uint256",
          "name": "_currentValsetNonce",
          "type": "uint256"
        },
        {
          "internalType": "uint8[]",
          "name": "_v",
          "type": "uint8[]"
        },
        {
          "internalType": "bytes32[]",
          "name": "_r",
          "type": "bytes32[]"
        },
        {
          "internalType": "bytes32[]",
          "name": "_s",
          "type": "bytes32[]"
        },
        {
          "internalType": "uint256[]",
          "name": "_amounts",
          "type": "uint256[]"
        },
        {
          "internalType": "address[]",
          "name": "_destinations",
          "type": "address[]"
        },
        {
          "internalType": "uint256[]",
          "name": "_fees",
          "type": "uint256[]"
        },
        {
          "internalType": "uint256",
          "name": "_batchNonce",
          "type": "uint256"
        },
        {
          "internalType": "address",
          "name": "_tokenContract",
          "type": "address"
        },
        {
          "internalType": "uint256",
          "name": "_batchTimeout",
          "type": "uint256"
        }
      ],
      "name": "submitBatch",
      "outputs": [],
      "stateMutability": "nonpayable",
      "type": "function"
    },
    {
      "inputs": [
        {
          "internalType": "address[]",
          "name": "_currentValidators",
          "type": "address[]"
        },
        {
          "internalType": "uint256[]",
          "name": "_currentPowers",
          "type": "uint256[]"
        },
        {
          "internalType": "uint256",
          "name": "_currentValsetNonce",
          "type": "uint256"
        },
        {
          "internalType": "uint8[]",
          "name": "_v",
          "type": "uint8[]"
        },
        {
          "internalType": "bytes32[]",
          "name": "_r",
          "type": "bytes32[]"
        },
        {
          "internalType": "bytes32[]",
          "name": "_s",
          "type": "bytes32[]"
        },
        {
          "components": [
            {
              "internalType": "uint256[]",
              "name": "transferAmounts",
              "type": "uint256[]"
            },
            {
              "internalType": "address[]",
              "name": "transferTokenContracts",
              "type": "address[]"
            },
            {
              "internalType": "uint256[]",
              "name": "feeAmounts",
              "type": "uint256[]"
            },
            {
              "internalType": "address[]",
              "name": "feeTokenContracts",
              "type": "address[]"
            },
            {
              "internalType": "address",
              "name": "logicContractAddress",
              "type": "address"
            },
            {
              "internalType": "bytes",
              "name": "payload",
              "type": "bytes"
            },
            {
              "internalType": "uint256",
              "name": "timeOut",
              "type": "uint256"
            },
            {
              "internalType": "bytes32",
              "name": "invalidationId",
              "type": "bytes32"
            },
            {
              "internalType": "uint256",
              "name": "invalidationNonce",
              "type": "uint256"
            }
          ],
          "internalType": "struct LogicCallArgs",
          "name": "_args",
          "type": "tuple"
        }
      ],
      "name": "submitLogicCall",
      "outputs": [],
      "stateMutability": "nonpayable",
      "type": "function"
    },
    {
      "inputs": [
        {
          "internalType": "address[]",
          "name": "_currentValidators",
          "type": "address[]"
        },
        {
          "internalType": "uint256[]",
          "name": "_currentPowers",
          "type": "uint256[]"
        },
        {
          "internalType": "uint8[]",
          "name": "_v",
          "type": "uint8[]"
        },
        {
          "internalType": "bytes32[]",
          "name": "_r",
          "type": "bytes32[]"
        },
        {
          "internalType": "bytes32[]",
          "name": "_s",
          "type": "bytes32[]"
        },
        {
          "internalType": "bytes32",
          "name": "_theHash",
          "type": "bytes32"
        },
        {
          "internalType": "uint256",
          "name": "_powerThreshold",
          "type": "uint256"
        }
      ],
      "name": "testCheckValidatorSignatures",
      "outputs": [],
      "stateMutability": "pure",
      "type": "function"
    },
    {
      "inputs": [
        {
          "internalType": "address[]",
          "name": "_validators",
          "type": "address[]"
        },
        {
          "internalType": "uint256[]",
          "name": "_powers",
          "type": "uint256[]"
        },
        {
          "internalType": "uint256",
          "name": "_valsetNonce",
          "type": "uint256"
        },
        {
          "internalType": "bytes32",
          "name": "_gravityId",
          "type": "bytes32"
        }
      ],
      "name": "testMakeCheckpoint",
      "outputs": [],
      "stateMutability": "pure",
      "type": "function"
    },
    {
      "inputs": [
        {
          "internalType": "address[]",
          "name": "_newValidators",
          "type": "address[]"
        },
        {
          "internalType": "uint256[]",
          "name": "_newPowers",
          "type": "uint256[]"
        },
        {
          "internalType": "uint256",
          "name": "_newValsetNonce",
          "type": "uint256"
        },
        {
          "internalType": "address[]",
          "name": "_currentValidators",
          "type": "address[]"
        },
        {
          "internalType": "uint256[]",
          "name": "_currentPowers",
          "type": "uint256[]"
        },
        {
          "internalType": "uint256",
          "name": "_currentValsetNonce",
          "type": "uint256"
        },
        {
          "internalType": "uint8[]",
          "name": "_v",
          "type": "uint8[]"
        },
        {
          "internalType": "bytes32[]",
          "name": "_r",
          "type": "bytes32[]"
        },
        {
          "internalType": "bytes32[]",
          "name": "_s",
          "type": "bytes32[]"
        }
      ],
      "name": "updateValset",
      "outputs": [],
      "stateMutability": "nonpayable",
      "type": "function"
    }
  ],
  "bytecode": "0x6080604052600060045560016005553480156200001b57600080fd5b5060405162004812380380620048128339810160408190526200003e91620004a1565b600160005580518251146200009a5760405162461bcd60e51b815260206004820152601f60248201527f4d616c666f726d65642063757272656e742076616c696461746f72207365740060448201526064015b60405180910390fd5b6000805b8251811015620000f857828181518110620000bd57620000bd62000594565b602002602001015182620000d29190620005c0565b915084821115620000e357620000f8565b80620000ef81620005db565b9150506200009e565b50838111620001705760405162461bcd60e51b815260206004820152603c60248201527f5375626d69747465642076616c696461746f7220736574207369676e6174757260448201527f657320646f206e6f74206861766520656e6f75676820706f7765722e00000000606482015260840162000091565b600062000180848483896200034a565b60068790556007869055600181905560045460055460405192935090917fb119f1f36224601586b5037da909ecf37e83864dddea5d32ad4e32ac1d97e62b91620001ce918890889062000671565b60405180910390a26000306012604051620001e990620003b1565b6001600160a01b039092168252608060208301819052600a908301526920b4b0bc103a37b5b2b760b11b60a083015260c06040830181905260039083015262082b0b60eb1b60e083015260ff16606082015261010001604051809103906000f0801580156200025c573d6000803e3d6000fd5b5090506200027c60016005546200039c60201b620010111790919060201c565b600581905550806001600160a01b03167f82fe3a4fa49c6382d0c085746698ddbbafe6c2bf61285b19410644b5b26287c7826001600160a01b031663313ce5676040518163ffffffff1660e01b815260040160206040518083038186803b158015620002e757600080fd5b505afa158015620002fc573d6000803e3d6000fd5b505050506040513d601f19601f82011682018060405250810190620003229190620006aa565b60055460405162000335929190620006cf565b60405180910390a2505050505050506200078f565b6040516000906918da1958dadc1bda5b9d60b21b90829062000379908590849088908b908b9060200162000748565b60408051808303601f190181529190528051602090910120979650505050505050565b6000620003aa8284620005c0565b9392505050565b610cd28062003b4083390190565b634e487b7160e01b600052604160045260246000fd5b604051601f8201601f191681016001600160401b0381118282101715620004005762000400620003bf565b604052919050565b60006001600160401b03821115620004245762000424620003bf565b5060051b60200190565b600082601f8301126200044057600080fd5b8151602062000459620004538362000408565b620003d5565b82815260059290921b840181019181810190868411156200047957600080fd5b8286015b848110156200049657805183529183019183016200047d565b509695505050505050565b60008060008060808587031215620004b857600080fd5b845160208087015160408801519296509450906001600160401b0380821115620004e157600080fd5b818801915088601f830112620004f657600080fd5b815162000507620004538262000408565b81815260059190911b8301840190848101908b8311156200052757600080fd5b938501935b828510156200055e5784516001600160a01b03811681146200054e5760008081fd5b825293850193908501906200052c565b60608b015190975094505050808311156200057857600080fd5b505062000588878288016200042e565b91505092959194509250565b634e487b7160e01b600052603260045260246000fd5b634e487b7160e01b600052601160045260246000fd5b60008219821115620005d657620005d6620005aa565b500190565b6000600019821415620005f257620005f2620005aa565b5060010190565b600081518084526020808501945080840160005b83811015620006345781516001600160a01b0316875295820195908201906001016200060d565b509495945050505050565b600081518084526020808501945080840160005b83811015620006345781518752958201959082019060010162000653565b8381526060602082015260006200068c6060830185620005f9565b8281036040840152620006a081856200063f565b9695505050505050565b600060208284031215620006bd57600080fd5b815160ff81168114620003aa57600080fd5b60a08152600560a0820152640c2c2d2c2f60db1b60c082015260e0602082015260006200071060e0830160048152630c2d2c2f60e31b602082015260400190565b8281036040840152620007348160048152630c2d2c2f60e31b602082015260400190565b60ff95909516606084015250506080015290565b85815284602082015283604082015260a0606082015260006200076f60a0830185620005f9565b82810360808401526200078381856200063f565b98975050505050505050565b6133a1806200079f6000396000f3fe60806040523480156200001157600080fd5b5060043610620001215760003560e01c8063bdda81d411620000af578063df97174b116200007a578063df97174b1462000254578063e3cb9f621462000277578063e5a2b5d2146200028e578063f2b533071462000298578063f795563714620002a257600080fd5b8063bdda81d414620001f9578063c227c30b1462000203578063c9d194d5146200021a578063db7c4e57146200023d57600080fd5b80637dfb6f8611620000f05780637dfb6f86146200019e57806383b435db14620001c15780639bf5e11014620001d8578063b56561fe14620001ef57600080fd5b8063011b217414620001265780630c246c8214620001645780631ffbe7f9146200017d57806373b205471462000194575b600080fd5b62000152620001373660046200169f565b6001600160a01b031660009081526002602052604090205490565b60405190815260200160405180910390f35b6200017b6200017536600462001a59565b620002b9565b005b6200017b6200018e36600462001b6b565b62000709565b6200015260055481565b62000152620001af36600462001ba1565b60036020526000908152604090205481565b6200017b620001d236600462001bbb565b62000939565b6200017b620001e936600462001b6b565b62000cea565b6200015260045481565b6200015260065481565b6200017b6200021436600462001d7b565b62000d2c565b620001526200022b36600462001ba1565b60009081526003602052604090205490565b6200017b6200024e36600462001df5565b62000d41565b62000152620002653660046200169f565b60026020526000908152604090205481565b6200017b6200028836600462001ee9565b62000d5b565b6200015260075481565b6200015260015481565b6200017b620002b33660046200202d565b62000f65565b60026000541415620002e85760405162461bcd60e51b8152600401620002df90620020d3565b60405180910390fd5b600260005560c081015143106200032e5760405162461bcd60e51b8152602060048201526009602482015268151a5b5959081bdd5d60ba1b6044820152606401620002df565b61010081015160e082015160009081526003602052604090205410620003bd5760405162461bcd60e51b815260206004820152603d60248201527f4e657720696e76616c69646174696f6e206e6f6e6365206d757374206265206760448201527f726561746572207468616e207468652063757272656e74206e6f6e63650000006064820152608401620002df565b85518751148015620003d0575083518751145b8015620003de575082518751145b8015620003ec575081518751145b6200040b5760405162461bcd60e51b8152600401620002df906200210a565b6001546200041e88888860065462001026565b146200043e5760405162461bcd60e51b8152600401620002df9062002141565b60208101515181515114620004a05760405162461bcd60e51b815260206004820152602160248201527f4d616c666f726d6564206c697374206f6620746f6b656e207472616e736665726044820152607360f81b6064820152608401620002df565b80606001515181604001515114620004f45760405162461bcd60e51b81526020600482015260166024820152754d616c666f726d6564206c697374206f66206665657360501b6044820152606401620002df565b6000600654681b1bd9da58d0d85b1b60ba1b836000015184602001518560400151866060015187608001518860a001518960c001518a60e001518b6101000151604051602001620005509b9a9998979695949392919062002273565b6040516020818303038152906040528051906020012090506200057b88888787878660075462001078565b61010082015160e08301516000908152600360205260408120919091555b8251518110156200061d5762000608836080015184600001518381518110620005c657620005c662002323565b602002602001015185602001518481518110620005e757620005e762002323565b60200260200101516001600160a01b0316620012599092919063ffffffff16565b8062000614816200234f565b91505062000599565b5060006200063483608001518460a00151620012c3565b905060005b8360400151518110156200069b5762000686338560400151838151811062000665576200066562002323565b602002602001015186606001518481518110620005e757620005e762002323565b8062000692816200234f565b91505062000639565b50600554620006ac90600162001011565b600581905560e08401516101008501516040517f7c2bb24f8e1b3725cb613d7f11ef97d9745cc97a0e40f730621c052d684077a193620006f19392918691906200236d565b60405180910390a15050600160005550505050505050565b600260005414156200072f5760405162461bcd60e51b8152600401620002df90620020d3565b60026000556200074b6001600160a01b03841633308462001307565b6005546200075b90600162001011565b6005819055506000836001600160a01b03166306fdde036040518163ffffffff1660e01b815260040160006040518083038186803b1580156200079d57600080fd5b505afa158015620007b2573d6000803e3d6000fd5b505050506040513d6000823e601f3d908101601f19168201604052620007dc91908101906200239f565b90506000846001600160a01b03166395d89b416040518163ffffffff1660e01b815260040160006040518083038186803b1580156200081a57600080fd5b505afa1580156200082f573d6000803e3d6000fd5b505050506040513d6000823e601f3d908101601f191682016040526200085991908101906200239f565b90506000856001600160a01b031663313ce5676040518163ffffffff1660e01b815260040160206040518083038186803b1580156200089757600080fd5b505afa158015620008ac573d6000803e3d6000fd5b505050506040513d601f19601f82011682018060405250810190620008d291906200241e565b905084336001600160a01b0316876001600160a01b03167f457d57c3b144bf85ac1f8e9d2f11f6166b0434ca428ce8ac3f50df44afd516e587600554888888604051620009249594939291906200243e565b60405180910390a45050600160005550505050565b600260005414156200095f5760405162461bcd60e51b8152600401620002df90620020d3565b600260008181556001600160a01b038416815260209190915260409020548311620009ec5760405162461bcd60e51b815260206004820152603660248201527f4e6577206261746368206e6f6e6365206d7573742062652067726561746572206044820152757468616e207468652063757272656e74206e6f6e636560501b6064820152608401620002df565b80431062000a635760405162461bcd60e51b815260206004820152603b60248201527f42617463682074696d656f7574206d757374206265206772656174657220746860448201527f616e207468652063757272656e7420626c6f636b2068656967687400000000006064820152608401620002df565b8a518c5114801562000a76575088518c51145b801562000a84575087518c51145b801562000a92575086518c51145b62000ab15760405162461bcd60e51b8152600401620002df906200210a565b60015462000ac48d8d8d60065462001026565b1462000ae45760405162461bcd60e51b8152600401620002df9062002141565b8451865114801562000af7575083518651145b62000b455760405162461bcd60e51b815260206004820152601f60248201527f4d616c666f726d6564206261746368206f66207472616e73616374696f6e73006044820152606401620002df565b62000ba38c8c8b8b8b6006546f0e8e4c2dce6c2c6e8d2dedc84c2e8c6d60831b8d8d8d8d8d8d60405160200162000b8498979695949392919062002489565b6040516020818303038152906040528051906020012060075462001078565b6001600160a01b0382166000908152600260205260408120849055805b875181101562000c6a5762000c2287828151811062000be35762000be362002323565b602002602001015189838151811062000c005762000c0062002323565b6020026020010151866001600160a01b0316620012599092919063ffffffff16565b62000c5386828151811062000c3b5762000c3b62002323565b6020026020010151836200101190919063ffffffff16565b91508062000c61816200234f565b91505062000bc0565b5062000c816001600160a01b038416338362001259565b5060055462000c9290600162001011565b60058190556040519081526001600160a01b0383169084907f02c7e81975f8edb86e2a0c038b7b86a49c744236abf0f6177ff5afc6986ab7089060200160405180910390a35050600160005550505050505050505050565b6002600054141562000d105760405162461bcd60e51b8152600401620002df90620020d3565b600260005562000d2283838362000709565b5050600160005550565b62000d3a8484848462001026565b5050505050565b62000d528787878787878762001078565b50505050505050565b6002600054141562000d815760405162461bcd60e51b8152600401620002df90620020d3565b600260005583871162000dfd5760405162461bcd60e51b815260206004820152603760248201527f4e65772076616c736574206e6f6e6365206d757374206265206772656174657260448201527f207468616e207468652063757272656e74206e6f6e63650000000000000000006064820152608401620002df565b875189511462000e505760405162461bcd60e51b815260206004820152601b60248201527f4d616c666f726d6564206e65772076616c696461746f722073657400000000006044820152606401620002df565b8451865114801562000e63575082518651145b801562000e71575081518651145b801562000e7f575080518651145b62000e9e5760405162461bcd60e51b8152600401620002df906200210a565b60015462000eb187878760065462001026565b1462000ed15760405162461bcd60e51b8152600401620002df9062002141565b600062000ee38a8a8a60065462001026565b905062000ef887878686868660075462001078565b6001818155600489905560055462000f109162001011565b600581905560405189917fb119f1f36224601586b5037da909ecf37e83864dddea5d32ad4e32ac1d97e62b9162000f4c91908e908e9062002501565b60405180910390a2505060016000555050505050505050565b60003084848460405162000f799062001674565b62000f8894939291906200253a565b604051809103906000f08015801562000fa5573d6000803e3d6000fd5b5060055490915062000fb990600162001011565b60058190556040516001600160a01b038316917f82fe3a4fa49c6382d0c085746698ddbbafe6c2bf61285b19410644b5b26287c791620010029189918991899189919062002589565b60405180910390a25050505050565b60006200101f8284620025e0565b9392505050565b6040516000906918da1958dadc1bda5b9d60b21b90829062001055908590849088908b908b90602001620025fb565b60408051808303601f190181529190528051602090910120979650505050505050565b6000805b8851811015620011d7578681815181106200109b576200109b62002323565b602002602001015160ff16600014620011c2576200112d898281518110620010c757620010c762002323565b602002602001015185898481518110620010e557620010e562002323565b602002602001015189858151811062001102576200110262002323565b60200260200101518986815181106200111f576200111f62002323565b602002602001015162001347565b620011875760405162461bcd60e51b815260206004820152602360248201527f56616c696461746f72207369676e617475726520646f6573206e6f74206d617460448201526231b41760e91b6064820152608401620002df565b8781815181106200119c576200119c62002323565b602002602001015182620011b19190620025e0565b915082821115620011c257620011d7565b80620011ce816200234f565b9150506200107c565b508181116200124f5760405162461bcd60e51b815260206004820152603c60248201527f5375626d69747465642076616c696461746f7220736574207369676e6174757260448201527f657320646f206e6f74206861766520656e6f75676820706f7765722e000000006064820152608401620002df565b5050505050505050565b6040516001600160a01b038316602482015260448101829052620012be90849063a9059cbb60e01b906064015b60408051601f198184030181529190526020810180516001600160e01b03166001600160e01b03199093169290921790915262001412565b505050565b60606200101f83836040518060400160405280601e81526020017f416464726573733a206c6f772d6c6576656c2063616c6c206661696c65640000815250620014eb565b6040516001600160a01b0380851660248301528316604482015260648101829052620013419085906323b872dd60e01b9060840162001286565b50505050565b6040517f19457468657265756d205369676e6564204d6573736167653a0a3332000000006020820152603c81018590526000908190605c0160408051601f1981840301815282825280516020918201206000845290830180835281905260ff8816918301919091526060820186905260808201859052915060019060a0016020604051602081039080840390855afa158015620013e8573d6000803e3d6000fd5b505050602060405103516001600160a01b0316876001600160a01b03161491505095945050505050565b600062001469826040518060400160405280602081526020017f5361666545524332303a206c6f772d6c6576656c2063616c6c206661696c6564815250856001600160a01b0316620014eb9092919063ffffffff16565b805190915015620012be57808060200190518101906200148a919062002642565b620012be5760405162461bcd60e51b815260206004820152602a60248201527f5361666545524332303a204552433230206f7065726174696f6e20646964206e6044820152691bdd081cdd58d8d9595960b21b6064820152608401620002df565b6060620014fc848460008562001504565b949350505050565b606082471015620015675760405162461bcd60e51b815260206004820152602660248201527f416464726573733a20696e73756666696369656e742062616c616e636520666f6044820152651c8818d85b1b60d21b6064820152608401620002df565b843b620015b75760405162461bcd60e51b815260206004820152601d60248201527f416464726573733a2063616c6c20746f206e6f6e2d636f6e74726163740000006044820152606401620002df565b600080866001600160a01b03168587604051620015d5919062002666565b60006040518083038185875af1925050503d806000811462001614576040519150601f19603f3d011682016040523d82523d6000602084013e62001619565b606091505b50915091506200162b82828662001636565b979650505050505050565b60608315620016475750816200101f565b825115620016585782518084602001fd5b8160405162461bcd60e51b8152600401620002df919062002684565b610cd2806200269a83390190565b80356001600160a01b03811681146200169a57600080fd5b919050565b600060208284031215620016b257600080fd5b6200101f8262001682565b634e487b7160e01b600052604160045260246000fd5b60405161012081016001600160401b0381118282101715620016f957620016f9620016bd565b60405290565b604051601f8201601f191681016001600160401b03811182821017156200172a576200172a620016bd565b604052919050565b60006001600160401b038211156200174e576200174e620016bd565b5060051b60200190565b600082601f8301126200176a57600080fd5b81356020620017836200177d8362001732565b620016ff565b82815260059290921b84018101918181019086841115620017a357600080fd5b8286015b84811015620017c957620017bb8162001682565b8352918301918301620017a7565b509695505050505050565b600082601f830112620017e657600080fd5b81356020620017f96200177d8362001732565b82815260059290921b840181019181810190868411156200181957600080fd5b8286015b84811015620017c957803583529183019183016200181d565b60ff811681146200184657600080fd5b50565b600082601f8301126200185b57600080fd5b813560206200186e6200177d8362001732565b82815260059290921b840181019181810190868411156200188e57600080fd5b8286015b84811015620017c9578035620018a88162001836565b835291830191830162001892565b60006001600160401b03821115620018d257620018d2620016bd565b50601f01601f191660200190565b600082601f830112620018f257600080fd5b8135620019036200177d82620018b6565b8181528460208386010111156200191957600080fd5b816020850160208301376000918101602001919091529392505050565b600061012082840312156200194a57600080fd5b62001954620016d3565b905081356001600160401b03808211156200196e57600080fd5b6200197c85838601620017d4565b835260208401359150808211156200199357600080fd5b620019a18583860162001758565b60208401526040840135915080821115620019bb57600080fd5b620019c985838601620017d4565b60408401526060840135915080821115620019e357600080fd5b620019f18583860162001758565b606084015262001a046080850162001682565b608084015260a084013591508082111562001a1e57600080fd5b5062001a2d84828501620018e0565b60a08301525060c082013560c082015260e082013560e082015261010080830135818301525092915050565b600080600080600080600060e0888a03121562001a7557600080fd5b87356001600160401b038082111562001a8d57600080fd5b62001a9b8b838c0162001758565b985060208a013591508082111562001ab257600080fd5b62001ac08b838c01620017d4565b975060408a0135965060608a013591508082111562001ade57600080fd5b62001aec8b838c0162001849565b955060808a013591508082111562001b0357600080fd5b62001b118b838c01620017d4565b945060a08a013591508082111562001b2857600080fd5b62001b368b838c01620017d4565b935060c08a013591508082111562001b4d57600080fd5b5062001b5c8a828b0162001936565b91505092959891949750929550565b60008060006060848603121562001b8157600080fd5b62001b8c8462001682565b95602085013595506040909401359392505050565b60006020828403121562001bb457600080fd5b5035919050565b6000806000806000806000806000806000806101808d8f03121562001bdf57600080fd5b6001600160401b038d35111562001bf557600080fd5b62001c048e8e358f0162001758565b9b506001600160401b0360208e0135111562001c1f57600080fd5b62001c318e60208f01358f01620017d4565b9a5060408d013599506001600160401b0360608e0135111562001c5357600080fd5b62001c658e60608f01358f0162001849565b98506001600160401b0360808e0135111562001c8057600080fd5b62001c928e60808f01358f01620017d4565b97506001600160401b0360a08e0135111562001cad57600080fd5b62001cbf8e60a08f01358f01620017d4565b96506001600160401b0360c08e0135111562001cda57600080fd5b62001cec8e60c08f01358f01620017d4565b95506001600160401b0360e08e0135111562001d0757600080fd5b62001d198e60e08f01358f0162001758565b94506001600160401b036101008e0135111562001d3557600080fd5b62001d488e6101008f01358f01620017d4565b93506101208d0135925062001d616101408e0162001682565b91506101608d013590509295989b509295989b509295989b565b6000806000806080858703121562001d9257600080fd5b84356001600160401b038082111562001daa57600080fd5b62001db88883890162001758565b9550602087013591508082111562001dcf57600080fd5b5062001dde87828801620017d4565b949794965050505060408301359260600135919050565b600080600080600080600060e0888a03121562001e1157600080fd5b87356001600160401b038082111562001e2957600080fd5b62001e378b838c0162001758565b985060208a013591508082111562001e4e57600080fd5b62001e5c8b838c01620017d4565b975060408a013591508082111562001e7357600080fd5b62001e818b838c0162001849565b965060608a013591508082111562001e9857600080fd5b62001ea68b838c01620017d4565b955060808a013591508082111562001ebd57600080fd5b5062001ecc8a828b01620017d4565b93505060a0880135915060c0880135905092959891949750929550565b60008060008060008060008060006101208a8c03121562001f0957600080fd5b89356001600160401b038082111562001f2157600080fd5b62001f2f8d838e0162001758565b9a5060208c013591508082111562001f4657600080fd5b62001f548d838e01620017d4565b995060408c0135985060608c013591508082111562001f7257600080fd5b62001f808d838e0162001758565b975060808c013591508082111562001f9757600080fd5b62001fa58d838e01620017d4565b965060a08c0135955060c08c013591508082111562001fc357600080fd5b62001fd18d838e0162001849565b945060e08c013591508082111562001fe857600080fd5b62001ff68d838e01620017d4565b93506101008c01359150808211156200200e57600080fd5b506200201d8c828d01620017d4565b9150509295985092959850929598565b600080600080608085870312156200204457600080fd5b84356001600160401b03808211156200205c57600080fd5b6200206a88838901620018e0565b955060208701359150808211156200208157600080fd5b6200208f88838901620018e0565b94506040870135915080821115620020a657600080fd5b50620020b587828801620018e0565b9250506060850135620020c88162001836565b939692955090935050565b6020808252601f908201527f5265656e7472616e637947756172643a207265656e7472616e742063616c6c00604082015260600190565b6020808252601f908201527f4d616c666f726d65642063757272656e742076616c696461746f722073657400604082015260600190565b6020808252603f908201527f537570706c6965642063757272656e742076616c696461746f727320616e642060408201527f706f7765727320646f206e6f74206d6174636820636865636b706f696e742e00606082015260800190565b600081518084526020808501945080840160005b83811015620021d057815187529582019590820190600101620021b2565b509495945050505050565b600081518084526020808501945080840160005b83811015620021d05781516001600160a01b031687529582019590820190600101620021ef565b60005b838110156200223357818101518382015260200162002219565b83811115620013415750506000910152565b600081518084526200225f81602086016020860162002216565b601f01601f19169290920160200192915050565b60006101608d83528c6020840152806040840152620022958184018d6200219e565b90508281036060840152620022ab818c620021db565b90508281036080840152620022c1818b6200219e565b905082810360a0840152620022d7818a620021db565b6001600160a01b03891660c085015283810360e08501529050620022fc818862002245565b61010084019690965250506101208101929092526101409091015298975050505050505050565b634e487b7160e01b600052603260045260246000fd5b634e487b7160e01b600052601160045260246000fd5b600060001982141562002366576200236662002339565b5060010190565b8481528360208201526080604082015260006200238e608083018562002245565b905082606083015295945050505050565b600060208284031215620023b257600080fd5b81516001600160401b03811115620023c957600080fd5b8201601f81018413620023db57600080fd5b8051620023ec6200177d82620018b6565b8181528560208385010111156200240257600080fd5b6200241582602083016020860162002216565b95945050505050565b6000602082840312156200243157600080fd5b81516200101f8162001836565b85815284602082015260a0604082015260006200245f60a083018662002245565b828103606084015262002473818662002245565b91505060ff831660808301529695505050505050565b60006101008a8352896020840152806040840152620024ab8184018a6200219e565b90508281036060840152620024c18189620021db565b90508281036080840152620024d781886200219e565b60a084019690965250506001600160a01b039290921660c083015260e09091015295945050505050565b8381526060602082015260006200251c6060830185620021db565b82810360408401526200253081856200219e565b9695505050505050565b6001600160a01b0385168152608060208201819052600090620025609083018662002245565b828103604084015262002574818662002245565b91505060ff8316606083015295945050505050565b60a0815260006200259e60a083018862002245565b8281036020840152620025b2818862002245565b90508281036040840152620025c8818762002245565b60ff9590951660608401525050608001529392505050565b60008219821115620025f657620025f662002339565b500190565b85815284602082015283604082015260a0606082015260006200262260a0830185620021db565b82810360808401526200263681856200219e565b98975050505050505050565b6000602082840312156200265557600080fd5b815180151581146200101f57600080fd5b600082516200267a81846020870162002216565b9190910192915050565b6020815260006200101f60208301846200224556fe60806040526000196005553480156200001757600080fd5b5060405162000cd238038062000cd28339810160408190526200003a91620002f0565b825183908390620000539060039060208501906200017d565b508051620000699060049060208401906200017d565b50506006805460ff191660ff8416179055506005546200008b90859062000095565b50505050620003f8565b6001600160a01b038216620000f05760405162461bcd60e51b815260206004820152601f60248201527f45524332303a206d696e7420746f20746865207a65726f206164647265737300604482015260640160405180910390fd5b806002600082825462000104919062000394565b90915550506001600160a01b038216600090815260208190526040812080548392906200013390849062000394565b90915550506040518181526001600160a01b038316906000907fddf252ad1be2c89b69c2b068fc378daa952ba7f163c4a11628f55a4df523b3ef9060200160405180910390a35050565b8280546200018b90620003bb565b90600052602060002090601f016020900481019282620001af5760008555620001fa565b82601f10620001ca57805160ff1916838001178555620001fa565b82800160010185558215620001fa579182015b82811115620001fa578251825591602001919060010190620001dd565b50620002089291506200020c565b5090565b5b808211156200020857600081556001016200020d565b634e487b7160e01b600052604160045260246000fd5b600082601f8301126200024b57600080fd5b81516001600160401b038082111562000268576200026862000223565b604051601f8301601f19908116603f0116810190828211818310171562000293576200029362000223565b81604052838152602092508683858801011115620002b057600080fd5b600091505b83821015620002d45785820183015181830184015290820190620002b5565b83821115620002e65760008385830101525b9695505050505050565b600080600080608085870312156200030757600080fd5b84516001600160a01b03811681146200031f57600080fd5b60208601519094506001600160401b03808211156200033d57600080fd5b6200034b8883890162000239565b945060408701519150808211156200036257600080fd5b50620003718782880162000239565b925050606085015160ff811681146200038957600080fd5b939692955090935050565b60008219821115620003b657634e487b7160e01b600052601160045260246000fd5b500190565b600181811c90821680620003d057607f821691505b60208210811415620003f257634e487b7160e01b600052602260045260246000fd5b50919050565b6108ca80620004086000396000f3fe608060405234801561001057600080fd5b50600436106100a95760003560e01c80633950935111610071578063395093511461012957806370a082311461013c57806395d89b4114610165578063a457c2d71461016d578063a9059cbb14610180578063dd62ed3e1461019357600080fd5b806306fdde03146100ae578063095ea7b3146100cc57806318160ddd146100ef57806323b872dd14610101578063313ce56714610114575b600080fd5b6100b66101cc565b6040516100c39190610707565b60405180910390f35b6100df6100da366004610778565b61025e565b60405190151581526020016100c3565b6002545b6040519081526020016100c3565b6100df61010f3660046107a2565b610274565b60065460405160ff90911681526020016100c3565b6100df610137366004610778565b610323565b6100f361014a3660046107de565b6001600160a01b031660009081526020819052604090205490565b6100b661035f565b6100df61017b366004610778565b61036e565b6100df61018e366004610778565b610407565b6100f36101a1366004610800565b6001600160a01b03918216600090815260016020908152604080832093909416825291909152205490565b6060600380546101db90610833565b80601f016020809104026020016040519081016040528092919081815260200182805461020790610833565b80156102545780601f1061022957610100808354040283529160200191610254565b820191906000526020600020905b81548152906001019060200180831161023757829003601f168201915b5050505050905090565b600061026b338484610414565b50600192915050565b6000610281848484610538565b6001600160a01b03841660009081526001602090815260408083203384529091529020548281101561030b5760405162461bcd60e51b815260206004820152602860248201527f45524332303a207472616e7366657220616d6f756e74206578636565647320616044820152676c6c6f77616e636560c01b60648201526084015b60405180910390fd5b6103188533858403610414565b506001949350505050565b3360008181526001602090815260408083206001600160a01b0387168452909152812054909161026b91859061035a90869061086e565b610414565b6060600480546101db90610833565b3360009081526001602090815260408083206001600160a01b0386168452909152812054828110156103f05760405162461bcd60e51b815260206004820152602560248201527f45524332303a2064656372656173656420616c6c6f77616e63652062656c6f77604482015264207a65726f60d81b6064820152608401610302565b6103fd3385858403610414565b5060019392505050565b600061026b338484610538565b6001600160a01b0383166104765760405162461bcd60e51b8152602060048201526024808201527f45524332303a20617070726f76652066726f6d20746865207a65726f206164646044820152637265737360e01b6064820152608401610302565b6001600160a01b0382166104d75760405162461bcd60e51b815260206004820152602260248201527f45524332303a20617070726f766520746f20746865207a65726f206164647265604482015261737360f01b6064820152608401610302565b6001600160a01b0383811660008181526001602090815260408083209487168084529482529182902085905590518481527f8c5be1e5ebec7d5bd14f71427d1e84f3dd0314c0f7b2291e5b200ac8c7c3b925910160405180910390a3505050565b6001600160a01b03831661059c5760405162461bcd60e51b815260206004820152602560248201527f45524332303a207472616e736665722066726f6d20746865207a65726f206164604482015264647265737360d81b6064820152608401610302565b6001600160a01b0382166105fe5760405162461bcd60e51b815260206004820152602360248201527f45524332303a207472616e7366657220746f20746865207a65726f206164647260448201526265737360e81b6064820152608401610302565b6001600160a01b038316600090815260208190526040902054818110156106765760405162461bcd60e51b815260206004820152602660248201527f45524332303a207472616e7366657220616d6f756e7420657863656564732062604482015265616c616e636560d01b6064820152608401610302565b6001600160a01b038085166000908152602081905260408082208585039055918516815290812080548492906106ad90849061086e565b92505081905550826001600160a01b0316846001600160a01b03167fddf252ad1be2c89b69c2b068fc378daa952ba7f163c4a11628f55a4df523b3ef846040516106f991815260200190565b60405180910390a350505050565b600060208083528351808285015260005b8181101561073457858101830151858201604001528201610718565b81811115610746576000604083870101525b50601f01601f1916929092016040019392505050565b80356001600160a01b038116811461077357600080fd5b919050565b6000806040838503121561078b57600080fd5b6107948361075c565b946020939093013593505050565b6000806000606084860312156107b757600080fd5b6107c08461075c565b92506107ce6020850161075c565b9150604084013590509250925092565b6000602082840312156107f057600080fd5b6107f98261075c565b9392505050565b6000806040838503121561081357600080fd5b61081c8361075c565b915061082a6020840161075c565b90509250929050565b600181811c9082168061084757607f821691505b6020821081141561086857634e487b7160e01b600052602260045260246000fd5b50919050565b6000821982111561088f57634e487b7160e01b600052601160045260246000fd5b50019056fea264697066735822122030e2a9e9ecf2a9bb13d9e7adf8bd1b56e9b7f17e40c5f74ae7e22e74267d8cf664736f6c63430008090033a2646970667358221220c27b0569262880cadc4ff5473e741298f59a0175941ec5e68200364406c1741b64736f6c6343000809003360806040526000196005553480156200001757600080fd5b5060405162000cd238038062000cd28339810160408190526200003a91620002f0565b825183908390620000539060039060208501906200017d565b508051620000699060049060208401906200017d565b50506006805460ff191660ff8416179055506005546200008b90859062000095565b50505050620003f8565b6001600160a01b038216620000f05760405162461bcd60e51b815260206004820152601f60248201527f45524332303a206d696e7420746f20746865207a65726f206164647265737300604482015260640160405180910390fd5b806002600082825462000104919062000394565b90915550506001600160a01b038216600090815260208190526040812080548392906200013390849062000394565b90915550506040518181526001600160a01b038316906000907fddf252ad1be2c89b69c2b068fc378daa952ba7f163c4a11628f55a4df523b3ef9060200160405180910390a35050565b8280546200018b90620003bb565b90600052602060002090601f016020900481019282620001af5760008555620001fa565b82601f10620001ca57805160ff1916838001178555620001fa565b82800160010185558215620001fa579182015b82811115620001fa578251825591602001919060010190620001dd565b50620002089291506200020c565b5090565b5b808211156200020857600081556001016200020d565b634e487b7160e01b600052604160045260246000fd5b600082601f8301126200024b57600080fd5b81516001600160401b038082111562000268576200026862000223565b604051601f8301601f19908116603f0116810190828211818310171562000293576200029362000223565b81604052838152602092508683858801011115620002b057600080fd5b600091505b83821015620002d45785820183015181830184015290820190620002b5565b83821115620002e65760008385830101525b9695505050505050565b600080600080608085870312156200030757600080fd5b84516001600160a01b03811681146200031f57600080fd5b60208601519094506001600160401b03808211156200033d57600080fd5b6200034b8883890162000239565b945060408701519150808211156200036257600080fd5b50620003718782880162000239565b925050606085015160ff811681146200038957600080fd5b939692955090935050565b60008219821115620003b657634e487b7160e01b600052601160045260246000fd5b500190565b600181811c90821680620003d057607f821691505b60208210811415620003f257634e487b7160e01b600052602260045260246000fd5b50919050565b6108ca80620004086000396000f3fe608060405234801561001057600080fd5b50600436106100a95760003560e01c80633950935111610071578063395093511461012957806370a082311461013c57806395d89b4114610165578063a457c2d71461016d578063a9059cbb14610180578063dd62ed3e1461019357600080fd5b806306fdde03146100ae578063095ea7b3146100cc57806318160ddd146100ef57806323b872dd14610101578063313ce56714610114575b600080fd5b6100b66101cc565b6040516100c39190610707565b60405180910390f35b6100df6100da366004610778565b61025e565b60405190151581526020016100c3565b6002545b6040519081526020016100c3565b6100df61010f3660046107a2565b610274565b60065460405160ff90911681526020016100c3565b6100df610137366004610778565b610323565b6100f361014a3660046107de565b6001600160a01b031660009081526020819052604090205490565b6100b661035f565b6100df61017b366004610778565b61036e565b6100df61018e366004610778565b610407565b6100f36101a1366004610800565b6001600160a01b03918216600090815260016020908152604080832093909416825291909152205490565b6060600380546101db90610833565b80601f016020809104026020016040519081016040528092919081815260200182805461020790610833565b80156102545780601f1061022957610100808354040283529160200191610254565b820191906000526020600020905b81548152906001019060200180831161023757829003601f168201915b5050505050905090565b600061026b338484610414565b50600192915050565b6000610281848484610538565b6001600160a01b03841660009081526001602090815260408083203384529091529020548281101561030b5760405162461bcd60e51b815260206004820152602860248201527f45524332303a207472616e7366657220616d6f756e74206578636565647320616044820152676c6c6f77616e636560c01b60648201526084015b60405180910390fd5b6103188533858403610414565b506001949350505050565b3360008181526001602090815260408083206001600160a01b0387168452909152812054909161026b91859061035a90869061086e565b610414565b6060600480546101db90610833565b3360009081526001602090815260408083206001600160a01b0386168452909152812054828110156103f05760405162461bcd60e51b815260206004820152602560248201527f45524332303a2064656372656173656420616c6c6f77616e63652062656c6f77604482015264207a65726f60d81b6064820152608401610302565b6103fd3385858403610414565b5060019392505050565b600061026b338484610538565b6001600160a01b0383166104765760405162461bcd60e51b8152602060048201526024808201527f45524332303a20617070726f76652066726f6d20746865207a65726f206164646044820152637265737360e01b6064820152608401610302565b6001600160a01b0382166104d75760405162461bcd60e51b815260206004820152602260248201527f45524332303a20617070726f766520746f20746865207a65726f206164647265604482015261737360f01b6064820152608401610302565b6001600160a01b0383811660008181526001602090815260408083209487168084529482529182902085905590518481527f8c5be1e5ebec7d5bd14f71427d1e84f3dd0314c0f7b2291e5b200ac8c7c3b925910160405180910390a3505050565b6001600160a01b03831661059c5760405162461bcd60e51b815260206004820152602560248201527f45524332303a207472616e736665722066726f6d20746865207a65726f206164604482015264647265737360d81b6064820152608401610302565b6001600160a01b0382166105fe5760405162461bcd60e51b815260206004820152602360248201527f45524332303a207472616e7366657220746f20746865207a65726f206164647260448201526265737360e81b6064820152608401610302565b6001600160a01b038316600090815260208190526040902054818110156106765760405162461bcd60e51b815260206004820152602660248201527f45524332303a207472616e7366657220616d6f756e7420657863656564732062604482015265616c616e636560d01b6064820152608401610302565b6001600160a01b038085166000908152602081905260408082208585039055918516815290812080548492906106ad90849061086e565b92505081905550826001600160a01b0316846001600160a01b03167fddf252ad1be2c89b69c2b068fc378daa952ba7f163c4a11628f55a4df523b3ef846040516106f991815260200190565b60405180910390a350505050565b600060208083528351808285015260005b8181101561073457858101830151858201604001528201610718565b81811115610746576000604083870101525b50601f01601f1916929092016040019392505050565b80356001600160a01b038116811461077357600080fd5b919050565b6000806040838503121561078b57600080fd5b6107948361075c565b946020939093013593505050565b6000806000606084860312156107b757600080fd5b6107c08461075c565b92506107ce6020850161075c565b9150604084013590509250925092565b6000602082840312156107f057600080fd5b6107f98261075c565b9392505050565b6000806040838503121561081357600080fd5b61081c8361075c565b915061082a6020840161075c565b90509250929050565b600181811c9082168061084757607f821691505b6020821081141561086857634e487b7160e01b600052602260045260246000fd5b50919050565b6000821982111561088f57634e487b7160e01b600052601160045260246000fd5b50019056fea264697066735822122030e2a9e9ecf2a9bb13d9e7adf8bd1b56e9b7f17e40c5f74ae7e22e74267d8cf664736f6c63430008090033",
  "linkReferences": {},
  "deployedLinkReferences": {}
}