{
  "_format": "hh-sol-artifact-1",
  "contractName": "GravityTest",
  "sourceName": "contracts/GravityTest.sol",
  "abi": [
    {
      "inputs": [
        {
          "internalType": "bytes32",
          "name": "_gravityId",
          "type": "bytes32"
        },
        {
          "internalType": "uint256",
          "name": "_powerThreshold",
          "type": "uint256"
        },
        {
          "internalType": "address[]",
          "name": "_validators",
          "type": "address[]"
        },
        {
          "internalType": "uint256[]",
          "name": "_powers",
          "type": "uint256[]"
        }
      ],
      "stateMutability": "nonpayable",
      "type": "constructor"
    },
    {
      "anonymous": false,
      "inputs": [
        {
          "indexed": false,
          "internalType": "string",
          "name": "_cosmosDenom",
          "type": "string"
        },
        {
          "indexed": true,
          "internalType": "address",
          "name": "_tokenContract",
          "type": "address"
        },
        {
          "indexed": false,
          "internalType": "string",
          "name": "_name",
          "type": "string"
        },
        {
          "indexed": false,
          "internalType": "string",
          "name": "_symbol",
          "type": "string"
        },
        {
          "indexed": false,
          "internalType": "uint8",
          "name": "_decimals",
          "type": "uint8"
        },
        {
          "indexed": false,
          "internalType": "uint256",
          "name": "_eventNonce",
          "type": "uint256"
        }
      ],
      "name": "ERC20DeployedEvent",
      "type": "event"
    },
    {
      "anonymous": false,
      "inputs": [
        {
          "indexed": false,
          "internalType": "bytes32",
          "name": "_invalidationId",
          "type": "bytes32"
        },
        {
          "indexed": false,
          "internalType": "uint256",
          "name": "_invalidationNonce",
          "type": "uint256"
        },
        {
          "indexed": false,
          "internalType": "bytes",
          "name": "_returnData",
          "type": "bytes"
        },
        {
          "indexed": false,
          "internalType": "uint256",
          "name": "_eventNonce",
          "type": "uint256"
        }
      ],
      "name": "LogicCallEvent",
      "type": "event"
    },
    {
      "anonymous": false,
      "inputs": [
        {
          "indexed": true,
          "internalType": "address",
          "name": "_tokenContract",
          "type": "address"
        },
        {
          "indexed": true,
          "internalType": "address",
          "name": "_sender",
          "type": "address"
        },
        {
          "indexed": true,
          "internalType": "bytes32",
          "name": "_destination",
          "type": "bytes32"
        },
        {
          "indexed": false,
          "internalType": "uint256",
          "name": "_amount",
          "type": "uint256"
        },
        {
          "indexed": false,
          "internalType": "uint256",
          "name": "_eventNonce",
          "type": "uint256"
        },
        {
          "indexed": false,
          "internalType": "string",
          "name": "_name",
          "type": "string"
        },
        {
          "indexed": false,
          "internalType": "string",
          "name": "_symbol",
          "type": "string"
        },
        {
          "indexed": false,
          "internalType": "uint8",
          "name": "_decimals",
          "type": "uint8"
        },
        {
          "indexed": false,
          "internalType": "bool",
          "name": "_native",
          "type": "bool"
        }
      ],
      "name": "SendToCosmosEvent",
      "type": "event"
    },
    {
      "anonymous": false,
      "inputs": [
        {
          "indexed": true,
          "internalType": "uint256",
          "name": "_batchNonce",
          "type": "uint256"
        },
        {
          "indexed": true,
          "internalType": "address",
          "name": "_token",
          "type": "address"
        },
        {
          "indexed": false,
          "internalType": "uint256",
          "name": "_eventNonce",
          "type": "uint256"
        }
      ],
      "name": "TransactionBatchExecutedEvent",
      "type": "event"
    },
    {
      "anonymous": false,
      "inputs": [
        {
          "indexed": true,
          "internalType": "uint256",
          "name": "_newValsetNonce",
          "type": "uint256"
        },
        {
          "indexed": false,
          "internalType": "uint256",
          "name": "_eventNonce",
          "type": "uint256"
        },
        {
          "indexed": false,
          "internalType": "address[]",
          "name": "_validators",
          "type": "address[]"
        },
        {
          "indexed": false,
          "internalType": "uint256[]",
          "name": "_powers",
          "type": "uint256[]"
        }
      ],
      "name": "ValsetUpdatedEvent",
      "type": "event"
    },
    {
      "inputs": [],
      "name": "aiaxTokenAddress",
      "outputs": [
        {
          "internalType": "address",
          "name": "",
          "type": "address"
        }
      ],
      "stateMutability": "view",
      "type": "function"
    },
    {
      "inputs": [
        {
          "internalType": "string",
          "name": "_cosmosDenom",
          "type": "string"
        },
        {
          "internalType": "string",
          "name": "_name",
          "type": "string"
        },
        {
          "internalType": "string",
          "name": "_symbol",
          "type": "string"
        },
        {
          "internalType": "uint8",
          "name": "_decimals",
          "type": "uint8"
        }
      ],
      "name": "deployERC20",
      "outputs": [],
      "stateMutability": "nonpayable",
      "type": "function"
    },
    {
      "inputs": [
        {
          "internalType": "address",
          "name": "_erc20Address",
          "type": "address"
        }
      ],
      "name": "lastBatchNonce",
      "outputs": [
        {
          "internalType": "uint256",
          "name": "",
          "type": "uint256"
        }
      ],
      "stateMutability": "view",
      "type": "function"
    },
    {
      "inputs": [
        {
          "internalType": "bytes32",
          "name": "_invalidation_id",
          "type": "bytes32"
        }
      ],
      "name": "lastLogicCallNonce",
      "outputs": [
        {
          "internalType": "uint256",
          "name": "",
          "type": "uint256"
        }
      ],
      "stateMutability": "view",
      "type": "function"
    },
    {
      "inputs": [
        {
          "internalType": "address",
          "name": "_tokenContract",
          "type": "address"
        },
        {
          "internalType": "bytes32",
          "name": "_destination",
          "type": "bytes32"
        },
        {
          "internalType": "uint256",
          "name": "_amount",
          "type": "uint256"
        }
      ],
      "name": "sendToAiax",
      "outputs": [],
      "stateMutability": "nonpayable",
      "type": "function"
    },
    {
      "inputs": [
        {
          "internalType": "address",
          "name": "_tokenContract",
          "type": "address"
        },
        {
          "internalType": "bytes32",
          "name": "_destination",
          "type": "bytes32"
        },
        {
          "internalType": "uint256",
          "name": "_amount",
          "type": "uint256"
        }
      ],
      "name": "sendToCosmos",
      "outputs": [],
      "stateMutability": "nonpayable",
      "type": "function"
    },
    {
      "inputs": [],
      "name": "state_gravityId",
      "outputs": [
        {
          "internalType": "bytes32",
          "name": "",
          "type": "bytes32"
        }
      ],
      "stateMutability": "view",
      "type": "function"
    },
    {
      "inputs": [
        {
          "internalType": "bytes32",
          "name": "",
          "type": "bytes32"
        }
      ],
      "name": "state_invalidationMapping",
      "outputs": [
        {
          "internalType": "uint256",
          "name": "",
          "type": "uint256"
        }
      ],
      "stateMutability": "view",
      "type": "function"
    },
    {
      "inputs": [
        {
          "internalType": "address",
          "name": "",
          "type": "address"
        }
      ],
      "name": "state_lastBatchNonces",
      "outputs": [
        {
          "internalType": "uint256",
          "name": "",
          "type": "uint256"
        }
      ],
      "stateMutability": "view",
      "type": "function"
    },
    {
      "inputs": [],
      "name": "state_lastEventNonce",
      "outputs": [
        {
          "internalType": "uint256",
          "name": "",
          "type": "uint256"
        }
      ],
      "stateMutability": "view",
      "type": "function"
    },
    {
      "inputs": [],
      "name": "state_lastValsetCheckpoint",
      "outputs": [
        {
          "internalType": "bytes32",
          "name": "",
          "type": "bytes32"
        }
      ],
      "stateMutability": "view",
      "type": "function"
    },
    {
      "inputs": [],
      "name": "state_lastValsetNonce",
      "outputs": [
        {
          "internalType": "uint256",
          "name": "",
          "type": "uint256"
        }
      ],
      "stateMutability": "view",
      "type": "function"
    },
    {
      "inputs": [],
      "name": "state_powerThreshold",
      "outputs": [
        {
          "internalType": "uint256",
          "name": "",
          "type": "uint256"
        }
      ],
      "stateMutability": "view",
      "type": "function"
    },
    {
      "inputs": [
        {
          "internalType": "address[]",
          "name": "_currentValidators",
          "type": "address[]"
        },
        {
          "internalType": "uint256[]",
          "name": "_currentPowers",
          "type": "uint256[]"
        },
        {
          "internalType": "uint256",
          "name": "_currentValsetNonce",
          "type": "uint256"
        },
        {
          "internalType": "uint8[]",
          "name": "_v",
          "type": "uint8[]"
        },
        {
          "internalType": "bytes32[]",
          "name": "_r",
          "type": "bytes32[]"
        },
        {
          "internalType": "bytes32[]",
          "name": "_s",
          "type": "bytes32[]"
        },
        {
          "internalType": "uint256[]",
          "name": "_amounts",
          "type": "uint256[]"
        },
        {
          "internalType": "address[]",
          "name": "_destinations",
          "type": "address[]"
        },
        {
          "internalType": "uint256[]",
          "name": "_fees",
          "type": "uint256[]"
        },
        {
          "internalType": "uint256",
          "name": "_batchNonce",
          "type": "uint256"
        },
        {
          "internalType": "address",
          "name": "_tokenContract",
          "type": "address"
        },
        {
          "internalType": "uint256",
          "name": "_batchTimeout",
          "type": "uint256"
        }
      ],
      "name": "submitBatch",
      "outputs": [],
      "stateMutability": "nonpayable",
      "type": "function"
    },
    {
      "inputs": [
        {
          "internalType": "address[]",
          "name": "_currentValidators",
          "type": "address[]"
        },
        {
          "internalType": "uint256[]",
          "name": "_currentPowers",
          "type": "uint256[]"
        },
        {
          "internalType": "uint256",
          "name": "_currentValsetNonce",
          "type": "uint256"
        },
        {
          "internalType": "uint8[]",
          "name": "_v",
          "type": "uint8[]"
        },
        {
          "internalType": "bytes32[]",
          "name": "_r",
          "type": "bytes32[]"
        },
        {
          "internalType": "bytes32[]",
          "name": "_s",
          "type": "bytes32[]"
        },
        {
          "components": [
            {
              "internalType": "uint256[]",
              "name": "transferAmounts",
              "type": "uint256[]"
            },
            {
              "internalType": "address[]",
              "name": "transferTokenContracts",
              "type": "address[]"
            },
            {
              "internalType": "uint256[]",
              "name": "feeAmounts",
              "type": "uint256[]"
            },
            {
              "internalType": "address[]",
              "name": "feeTokenContracts",
              "type": "address[]"
            },
            {
              "internalType": "address",
              "name": "logicContractAddress",
              "type": "address"
            },
            {
              "internalType": "bytes",
              "name": "payload",
              "type": "bytes"
            },
            {
              "internalType": "uint256",
              "name": "timeOut",
              "type": "uint256"
            },
            {
              "internalType": "bytes32",
              "name": "invalidationId",
              "type": "bytes32"
            },
            {
              "internalType": "uint256",
              "name": "invalidationNonce",
              "type": "uint256"
            }
          ],
          "internalType": "struct LogicCallArgs",
          "name": "_args",
          "type": "tuple"
        }
      ],
      "name": "submitLogicCall",
      "outputs": [],
      "stateMutability": "nonpayable",
      "type": "function"
    },
    {
      "inputs": [
        {
          "internalType": "address[]",
          "name": "_currentValidators",
          "type": "address[]"
        },
        {
          "internalType": "uint256[]",
          "name": "_currentPowers",
          "type": "uint256[]"
        },
        {
          "internalType": "uint8[]",
          "name": "_v",
          "type": "uint8[]"
        },
        {
          "internalType": "bytes32[]",
          "name": "_r",
          "type": "bytes32[]"
        },
        {
          "internalType": "bytes32[]",
          "name": "_s",
          "type": "bytes32[]"
        },
        {
          "internalType": "bytes32",
          "name": "_theHash",
          "type": "bytes32"
        },
        {
          "internalType": "uint256",
          "name": "_powerThreshold",
          "type": "uint256"
        }
      ],
      "name": "testCheckValidatorSignatures",
      "outputs": [],
      "stateMutability": "pure",
      "type": "function"
    },
    {
      "inputs": [
        {
          "internalType": "address[]",
          "name": "_validators",
          "type": "address[]"
        },
        {
          "internalType": "uint256[]",
          "name": "_powers",
          "type": "uint256[]"
        },
        {
          "internalType": "uint256",
          "name": "_valsetNonce",
          "type": "uint256"
        },
        {
          "internalType": "bytes32",
          "name": "_gravityId",
          "type": "bytes32"
        }
      ],
      "name": "testMakeCheckpoint",
      "outputs": [],
      "stateMutability": "pure",
      "type": "function"
    },
    {
      "inputs": [
        {
          "internalType": "address[]",
          "name": "_newValidators",
          "type": "address[]"
        },
        {
          "internalType": "uint256[]",
          "name": "_newPowers",
          "type": "uint256[]"
        },
        {
          "internalType": "uint256",
          "name": "_newValsetNonce",
          "type": "uint256"
        },
        {
          "internalType": "address[]",
          "name": "_currentValidators",
          "type": "address[]"
        },
        {
          "internalType": "uint256[]",
          "name": "_currentPowers",
          "type": "uint256[]"
        },
        {
          "internalType": "uint256",
          "name": "_currentValsetNonce",
          "type": "uint256"
        },
        {
          "internalType": "uint8[]",
          "name": "_v",
          "type": "uint8[]"
        },
        {
          "internalType": "bytes32[]",
          "name": "_r",
          "type": "bytes32[]"
        },
        {
          "internalType": "bytes32[]",
          "name": "_s",
          "type": "bytes32[]"
        }
      ],
      "name": "updateValset",
      "outputs": [],
      "stateMutability": "nonpayable",
      "type": "function"
    }
  ],
  "bytecode": "0x6080604052600060045560016005553480156200001b57600080fd5b5060405162004951380380620049518339810160408190526200003e9162000571565b600160005580518251146200009a5760405162461bcd60e51b815260206004820152601f60248201527f4d616c666f726d65642063757272656e742076616c696461746f72207365740060448201526064015b60405180910390fd5b6000805b8251811015620000f857828181518110620000bd57620000bd62000664565b602002602001015182620000d2919062000690565b915084821115620000e357620000f8565b80620000ef81620006ab565b9150506200009e565b50838111620001705760405162461bcd60e51b815260206004820152603c60248201527f5375626d69747465642076616c696461746f7220736574207369676e6174757260448201527f657320646f206e6f74206861766520656e6f75676820706f7765722e00000000606482015260840162000091565b600062000180848483896200028e565b60068790556007869055600181905560045460055460405192935090917fb119f1f36224601586b5037da909ecf37e83864dddea5d32ad4e32ac1d97e62b91620001ce918890889062000741565b60405180910390a26000620001e2620002e0565b60405163a9059cbb60e01b81527315d34aaf54267db7d7c367839aaf71a00a2c6a656004820152600160801b60248201529091506001600160a01b0382169063a9059cbb90604401602060405180830381600087803b1580156200024557600080fd5b505af11580156200025a573d6000803e3d6000fd5b505050506040513d601f19601f820116820180604052508101906200028091906200077a565b505050505050505062000883565b6040516000906918da1958dadc1bda5b9d60b21b908290620002bd908590849088908b908b906020016200079e565b60408051808303601f190181529190528051602090910120979650505050505050565b600080306012604051620002f49062000481565b6001600160a01b039092168252608060208301819052600a908301526920b4b0bc103a37b5b2b760b11b60a083015260c06040830181905260039083015262082b0b60eb1b60e083015260ff16606082015261010001604051809103906000f08015801562000367573d6000803e3d6000fd5b50600880546001600160a01b0319166001600160a01b038316179055600554909150620003a29060016200046c602090811b6200105417901c565b6005556008546040805163313ce56760e01b815290516001600160a01b03928316927f82fe3a4fa49c6382d0c085746698ddbbafe6c2bf61285b19410644b5b26287c7929085169163313ce56791600480820192602092909190829003018186803b1580156200041157600080fd5b505afa15801562000426573d6000803e3d6000fd5b505050506040513d601f19601f820116820180604052508101906200044c9190620007e5565b6005546040516200045f9291906200080a565b60405180910390a2919050565b60006200047a828462000690565b9392505050565b610cd28062003c7f83390190565b634e487b7160e01b600052604160045260246000fd5b604051601f8201601f191681016001600160401b0381118282101715620004d057620004d06200048f565b604052919050565b60006001600160401b03821115620004f457620004f46200048f565b5060051b60200190565b600082601f8301126200051057600080fd5b81516020620005296200052383620004d8565b620004a5565b82815260059290921b840181019181810190868411156200054957600080fd5b8286015b848110156200056657805183529183019183016200054d565b509695505050505050565b600080600080608085870312156200058857600080fd5b845160208087015160408801519296509450906001600160401b0380821115620005b157600080fd5b818801915088601f830112620005c657600080fd5b8151620005d76200052382620004d8565b81815260059190911b8301840190848101908b831115620005f757600080fd5b938501935b828510156200062e5784516001600160a01b03811681146200061e5760008081fd5b82529385019390850190620005fc565b60608b015190975094505050808311156200064857600080fd5b50506200065887828801620004fe565b91505092959194509250565b634e487b7160e01b600052603260045260246000fd5b634e487b7160e01b600052601160045260246000fd5b60008219821115620006a657620006a66200067a565b500190565b6000600019821415620006c257620006c26200067a565b5060010190565b600081518084526020808501945080840160005b83811015620007045781516001600160a01b031687529582019590820190600101620006dd565b509495945050505050565b600081518084526020808501945080840160005b83811015620007045781518752958201959082019060010162000723565b8381526060602082015260006200075c6060830185620006c9565b82810360408401526200077081856200070f565b9695505050505050565b6000602082840312156200078d57600080fd5b815180151581146200047a57600080fd5b85815284602082015283604082015260a060608201526000620007c560a0830185620006c9565b8281036080840152620007d981856200070f565b98975050505050505050565b600060208284031215620007f857600080fd5b815160ff811681146200047a57600080fd5b60a08152600560a0820152640c2c2d2c2f60db1b60c082015260e0602082015260006200084b60e0830160048152630c2d2c2f60e31b602082015260400190565b82810360408401526200086f8160048152630c2d2c2f60e31b602082015260400190565b60ff95909516606084015250506080015290565b6133ec80620008936000396000f3fe60806040523480156200001157600080fd5b50600436106200012d5760003560e01c8063c227c30b11620000af578063e3cb9f62116200007a578063e3cb9f621462000284578063e5a2b5d2146200029b578063f08ef31e14620002a5578063f2b5330714620002d2578063f795563714620002dc57600080fd5b8063c227c30b1462000210578063c9d194d51462000227578063db7c4e57146200024a578063df97174b146200026157600080fd5b80637dfb6f8611620000fc5780637dfb6f8614620001ab57806383b435db14620001ce5780639bf5e11014620001e5578063b56561fe14620001fc578063bdda81d4146200020657600080fd5b8063011b217414620001325780630c246c8214620001715780631ffbe7f9146200018a57806373b2054714620001a1575b600080fd5b6200015e62000143366004620016e2565b6001600160a01b031660009081526002602052604090205490565b6040519081526020015b60405180910390f35b620001886200018236600462001a9c565b620002f3565b005b620001886200019b36600462001bae565b62000743565b6200015e60055481565b6200015e620001bc36600462001be4565b60036020526000908152604090205481565b62000188620001df36600462001bfe565b6200097c565b62000188620001f636600462001bae565b62000d2d565b6200015e60045481565b6200015e60065481565b620001886200022136600462001dbe565b62000d6f565b6200015e6200023836600462001be4565b60009081526003602052604090205490565b620001886200025b36600462001e38565b62000d84565b6200015e62000272366004620016e2565b60026020526000908152604090205481565b620001886200029536600462001f2c565b62000d9e565b6200015e60075481565b600854620002b9906001600160a01b031681565b6040516001600160a01b03909116815260200162000168565b6200015e60015481565b62000188620002ed36600462002070565b62000fa8565b60026000541415620003225760405162461bcd60e51b8152600401620003199062002116565b60405180910390fd5b600260005560c08101514310620003685760405162461bcd60e51b8152602060048201526009602482015268151a5b5959081bdd5d60ba1b604482015260640162000319565b61010081015160e082015160009081526003602052604090205410620003f75760405162461bcd60e51b815260206004820152603d60248201527f4e657720696e76616c69646174696f6e206e6f6e6365206d757374206265206760448201527f726561746572207468616e207468652063757272656e74206e6f6e6365000000606482015260840162000319565b855187511480156200040a575083518751145b801562000418575082518751145b801562000426575081518751145b620004455760405162461bcd60e51b815260040162000319906200214d565b6001546200045888888860065462001069565b14620004785760405162461bcd60e51b8152600401620003199062002184565b60208101515181515114620004da5760405162461bcd60e51b815260206004820152602160248201527f4d616c666f726d6564206c697374206f6620746f6b656e207472616e736665726044820152607360f81b606482015260840162000319565b806060015151816040015151146200052e5760405162461bcd60e51b81526020600482015260166024820152754d616c666f726d6564206c697374206f66206665657360501b604482015260640162000319565b6000600654681b1bd9da58d0d85b1b60ba1b836000015184602001518560400151866060015187608001518860a001518960c001518a60e001518b61010001516040516020016200058a9b9a99989796959493929190620022b6565b604051602081830303815290604052805190602001209050620005b5888887878786600754620010bb565b61010082015160e08301516000908152600360205260408120919091555b82515181101562000657576200064283608001518460000151838151811062000600576200060062002366565b60200260200101518560200151848151811062000621576200062162002366565b60200260200101516001600160a01b03166200129c9092919063ffffffff16565b806200064e8162002392565b915050620005d3565b5060006200066e83608001518460a0015162001306565b905060005b836040015151811015620006d557620006c033856040015183815181106200069f576200069f62002366565b60200260200101518660600151848151811062000621576200062162002366565b80620006cc8162002392565b91505062000673565b50600554620006e690600162001054565b600581905560e08401516101008501516040517f7c2bb24f8e1b3725cb613d7f11ef97d9745cc97a0e40f730621c052d684077a1936200072b939291869190620023b0565b60405180910390a15050600160005550505050505050565b60026000541415620007695760405162461bcd60e51b8152600401620003199062002116565b6002600055620007856001600160a01b0384163330846200134a565b6005546200079590600162001054565b6005819055506000836001600160a01b03166306fdde036040518163ffffffff1660e01b815260040160006040518083038186803b158015620007d757600080fd5b505afa158015620007ec573d6000803e3d6000fd5b505050506040513d6000823e601f3d908101601f19168201604052620008169190810190620023e2565b90506000846001600160a01b03166395d89b416040518163ffffffff1660e01b815260040160006040518083038186803b1580156200085457600080fd5b505afa15801562000869573d6000803e3d6000fd5b505050506040513d6000823e601f3d908101601f19168201604052620008939190810190620023e2565b90506000856001600160a01b031663313ce5676040518163ffffffff1660e01b815260040160206040518083038186803b158015620008d157600080fd5b505afa158015620008e6573d6000803e3d6000fd5b505050506040513d601f19601f820116820180604052508101906200090c919062002461565b6008546005546040519293506001600160a01b0389811692168214928892339290917fdc3b0dddddb1157e82fefe8b60fdd28a537b35e505606f5112fb5d9942fba1539162000966918b91908b908b908b908b9062002481565b60405180910390a4505060016000555050505050565b60026000541415620009a25760405162461bcd60e51b8152600401620003199062002116565b600260008181556001600160a01b03841681526020919091526040902054831162000a2f5760405162461bcd60e51b815260206004820152603660248201527f4e6577206261746368206e6f6e6365206d7573742062652067726561746572206044820152757468616e207468652063757272656e74206e6f6e636560501b606482015260840162000319565b80431062000aa65760405162461bcd60e51b815260206004820152603b60248201527f42617463682074696d656f7574206d757374206265206772656174657220746860448201527f616e207468652063757272656e7420626c6f636b206865696768740000000000606482015260840162000319565b8a518c5114801562000ab9575088518c51145b801562000ac7575087518c51145b801562000ad5575086518c51145b62000af45760405162461bcd60e51b815260040162000319906200214d565b60015462000b078d8d8d60065462001069565b1462000b275760405162461bcd60e51b8152600401620003199062002184565b8451865114801562000b3a575083518651145b62000b885760405162461bcd60e51b815260206004820152601f60248201527f4d616c666f726d6564206261746368206f66207472616e73616374696f6e7300604482015260640162000319565b62000be68c8c8b8b8b6006546f0e8e4c2dce6c2c6e8d2dedc84c2e8c6d60831b8d8d8d8d8d8d60405160200162000bc7989796959493929190620024d4565b60405160208183030381529060405280519060200120600754620010bb565b6001600160a01b0382166000908152600260205260408120849055805b875181101562000cad5762000c6587828151811062000c265762000c2662002366565b602002602001015189838151811062000c435762000c4362002366565b6020026020010151866001600160a01b03166200129c9092919063ffffffff16565b62000c9686828151811062000c7e5762000c7e62002366565b6020026020010151836200105490919063ffffffff16565b91508062000ca48162002392565b91505062000c03565b5062000cc46001600160a01b03841633836200129c565b5060055462000cd590600162001054565b60058190556040519081526001600160a01b0383169084907f02c7e81975f8edb86e2a0c038b7b86a49c744236abf0f6177ff5afc6986ab7089060200160405180910390a35050600160005550505050505050505050565b6002600054141562000d535760405162461bcd60e51b8152600401620003199062002116565b600260005562000d6583838362000743565b5050600160005550565b62000d7d8484848462001069565b5050505050565b62000d9587878787878787620010bb565b50505050505050565b6002600054141562000dc45760405162461bcd60e51b8152600401620003199062002116565b600260005583871162000e405760405162461bcd60e51b815260206004820152603760248201527f4e65772076616c736574206e6f6e6365206d757374206265206772656174657260448201527f207468616e207468652063757272656e74206e6f6e6365000000000000000000606482015260840162000319565b875189511462000e935760405162461bcd60e51b815260206004820152601b60248201527f4d616c666f726d6564206e65772076616c696461746f72207365740000000000604482015260640162000319565b8451865114801562000ea6575082518651145b801562000eb4575081518651145b801562000ec2575080518651145b62000ee15760405162461bcd60e51b815260040162000319906200214d565b60015462000ef487878760065462001069565b1462000f145760405162461bcd60e51b8152600401620003199062002184565b600062000f268a8a8a60065462001069565b905062000f3b878786868686600754620010bb565b6001818155600489905560055462000f539162001054565b600581905560405189917fb119f1f36224601586b5037da909ecf37e83864dddea5d32ad4e32ac1d97e62b9162000f8f91908e908e906200254c565b60405180910390a2505060016000555050505050505050565b60003084848460405162000fbc90620016b7565b62000fcb949392919062002585565b604051809103906000f08015801562000fe8573d6000803e3d6000fd5b5060055490915062000ffc90600162001054565b60058190556040516001600160a01b038316917f82fe3a4fa49c6382d0c085746698ddbbafe6c2bf61285b19410644b5b26287c7916200104591899189918991899190620025d4565b60405180910390a25050505050565b60006200106282846200262b565b9392505050565b6040516000906918da1958dadc1bda5b9d60b21b90829062001098908590849088908b908b9060200162002646565b60408051808303601f190181529190528051602090910120979650505050505050565b6000805b88518110156200121a57868181518110620010de57620010de62002366565b602002602001015160ff166000146200120557620011708982815181106200110a576200110a62002366565b60200260200101518589848151811062001128576200112862002366565b602002602001015189858151811062001145576200114562002366565b602002602001015189868151811062001162576200116262002366565b60200260200101516200138a565b620011ca5760405162461bcd60e51b815260206004820152602360248201527f56616c696461746f72207369676e617475726520646f6573206e6f74206d617460448201526231b41760e91b606482015260840162000319565b878181518110620011df57620011df62002366565b602002602001015182620011f491906200262b565b91508282111562001205576200121a565b80620012118162002392565b915050620010bf565b50818111620012925760405162461bcd60e51b815260206004820152603c60248201527f5375626d69747465642076616c696461746f7220736574207369676e6174757260448201527f657320646f206e6f74206861766520656e6f75676820706f7765722e00000000606482015260840162000319565b5050505050505050565b6040516001600160a01b0383166024820152604481018290526200130190849063a9059cbb60e01b906064015b60408051601f198184030181529190526020810180516001600160e01b03166001600160e01b03199093169290921790915262001455565b505050565b60606200106283836040518060400160405280601e81526020017f416464726573733a206c6f772d6c6576656c2063616c6c206661696c656400008152506200152e565b6040516001600160a01b0380851660248301528316604482015260648101829052620013849085906323b872dd60e01b90608401620012c9565b50505050565b6040517f19457468657265756d205369676e6564204d6573736167653a0a3332000000006020820152603c81018590526000908190605c0160408051601f1981840301815282825280516020918201206000845290830180835281905260ff8816918301919091526060820186905260808201859052915060019060a0016020604051602081039080840390855afa1580156200142b573d6000803e3d6000fd5b505050602060405103516001600160a01b0316876001600160a01b03161491505095945050505050565b6000620014ac826040518060400160405280602081526020017f5361666545524332303a206c6f772d6c6576656c2063616c6c206661696c6564815250856001600160a01b03166200152e9092919063ffffffff16565b805190915015620013015780806020019051810190620014cd91906200268d565b620013015760405162461bcd60e51b815260206004820152602a60248201527f5361666545524332303a204552433230206f7065726174696f6e20646964206e6044820152691bdd081cdd58d8d9595960b21b606482015260840162000319565b60606200153f848460008562001547565b949350505050565b606082471015620015aa5760405162461bcd60e51b815260206004820152602660248201527f416464726573733a20696e73756666696369656e742062616c616e636520666f6044820152651c8818d85b1b60d21b606482015260840162000319565b843b620015fa5760405162461bcd60e51b815260206004820152601d60248201527f416464726573733a2063616c6c20746f206e6f6e2d636f6e7472616374000000604482015260640162000319565b600080866001600160a01b03168587604051620016189190620026b1565b60006040518083038185875af1925050503d806000811462001657576040519150601f19603f3d011682016040523d82523d6000602084013e6200165c565b606091505b50915091506200166e82828662001679565b979650505050505050565b606083156200168a57508162001062565b8251156200169b5782518084602001fd5b8160405162461bcd60e51b8152600401620003199190620026cf565b610cd280620026e583390190565b80356001600160a01b0381168114620016dd57600080fd5b919050565b600060208284031215620016f557600080fd5b6200106282620016c5565b634e487b7160e01b600052604160045260246000fd5b60405161012081016001600160401b03811182821017156200173c576200173c62001700565b60405290565b604051601f8201601f191681016001600160401b03811182821017156200176d576200176d62001700565b604052919050565b60006001600160401b0382111562001791576200179162001700565b5060051b60200190565b600082601f830112620017ad57600080fd5b81356020620017c6620017c08362001775565b62001742565b82815260059290921b84018101918181019086841115620017e657600080fd5b8286015b848110156200180c57620017fe81620016c5565b8352918301918301620017ea565b509695505050505050565b600082601f8301126200182957600080fd5b813560206200183c620017c08362001775565b82815260059290921b840181019181810190868411156200185c57600080fd5b8286015b848110156200180c578035835291830191830162001860565b60ff811681146200188957600080fd5b50565b600082601f8301126200189e57600080fd5b81356020620018b1620017c08362001775565b82815260059290921b84018101918181019086841115620018d157600080fd5b8286015b848110156200180c578035620018eb8162001879565b8352918301918301620018d5565b60006001600160401b0382111562001915576200191562001700565b50601f01601f191660200190565b600082601f8301126200193557600080fd5b813562001946620017c082620018f9565b8181528460208386010111156200195c57600080fd5b816020850160208301376000918101602001919091529392505050565b600061012082840312156200198d57600080fd5b6200199762001716565b905081356001600160401b0380821115620019b157600080fd5b620019bf8583860162001817565b83526020840135915080821115620019d657600080fd5b620019e4858386016200179b565b60208401526040840135915080821115620019fe57600080fd5b62001a0c8583860162001817565b6040840152606084013591508082111562001a2657600080fd5b62001a34858386016200179b565b606084015262001a4760808501620016c5565b608084015260a084013591508082111562001a6157600080fd5b5062001a708482850162001923565b60a08301525060c082013560c082015260e082013560e082015261010080830135818301525092915050565b600080600080600080600060e0888a03121562001ab857600080fd5b87356001600160401b038082111562001ad057600080fd5b62001ade8b838c016200179b565b985060208a013591508082111562001af557600080fd5b62001b038b838c0162001817565b975060408a0135965060608a013591508082111562001b2157600080fd5b62001b2f8b838c016200188c565b955060808a013591508082111562001b4657600080fd5b62001b548b838c0162001817565b945060a08a013591508082111562001b6b57600080fd5b62001b798b838c0162001817565b935060c08a013591508082111562001b9057600080fd5b5062001b9f8a828b0162001979565b91505092959891949750929550565b60008060006060848603121562001bc457600080fd5b62001bcf84620016c5565b95602085013595506040909401359392505050565b60006020828403121562001bf757600080fd5b5035919050565b6000806000806000806000806000806000806101808d8f03121562001c2257600080fd5b6001600160401b038d35111562001c3857600080fd5b62001c478e8e358f016200179b565b9b506001600160401b0360208e0135111562001c6257600080fd5b62001c748e60208f01358f0162001817565b9a5060408d013599506001600160401b0360608e0135111562001c9657600080fd5b62001ca88e60608f01358f016200188c565b98506001600160401b0360808e0135111562001cc357600080fd5b62001cd58e60808f01358f0162001817565b97506001600160401b0360a08e0135111562001cf057600080fd5b62001d028e60a08f01358f0162001817565b96506001600160401b0360c08e0135111562001d1d57600080fd5b62001d2f8e60c08f01358f0162001817565b95506001600160401b0360e08e0135111562001d4a57600080fd5b62001d5c8e60e08f01358f016200179b565b94506001600160401b036101008e0135111562001d7857600080fd5b62001d8b8e6101008f01358f0162001817565b93506101208d0135925062001da46101408e01620016c5565b91506101608d013590509295989b509295989b509295989b565b6000806000806080858703121562001dd557600080fd5b84356001600160401b038082111562001ded57600080fd5b62001dfb888389016200179b565b9550602087013591508082111562001e1257600080fd5b5062001e218782880162001817565b949794965050505060408301359260600135919050565b600080600080600080600060e0888a03121562001e5457600080fd5b87356001600160401b038082111562001e6c57600080fd5b62001e7a8b838c016200179b565b985060208a013591508082111562001e9157600080fd5b62001e9f8b838c0162001817565b975060408a013591508082111562001eb657600080fd5b62001ec48b838c016200188c565b965060608a013591508082111562001edb57600080fd5b62001ee98b838c0162001817565b955060808a013591508082111562001f0057600080fd5b5062001f0f8a828b0162001817565b93505060a0880135915060c0880135905092959891949750929550565b60008060008060008060008060006101208a8c03121562001f4c57600080fd5b89356001600160401b038082111562001f6457600080fd5b62001f728d838e016200179b565b9a5060208c013591508082111562001f8957600080fd5b62001f978d838e0162001817565b995060408c0135985060608c013591508082111562001fb557600080fd5b62001fc38d838e016200179b565b975060808c013591508082111562001fda57600080fd5b62001fe88d838e0162001817565b965060a08c0135955060c08c01359150808211156200200657600080fd5b620020148d838e016200188c565b945060e08c01359150808211156200202b57600080fd5b620020398d838e0162001817565b93506101008c01359150808211156200205157600080fd5b50620020608c828d0162001817565b9150509295985092959850929598565b600080600080608085870312156200208757600080fd5b84356001600160401b03808211156200209f57600080fd5b620020ad8883890162001923565b95506020870135915080821115620020c457600080fd5b620020d28883890162001923565b94506040870135915080821115620020e957600080fd5b50620020f88782880162001923565b92505060608501356200210b8162001879565b939692955090935050565b6020808252601f908201527f5265656e7472616e637947756172643a207265656e7472616e742063616c6c00604082015260600190565b6020808252601f908201527f4d616c666f726d65642063757272656e742076616c696461746f722073657400604082015260600190565b6020808252603f908201527f537570706c6965642063757272656e742076616c696461746f727320616e642060408201527f706f7765727320646f206e6f74206d6174636820636865636b706f696e742e00606082015260800190565b600081518084526020808501945080840160005b838110156200221357815187529582019590820190600101620021f5565b509495945050505050565b600081518084526020808501945080840160005b83811015620022135781516001600160a01b03168752958201959082019060010162002232565b60005b83811015620022765781810151838201526020016200225c565b83811115620013845750506000910152565b60008151808452620022a281602086016020860162002259565b601f01601f19169290920160200192915050565b60006101608d83528c6020840152806040840152620022d88184018d620021e1565b90508281036060840152620022ee818c6200221e565b9050828103608084015262002304818b620021e1565b905082810360a08401526200231a818a6200221e565b6001600160a01b03891660c085015283810360e085015290506200233f818862002288565b61010084019690965250506101208101929092526101409091015298975050505050505050565b634e487b7160e01b600052603260045260246000fd5b634e487b7160e01b600052601160045260246000fd5b6000600019821415620023a957620023a96200237c565b5060010190565b848152836020820152608060408201526000620023d1608083018562002288565b905082606083015295945050505050565b600060208284031215620023f557600080fd5b81516001600160401b038111156200240c57600080fd5b8201601f810184136200241e57600080fd5b80516200242f620017c082620018f9565b8181528560208385010111156200244557600080fd5b6200245882602083016020860162002259565b95945050505050565b6000602082840312156200247457600080fd5b8151620010628162001879565b86815285602082015260c060408201526000620024a260c083018762002288565b8281036060840152620024b6818762002288565b60ff959095166080840152505090151560a090910152949350505050565b60006101008a8352896020840152806040840152620024f68184018a620021e1565b905082810360608401526200250c81896200221e565b90508281036080840152620025228188620021e1565b60a084019690965250506001600160a01b039290921660c083015260e09091015295945050505050565b8381526060602082015260006200256760608301856200221e565b82810360408401526200257b8185620021e1565b9695505050505050565b6001600160a01b0385168152608060208201819052600090620025ab9083018662002288565b8281036040840152620025bf818662002288565b91505060ff8316606083015295945050505050565b60a081526000620025e960a083018862002288565b8281036020840152620025fd818862002288565b9050828103604084015262002613818762002288565b60ff9590951660608401525050608001529392505050565b600082198211156200264157620026416200237c565b500190565b85815284602082015283604082015260a0606082015260006200266d60a08301856200221e565b8281036080840152620026818185620021e1565b98975050505050505050565b600060208284031215620026a057600080fd5b815180151581146200106257600080fd5b60008251620026c581846020870162002259565b9190910192915050565b6020815260006200106260208301846200228856fe60806040526000196005553480156200001757600080fd5b5060405162000cd238038062000cd28339810160408190526200003a91620002f0565b825183908390620000539060039060208501906200017d565b508051620000699060049060208401906200017d565b50506006805460ff191660ff8416179055506005546200008b90859062000095565b50505050620003f8565b6001600160a01b038216620000f05760405162461bcd60e51b815260206004820152601f60248201527f45524332303a206d696e7420746f20746865207a65726f206164647265737300604482015260640160405180910390fd5b806002600082825462000104919062000394565b90915550506001600160a01b038216600090815260208190526040812080548392906200013390849062000394565b90915550506040518181526001600160a01b038316906000907fddf252ad1be2c89b69c2b068fc378daa952ba7f163c4a11628f55a4df523b3ef9060200160405180910390a35050565b8280546200018b90620003bb565b90600052602060002090601f016020900481019282620001af5760008555620001fa565b82601f10620001ca57805160ff1916838001178555620001fa565b82800160010185558215620001fa579182015b82811115620001fa578251825591602001919060010190620001dd565b50620002089291506200020c565b5090565b5b808211156200020857600081556001016200020d565b634e487b7160e01b600052604160045260246000fd5b600082601f8301126200024b57600080fd5b81516001600160401b038082111562000268576200026862000223565b604051601f8301601f19908116603f0116810190828211818310171562000293576200029362000223565b81604052838152602092508683858801011115620002b057600080fd5b600091505b83821015620002d45785820183015181830184015290820190620002b5565b83821115620002e65760008385830101525b9695505050505050565b600080600080608085870312156200030757600080fd5b84516001600160a01b03811681146200031f57600080fd5b60208601519094506001600160401b03808211156200033d57600080fd5b6200034b8883890162000239565b945060408701519150808211156200036257600080fd5b50620003718782880162000239565b925050606085015160ff811681146200038957600080fd5b939692955090935050565b60008219821115620003b657634e487b7160e01b600052601160045260246000fd5b500190565b600181811c90821680620003d057607f821691505b60208210811415620003f257634e487b7160e01b600052602260045260246000fd5b50919050565b6108ca80620004086000396000f3fe608060405234801561001057600080fd5b50600436106100a95760003560e01c80633950935111610071578063395093511461012957806370a082311461013c57806395d89b4114610165578063a457c2d71461016d578063a9059cbb14610180578063dd62ed3e1461019357600080fd5b806306fdde03146100ae578063095ea7b3146100cc57806318160ddd146100ef57806323b872dd14610101578063313ce56714610114575b600080fd5b6100b66101cc565b6040516100c39190610707565b60405180910390f35b6100df6100da366004610778565b61025e565b60405190151581526020016100c3565b6002545b6040519081526020016100c3565b6100df61010f3660046107a2565b610274565b60065460405160ff90911681526020016100c3565b6100df610137366004610778565b610323565b6100f361014a3660046107de565b6001600160a01b031660009081526020819052604090205490565b6100b661035f565b6100df61017b366004610778565b61036e565b6100df61018e366004610778565b610407565b6100f36101a1366004610800565b6001600160a01b03918216600090815260016020908152604080832093909416825291909152205490565b6060600380546101db90610833565b80601f016020809104026020016040519081016040528092919081815260200182805461020790610833565b80156102545780601f1061022957610100808354040283529160200191610254565b820191906000526020600020905b81548152906001019060200180831161023757829003601f168201915b5050505050905090565b600061026b338484610414565b50600192915050565b6000610281848484610538565b6001600160a01b03841660009081526001602090815260408083203384529091529020548281101561030b5760405162461bcd60e51b815260206004820152602860248201527f45524332303a207472616e7366657220616d6f756e74206578636565647320616044820152676c6c6f77616e636560c01b60648201526084015b60405180910390fd5b6103188533858403610414565b506001949350505050565b3360008181526001602090815260408083206001600160a01b0387168452909152812054909161026b91859061035a90869061086e565b610414565b6060600480546101db90610833565b3360009081526001602090815260408083206001600160a01b0386168452909152812054828110156103f05760405162461bcd60e51b815260206004820152602560248201527f45524332303a2064656372656173656420616c6c6f77616e63652062656c6f77604482015264207a65726f60d81b6064820152608401610302565b6103fd3385858403610414565b5060019392505050565b600061026b338484610538565b6001600160a01b0383166104765760405162461bcd60e51b8152602060048201526024808201527f45524332303a20617070726f76652066726f6d20746865207a65726f206164646044820152637265737360e01b6064820152608401610302565b6001600160a01b0382166104d75760405162461bcd60e51b815260206004820152602260248201527f45524332303a20617070726f766520746f20746865207a65726f206164647265604482015261737360f01b6064820152608401610302565b6001600160a01b0383811660008181526001602090815260408083209487168084529482529182902085905590518481527f8c5be1e5ebec7d5bd14f71427d1e84f3dd0314c0f7b2291e5b200ac8c7c3b925910160405180910390a3505050565b6001600160a01b03831661059c5760405162461bcd60e51b815260206004820152602560248201527f45524332303a207472616e736665722066726f6d20746865207a65726f206164604482015264647265737360d81b6064820152608401610302565b6001600160a01b0382166105fe5760405162461bcd60e51b815260206004820152602360248201527f45524332303a207472616e7366657220746f20746865207a65726f206164647260448201526265737360e81b6064820152608401610302565b6001600160a01b038316600090815260208190526040902054818110156106765760405162461bcd60e51b815260206004820152602660248201527f45524332303a207472616e7366657220616d6f756e7420657863656564732062604482015265616c616e636560d01b6064820152608401610302565b6001600160a01b038085166000908152602081905260408082208585039055918516815290812080548492906106ad90849061086e565b92505081905550826001600160a01b0316846001600160a01b03167fddf252ad1be2c89b69c2b068fc378daa952ba7f163c4a11628f55a4df523b3ef846040516106f991815260200190565b60405180910390a350505050565b600060208083528351808285015260005b8181101561073457858101830151858201604001528201610718565b81811115610746576000604083870101525b50601f01601f1916929092016040019392505050565b80356001600160a01b038116811461077357600080fd5b919050565b6000806040838503121561078b57600080fd5b6107948361075c565b946020939093013593505050565b6000806000606084860312156107b757600080fd5b6107c08461075c565b92506107ce6020850161075c565b9150604084013590509250925092565b6000602082840312156107f057600080fd5b6107f98261075c565b9392505050565b6000806040838503121561081357600080fd5b61081c8361075c565b915061082a6020840161075c565b90509250929050565b600181811c9082168061084757607f821691505b6020821081141561086857634e487b7160e01b600052602260045260246000fd5b50919050565b6000821982111561088f57634e487b7160e01b600052601160045260246000fd5b50019056fea264697066735822122030e2a9e9ecf2a9bb13d9e7adf8bd1b56e9b7f17e40c5f74ae7e22e74267d8cf664736f6c63430008090033a2646970667358221220adeea66d5dbcda7c4bf4bef1682a7e4e3be0bd256e02461f2eb9eb691105eece64736f6c6343000809003360806040526000196005553480156200001757600080fd5b5060405162000cd238038062000cd28339810160408190526200003a91620002f0565b825183908390620000539060039060208501906200017d565b508051620000699060049060208401906200017d565b50506006805460ff191660ff8416179055506005546200008b90859062000095565b50505050620003f8565b6001600160a01b038216620000f05760405162461bcd60e51b815260206004820152601f60248201527f45524332303a206d696e7420746f20746865207a65726f206164647265737300604482015260640160405180910390fd5b806002600082825462000104919062000394565b90915550506001600160a01b038216600090815260208190526040812080548392906200013390849062000394565b90915550506040518181526001600160a01b038316906000907fddf252ad1be2c89b69c2b068fc378daa952ba7f163c4a11628f55a4df523b3ef9060200160405180910390a35050565b8280546200018b90620003bb565b90600052602060002090601f016020900481019282620001af5760008555620001fa565b82601f10620001ca57805160ff1916838001178555620001fa565b82800160010185558215620001fa579182015b82811115620001fa578251825591602001919060010190620001dd565b50620002089291506200020c565b5090565b5b808211156200020857600081556001016200020d565b634e487b7160e01b600052604160045260246000fd5b600082601f8301126200024b57600080fd5b81516001600160401b038082111562000268576200026862000223565b604051601f8301601f19908116603f0116810190828211818310171562000293576200029362000223565b81604052838152602092508683858801011115620002b057600080fd5b600091505b83821015620002d45785820183015181830184015290820190620002b5565b83821115620002e65760008385830101525b9695505050505050565b600080600080608085870312156200030757600080fd5b84516001600160a01b03811681146200031f57600080fd5b60208601519094506001600160401b03808211156200033d57600080fd5b6200034b8883890162000239565b945060408701519150808211156200036257600080fd5b50620003718782880162000239565b925050606085015160ff811681146200038957600080fd5b939692955090935050565b60008219821115620003b657634e487b7160e01b600052601160045260246000fd5b500190565b600181811c90821680620003d057607f821691505b60208210811415620003f257634e487b7160e01b600052602260045260246000fd5b50919050565b6108ca80620004086000396000f3fe608060405234801561001057600080fd5b50600436106100a95760003560e01c80633950935111610071578063395093511461012957806370a082311461013c57806395d89b4114610165578063a457c2d71461016d578063a9059cbb14610180578063dd62ed3e1461019357600080fd5b806306fdde03146100ae578063095ea7b3146100cc57806318160ddd146100ef57806323b872dd14610101578063313ce56714610114575b600080fd5b6100b66101cc565b6040516100c39190610707565b60405180910390f35b6100df6100da366004610778565b61025e565b60405190151581526020016100c3565b6002545b6040519081526020016100c3565b6100df61010f3660046107a2565b610274565b60065460405160ff90911681526020016100c3565b6100df610137366004610778565b610323565b6100f361014a3660046107de565b6001600160a01b031660009081526020819052604090205490565b6100b661035f565b6100df61017b366004610778565b61036e565b6100df61018e366004610778565b610407565b6100f36101a1366004610800565b6001600160a01b03918216600090815260016020908152604080832093909416825291909152205490565b6060600380546101db90610833565b80601f016020809104026020016040519081016040528092919081815260200182805461020790610833565b80156102545780601f1061022957610100808354040283529160200191610254565b820191906000526020600020905b81548152906001019060200180831161023757829003601f168201915b5050505050905090565b600061026b338484610414565b50600192915050565b6000610281848484610538565b6001600160a01b03841660009081526001602090815260408083203384529091529020548281101561030b5760405162461bcd60e51b815260206004820152602860248201527f45524332303a207472616e7366657220616d6f756e74206578636565647320616044820152676c6c6f77616e636560c01b60648201526084015b60405180910390fd5b6103188533858403610414565b506001949350505050565b3360008181526001602090815260408083206001600160a01b0387168452909152812054909161026b91859061035a90869061086e565b610414565b6060600480546101db90610833565b3360009081526001602090815260408083206001600160a01b0386168452909152812054828110156103f05760405162461bcd60e51b815260206004820152602560248201527f45524332303a2064656372656173656420616c6c6f77616e63652062656c6f77604482015264207a65726f60d81b6064820152608401610302565b6103fd3385858403610414565b5060019392505050565b600061026b338484610538565b6001600160a01b0383166104765760405162461bcd60e51b8152602060048201526024808201527f45524332303a20617070726f76652066726f6d20746865207a65726f206164646044820152637265737360e01b6064820152608401610302565b6001600160a01b0382166104d75760405162461bcd60e51b815260206004820152602260248201527f45524332303a20617070726f766520746f20746865207a65726f206164647265604482015261737360f01b6064820152608401610302565b6001600160a01b0383811660008181526001602090815260408083209487168084529482529182902085905590518481527f8c5be1e5ebec7d5bd14f71427d1e84f3dd0314c0f7b2291e5b200ac8c7c3b925910160405180910390a3505050565b6001600160a01b03831661059c5760405162461bcd60e51b815260206004820152602560248201527f45524332303a207472616e736665722066726f6d20746865207a65726f206164604482015264647265737360d81b6064820152608401610302565b6001600160a01b0382166105fe5760405162461bcd60e51b815260206004820152602360248201527f45524332303a207472616e7366657220746f20746865207a65726f206164647260448201526265737360e81b6064820152608401610302565b6001600160a01b038316600090815260208190526040902054818110156106765760405162461bcd60e51b815260206004820152602660248201527f45524332303a207472616e7366657220616d6f756e7420657863656564732062604482015265616c616e636560d01b6064820152608401610302565b6001600160a01b038085166000908152602081905260408082208585039055918516815290812080548492906106ad90849061086e565b92505081905550826001600160a01b0316846001600160a01b03167fddf252ad1be2c89b69c2b068fc378daa952ba7f163c4a11628f55a4df523b3ef846040516106f991815260200190565b60405180910390a350505050565b600060208083528351808285015260005b8181101561073457858101830151858201604001528201610718565b81811115610746576000604083870101525b50601f01601f1916929092016040019392505050565b80356001600160a01b038116811461077357600080fd5b919050565b6000806040838503121561078b57600080fd5b6107948361075c565b946020939093013593505050565b6000806000606084860312156107b757600080fd5b6107c08461075c565b92506107ce6020850161075c565b9150604084013590509250925092565b6000602082840312156107f057600080fd5b6107f98261075c565b9392505050565b6000806040838503121561081357600080fd5b61081c8361075c565b915061082a6020840161075c565b90509250929050565b600181811c9082168061084757607f821691505b6020821081141561086857634e487b7160e01b600052602260045260246000fd5b50919050565b6000821982111561088f57634e487b7160e01b600052601160045260246000fd5b50019056fea264697066735822122030e2a9e9ecf2a9bb13d9e7adf8bd1b56e9b7f17e40c5f74ae7e22e74267d8cf664736f6c63430008090033",
  "linkReferences": {},
  "deployedLinkReferences": {}
}